{
	"data": {
		"bytecode": {
			"linkReferences": {},
			"object": "60a0604052650246139ca800600c553480156200001a575f80fd5b5060405162005efa38038062005efa8339818101604052810190620000409190620002a6565b6040518060400160405280601481526020017f446170704761746520627920446170704c6162730000000000000000000000008152506040518060400160405280600681526020017f444c47415445000000000000000000000000000000000000000000000000000081525082828282808033620000c4816200018060201b60201c565b508073ffffffffffffffffffffffffffffffffffffffff1660808173ffffffffffffffffffffffffffffffffffffffff168152505050505081600a90816200010d91906200053a565b5080600b90816200011f91906200053a565b505050505050733772f434d796a1b974e9b2cd37055a075f3450be600d5f6101000a81548173ffffffffffffffffffffffffffffffffffffffff021916908373ffffffffffffffffffffffffffffffffffffffff160217905550506200061e565b5f805f9054906101000a900473ffffffffffffffffffffffffffffffffffffffff169050815f806101000a81548173ffffffffffffffffffffffffffffffffffffffff021916908373ffffffffffffffffffffffffffffffffffffffff1602179055508173ffffffffffffffffffffffffffffffffffffffff168173ffffffffffffffffffffffffffffffffffffffff167f8be0079c531659141344cd1fd0a4f28419497f9722a3daafe3b4186f6b6457e060405160405180910390a35050565b5f80fd5b5f73ffffffffffffffffffffffffffffffffffffffff82169050919050565b5f620002708262000245565b9050919050565b620002828162000264565b81146200028d575f80fd5b50565b5f81519050620002a08162000277565b92915050565b5f60208284031215620002be57620002bd62000241565b5b5f620002cd8482850162000290565b91505092915050565b5f81519050919050565b7f4e487b71000000000000000000000000000000000000000000000000000000005f52604160045260245ffd5b7f4e487b71000000000000000000000000000000000000000000000000000000005f52602260045260245ffd5b5f60028204905060018216806200035257607f821691505b6020821081036200036857620003676200030d565b5b50919050565b5f819050815f5260205f209050919050565b5f6020601f8301049050919050565b5f82821b905092915050565b5f60088302620003cc7fffffffffffffffffffffffffffffffffffffffffffffffffffffffffffffffff826200038f565b620003d886836200038f565b95508019841693508086168417925050509392505050565b5f819050919050565b5f819050919050565b5f620004226200041c6200041684620003f0565b620003f9565b620003f0565b9050919050565b5f819050919050565b6200043d8362000402565b620004556200044c8262000429565b8484546200039b565b825550505050565b5f90565b6200046b6200045d565b6200047881848462000432565b505050565b5b818110156200049f57620004935f8262000461565b6001810190506200047e565b5050565b601f821115620004ee57620004b8816200036e565b620004c38462000380565b81016020851015620004d3578190505b620004eb620004e28562000380565b8301826200047d565b50505b505050565b5f82821c905092915050565b5f620005105f1984600802620004f3565b1980831691505092915050565b5f6200052a8383620004ff565b9150826002028217905092915050565b6200054582620002d6565b67ffffffffffffffff811115620005615762000560620002e0565b5b6200056d82546200033a565b6200057a828285620004a3565b5f60209050601f831160018114620005b0575f84156200059b578287015190505b620005a785826200051d565b86555062000616565b601f198416620005c0866200036e565b5f5b82811015620005e957848901518255600182019150602085019450602081019050620005c2565b8683101562000609578489015162000605601f891682620004ff565b8355505b6001600288020188555050505b505050505050565b608051615884620006765f395f8181610c0001528181610fa70152818161108401528181611175015281816114dc0152818161176701528181611c7701528181611d2b015281816122ad01526131df01526158845ff3fe6080604052600436106102e2575f3560e01c8063715018a61161018f578063baf3292d116100db578063eab45d9c11610094578063eddd0d9c1161006e578063eddd0d9c14610b48578063f2fde38b14610b70578063f5ecbdbc14610b98578063fc0c546a14610bd4576102e2565b8063eab45d9c14610ace578063eb8d72b714610af6578063ed629c5c14610b1e576102e2565b8063baf3292d146109d4578063c4461834146109fc578063cbed8b9c14610a26578063d1deba1f14610a4e578063dd62ed3e14610a6a578063df2a5b3b14610aa6576102e2565b806395d89b4111610148578063a457c2d711610122578063a457c2d71461090a578063a6c3d16514610946578063a9059cbb1461096e578063b353aaa7146109aa576102e2565b806395d89b411461087a5780639c3e0d6a146108a45780639f38369a146108ce576102e2565b8063715018a61461076e5780637533d788146107845780638cfd8f5c146107c05780638da5cb5b146107fc5780639358928b14610826578063950c8a7414610850576102e2565b8063395093511161024e57806344770515116102075780635b8c41e6116101e15780635b8c41e61461069157806366ad5c8a146106cd5780636d413538146106f557806370a0823114610732576102e2565b806344770515146106215780634c42899a1461064b5780635190563614610675576102e2565b8063395093511461051f5780633ccfd60b1461055b5780633d8b38f6146105655780633f1f4fa4146105a157806340c10f19146105dd57806342d65a8d146105f9576102e2565b806310ddb137116102a057806310ddb1371461040057806313966db51461042857806318160ddd1461045257806323b872dd1461047c5780632a205e3d146104b8578063313ce567146104f5576102e2565b80621d3567146102e657806301ffc9a71461030e57806306fdde031461034a57806307e0db1714610374578063095ea7b31461039c5780630df37483146103d8575b5f80fd5b3480156102f1575f80fd5b5061030c6004803603810190610307919061369c565b610bfe565b005b348015610319575f80fd5b50610334600480360381019061032f9190613794565b610e4c565b60405161034191906137d9565b60405180910390f35b348015610355575f80fd5b5061035e610f0d565b60405161036b919061387c565b60405180910390f35b34801561037f575f80fd5b5061039a6004803603810190610395919061389c565b610f9d565b005b3480156103a7575f80fd5b506103c260048036038101906103bd9190613954565b61102e565b6040516103cf91906137d9565b60405180910390f35b3480156103e3575f80fd5b506103fe60048036038101906103f99190613992565b611050565b005b34801561040b575f80fd5b506104266004803603810190610421919061389c565b61107a565b005b348015610433575f80fd5b5061043c61110b565b60405161044991906139df565b60405180910390f35b34801561045d575f80fd5b50610466611111565b60405161047391906139df565b60405180910390f35b348015610487575f80fd5b506104a2600480360381019061049d91906139f8565b61111a565b6040516104af91906137d9565b60405180910390f35b3480156104c3575f80fd5b506104de60048036038101906104d99190613a72565b611148565b6040516104ec929190613b29565b60405180910390f35b348015610500575f80fd5b50610509611225565b6040516105169190613b6b565b60405180910390f35b34801561052a575f80fd5b5061054560048036038101906105409190613954565b61122d565b60405161055291906137d9565b60405180910390f35b610563611263565b005b348015610570575f80fd5b5061058b60048036038101906105869190613b84565b6112df565b60405161059891906137d9565b60405180910390f35b3480156105ac575f80fd5b506105c760048036038101906105c2919061389c565b6113ae565b6040516105d491906139df565b60405180910390f35b6105f760048036038101906105f29190613954565b6113c3565b005b348015610604575f80fd5b5061061f600480360381019061061a9190613b84565b6114d2565b005b34801561062c575f80fd5b50610635611569565b60405161064291906139df565b60405180910390f35b348015610656575f80fd5b5061065f61156d565b60405161066c9190613bf0565b60405180910390f35b61068f600480360381019061068a9190613c44565b611571565b005b34801561069c575f80fd5b506106b760048036038101906106b29190613e48565b611611565b6040516106c49190613ecc565b60405180910390f35b3480156106d8575f80fd5b506106f360048036038101906106ee919061369c565b611654565b005b348015610700575f80fd5b5061071b60048036038101906107169190613ee5565b611763565b604051610729929190613b29565b60405180910390f35b34801561073d575f80fd5b5061075860048036038101906107539190613f81565b611811565b60405161076591906139df565b60405180910390f35b348015610779575f80fd5b50610782611857565b005b34801561078f575f80fd5b506107aa60048036038101906107a5919061389c565b61186a565b6040516107b79190613ffe565b60405180910390f35b3480156107cb575f80fd5b506107e660048036038101906107e1919061401e565b611905565b6040516107f391906139df565b60405180910390f35b348015610807575f80fd5b50610810611925565b60405161081d919061406b565b60405180910390f35b348015610831575f80fd5b5061083a61194c565b60405161084791906139df565b60405180910390f35b34801561085b575f80fd5b5061086461195a565b604051610871919061406b565b60405180910390f35b348015610885575f80fd5b5061088e61197f565b60405161089b919061387c565b60405180910390f35b3480156108af575f80fd5b506108b8611a0f565b6040516108c5919061406b565b60405180910390f35b3480156108d9575f80fd5b506108f460048036038101906108ef919061389c565b611a34565b6040516109019190613ffe565b60405180910390f35b348015610915575f80fd5b50610930600480360381019061092b9190613954565b611b46565b60405161093d91906137d9565b60405180910390f35b348015610951575f80fd5b5061096c60048036038101906109679190613b84565b611bc1565b005b348015610979575f80fd5b50610994600480360381019061098f9190613954565b611c53565b6040516109a191906137d9565b60405180910390f35b3480156109b5575f80fd5b506109be611c75565b6040516109cb91906140df565b60405180910390f35b3480156109df575f80fd5b506109fa60048036038101906109f59190613f81565b611c99565b005b348015610a07575f80fd5b50610a10611d1b565b604051610a1d91906139df565b60405180910390f35b348015610a31575f80fd5b50610a4c6004803603810190610a4791906140f8565b611d21565b005b610a686004803603810190610a63919061369c565b611dbe565b005b348015610a75575f80fd5b50610a906004803603810190610a8b919061417c565b611ff4565b604051610a9d91906139df565b60405180910390f35b348015610ab1575f80fd5b50610acc6004803603810190610ac791906141ba565b612076565b005b348015610ad9575f80fd5b50610af46004803603810190610aef919061420a565b612135565b005b348015610b01575f80fd5b50610b1c6004803603810190610b179190613b84565b612190565b005b348015610b29575f80fd5b50610b32612201565b604051610b3f91906137d9565b60405180910390f35b348015610b53575f80fd5b50610b6e6004803603810190610b699190614235565b612213565b005b348015610b7b575f80fd5b50610b966004803603810190610b919190613f81565b612225565b005b348015610ba3575f80fd5b50610bbe6004803603810190610bb99190614260565b6122a9565b604051610bcb9190613ffe565b60405180910390f35b348015610bdf575f80fd5b50610be8612356565b604051610bf5919061406b565b60405180910390f35b7f000000000000000000000000000000000000000000000000000000000000000073ffffffffffffffffffffffffffffffffffffffff16610c3d61235d565b73ffffffffffffffffffffffffffffffffffffffff1614610c93576040517f08c379a0000000000000000000000000000000000000000000000000000000008152600401610c8a9061430e565b60405180910390fd5b5f60015f8861ffff1661ffff1681526020019081526020015f208054610cb890614359565b80601f0160208091040260200160405190810160405280929190818152602001828054610ce490614359565b8015610d2f5780601f10610d0657610100808354040283529160200191610d2f565b820191905f5260205f20905b815481529060010190602001808311610d1257829003601f168201915b50505050509050805186869050148015610d4957505f8151115b8015610d72575080805190602001208686604051610d689291906143b7565b6040518091039020145b610db1576040517f08c379a0000000000000000000000000000000000000000000000000000000008152600401610da89061443f565b60405180910390fd5b610e438787878080601f0160208091040260200160405190810160405280939291908181526020018383808284375f81840152601f19601f820116905080830192505050505050508686868080601f0160208091040260200160405190810160405280939291908181526020018383808284375f81840152601f19601f82011690508083019250505050505050612364565b50505050505050565b5f807bffffffffffffffffffffffffffffffffffffffffffffffffffffffff1916827bffffffffffffffffffffffffffffffffffffffffffffffffffffffff19161480610ef657507f36372b07000000000000000000000000000000000000000000000000000000007bffffffffffffffffffffffffffffffffffffffffffffffffffffffff1916827bffffffffffffffffffffffffffffffffffffffffffffffffffffffff1916145b80610f065750610f058261242e565b5b9050919050565b6060600a8054610f1c90614359565b80601f0160208091040260200160405190810160405280929190818152602001828054610f4890614359565b8015610f935780601f10610f6a57610100808354040283529160200191610f93565b820191905f5260205f20905b815481529060010190602001808311610f7657829003601f168201915b5050505050905090565b610fa56124a7565b7f000000000000000000000000000000000000000000000000000000000000000073ffffffffffffffffffffffffffffffffffffffff166307e0db17826040518263ffffffff1660e01b8152600401610ffe9190613bf0565b5f604051808303815f87803b158015611015575f80fd5b505af1158015611027573d5f803e3d5ffd5b5050505050565b5f8061103861235d565b905061104581858561252e565b600191505092915050565b6110586124a7565b8060035f8461ffff1661ffff1681526020019081526020015f20819055505050565b6110826124a7565b7f000000000000000000000000000000000000000000000000000000000000000073ffffffffffffffffffffffffffffffffffffffff166310ddb137826040518263ffffffff1660e01b81526004016110db9190613bf0565b5f604051808303815f87803b1580156110f2575f80fd5b505af1158015611104573d5f803e3d5ffd5b5050505050565b600c5481565b5f600954905090565b5f8061112461235d565b9050611131858285612540565b61113c8585856125d2565b60019150509392505050565b5f805f808989896040516020016111629493929190614489565b60405160208183030381529060405290507f000000000000000000000000000000000000000000000000000000000000000073ffffffffffffffffffffffffffffffffffffffff166340a7bb108b30848a8a8a6040518763ffffffff1660e01b81526004016111d6969594939291906144c7565b6040805180830381865afa1580156111f0573d5f803e3d5ffd5b505050506040513d601f19601f82011682018060405250810190611214919061453c565b925092505097509795505050505050565b5f6012905090565b5f8061123761235d565b90506112588185856112498589611ff4565b61125391906145a7565b61252e565b600191505092915050565b61126b6124a7565b5f3373ffffffffffffffffffffffffffffffffffffffff1647604051611290906145fd565b5f6040518083038185875af1925050503d805f81146112ca576040519150601f19603f3d011682016040523d82523d5f602084013e6112cf565b606091505b50509050806112dc575f80fd5b50565b5f8060015f8661ffff1661ffff1681526020019081526020015f20805461130590614359565b80601f016020809104026020016040519081016040528092919081815260200182805461133190614359565b801561137c5780601f106113535761010080835404028352916020019161137c565b820191905f5260205f20905b81548152906001019060200180831161135f57829003601f168201915b5050505050905083836040516113939291906143b7565b60405180910390208180519060200120149150509392505050565b6003602052805f5260405f205f915090505481565b34600c54826113d29190614611565b1115611413576040517f08c379a000000000000000000000000000000000000000000000000000000000815260040161140a9061469c565b60405180910390fd5b5f600d5f9054906101000a900473ffffffffffffffffffffffffffffffffffffffff1673ffffffffffffffffffffffffffffffffffffffff1634604051611459906145fd565b5f6040518083038185875af1925050503d805f8114611493576040519150601f19603f3d011682016040523d82523d5f602084013e611498565b606091505b50509050806114a5575f80fd5b6114cd836114b1611225565b600a6114bd91906147e9565b846114c89190614611565b6126c2565b505050565b6114da6124a7565b7f000000000000000000000000000000000000000000000000000000000000000073ffffffffffffffffffffffffffffffffffffffff166342d65a8d8484846040518463ffffffff1660e01b815260040161153793929190614833565b5f604051808303815f87803b15801561154e575f80fd5b505af1158015611560573d5f803e3d5ffd5b50505050505050565b5f81565b5f81565b611606898989898080601f0160208091040260200160405190810160405280939291908181526020018383808284375f81840152601f19601f8201169050808301925050505050505088888888888080601f0160208091040260200160405190810160405280939291908181526020018383808284375f81840152601f19601f82011690508083019250505050505050612741565b505050505050505050565b6005602052825f5260405f2082805160208101820180518482526020830160208501208183528095505050505050602052805f5260405f205f9250925050505481565b3073ffffffffffffffffffffffffffffffffffffffff1661167361235d565b73ffffffffffffffffffffffffffffffffffffffff16146116c9576040517f08c379a00000000000000000000000000000000000000000000000000000000081526004016116c0906148d3565b60405180910390fd5b61175b8686868080601f0160208091040260200160405190810160405280939291908181526020018383808284375f81840152601f19601f820116905080830192505050505050508585858080601f0160208091040260200160405190810160405280939291908181526020018383808284375f81840152601f19601f82011690508083019250505050505050612845565b505050505050565b5f807f000000000000000000000000000000000000000000000000000000000000000073ffffffffffffffffffffffffffffffffffffffff166340a7bb1087308888886040518663ffffffff1660e01b81526004016117c69594939291906148f1565b6040805180830381865afa1580156117e0573d5f803e3d5ffd5b505050506040513d601f19601f82011682018060405250810190611804919061453c565b9150915094509492505050565b5f60075f8373ffffffffffffffffffffffffffffffffffffffff1673ffffffffffffffffffffffffffffffffffffffff1681526020019081526020015f20549050919050565b61185f6124a7565b6118685f6128af565b565b6001602052805f5260405f205f91509050805461188690614359565b80601f01602080910402602001604051908101604052809291908181526020018280546118b290614359565b80156118fd5780601f106118d4576101008083540402835291602001916118fd565b820191905f5260205f20905b8154815290600101906020018083116118e057829003601f168201915b505050505081565b6002602052815f5260405f20602052805f5260405f205f91509150505481565b5f805f9054906101000a900473ffffffffffffffffffffffffffffffffffffffff16905090565b5f611955611111565b905090565b60045f9054906101000a900473ffffffffffffffffffffffffffffffffffffffff1681565b6060600b805461198e90614359565b80601f01602080910402602001604051908101604052809291908181526020018280546119ba90614359565b8015611a055780601f106119dc57610100808354040283529160200191611a05565b820191905f5260205f20905b8154815290600101906020018083116119e857829003601f168201915b5050505050905090565b600d5f9054906101000a900473ffffffffffffffffffffffffffffffffffffffff1681565b60605f60015f8461ffff1661ffff1681526020019081526020015f208054611a5b90614359565b80601f0160208091040260200160405190810160405280929190818152602001828054611a8790614359565b8015611ad25780601f10611aa957610100808354040283529160200191611ad2565b820191905f5260205f20905b815481529060010190602001808311611ab557829003601f168201915b505050505090505f815103611b1c576040517f08c379a0000000000000000000000000000000000000000000000000000000008152600401611b139061499a565b60405180910390fd5b611b3e5f60148351611b2e91906149b8565b836129709092919063ffffffff16565b915050919050565b5f80611b5061235d565b90505f611b5d8286611ff4565b905083811015611ba8578481856040517fa60f030c000000000000000000000000000000000000000000000000000000008152600401611b9f939291906149eb565b60405180910390fd5b611bb5828686840361252e565b60019250505092915050565b611bc96124a7565b818130604051602001611bde93929190614a65565b60405160208183030381529060405260015f8561ffff1661ffff1681526020019081526020015f209081611c129190614c22565b507f8c0400cfe2d1199b1a725c78960bcc2a344d869b80590d0f2bd005db15a572ce838383604051611c4693929190614833565b60405180910390a1505050565b5f80611c5d61235d565b9050611c6a8185856125d2565b600191505092915050565b7f000000000000000000000000000000000000000000000000000000000000000081565b611ca16124a7565b8060045f6101000a81548173ffffffffffffffffffffffffffffffffffffffff021916908373ffffffffffffffffffffffffffffffffffffffff1602179055507f5db758e995a17ec1ad84bdef7e8c3293a0bd6179bcce400dff5d4c3d87db726b81604051611d10919061406b565b60405180910390a150565b61271081565b611d296124a7565b7f000000000000000000000000000000000000000000000000000000000000000073ffffffffffffffffffffffffffffffffffffffff1663cbed8b9c86868686866040518663ffffffff1660e01b8152600401611d8a959493929190614cf1565b5f604051808303815f87803b158015611da1575f80fd5b505af1158015611db3573d5f803e3d5ffd5b505050505050505050565b5f60055f8861ffff1661ffff1681526020019081526020015f208686604051611de89291906143b7565b90815260200160405180910390205f8567ffffffffffffffff1667ffffffffffffffff1681526020019081526020015f205490505f801b8103611e60576040517f08c379a0000000000000000000000000000000000000000000000000000000008152600401611e5790614dad565b60405180910390fd5b808383604051611e719291906143b7565b604051809103902014611eb9576040517f08c379a0000000000000000000000000000000000000000000000000000000008152600401611eb090614e3b565b60405180910390fd5b5f801b60055f8961ffff1661ffff1681526020019081526020015f208787604051611ee59291906143b7565b90815260200160405180910390205f8667ffffffffffffffff1667ffffffffffffffff1681526020019081526020015f2081905550611fac8787878080601f0160208091040260200160405190810160405280939291908181526020018383808284375f81840152601f19601f820116905080830192505050505050508686868080601f0160208091040260200160405190810160405280939291908181526020018383808284375f81840152601f19601f82011690508083019250505050505050612845565b7fc264d91f3adc5588250e1551f547752ca0cfa8f6b530d243b9f9f4cab10ea8e58787878785604051611fe3959493929190614e68565b60405180910390a150505050505050565b5f60085f8473ffffffffffffffffffffffffffffffffffffffff1673ffffffffffffffffffffffffffffffffffffffff1681526020019081526020015f205f8373ffffffffffffffffffffffffffffffffffffffff1673ffffffffffffffffffffffffffffffffffffffff1681526020019081526020015f2054905092915050565b61207e6124a7565b5f81116120c0576040517f08c379a00000000000000000000000000000000000000000000000000000000081526004016120b790614efe565b60405180910390fd5b8060025f8561ffff1661ffff1681526020019081526020015f205f8461ffff1661ffff1681526020019081526020015f20819055507f9d5c7c0b934da8fefa9c7760c98383778a12dfbfc0c3b3106518f43fb9508ac083838360405161212893929190614f1c565b60405180910390a1505050565b61213d6124a7565b8060065f6101000a81548160ff0219169083151502179055507f1584ad594a70cbe1e6515592e1272a987d922b097ead875069cebe8b40c004a48160405161218591906137d9565b60405180910390a150565b6121986124a7565b818160015f8661ffff1661ffff1681526020019081526020015f2091826121c0929190614f5b565b507ffa41487ad5d6728f0b19276fa1eddc16558578f5109fc39d2dc33c3230470dab8383836040516121f493929190614833565b60405180910390a1505050565b60065f9054906101000a900460ff1681565b61221b6124a7565b80600c8190555050565b61222d6124a7565b5f73ffffffffffffffffffffffffffffffffffffffff168173ffffffffffffffffffffffffffffffffffffffff160361229d575f6040517f1e4fbdf7000000000000000000000000000000000000000000000000000000008152600401612294919061406b565b60405180910390fd5b6122a6816128af565b50565b60607f000000000000000000000000000000000000000000000000000000000000000073ffffffffffffffffffffffffffffffffffffffff1663f5ecbdbc868630866040518563ffffffff1660e01b815260040161230a9493929190615028565b5f60405180830381865afa158015612324573d5f803e3d5ffd5b505050506040513d5f823e3d601f19601f8201168201806040525081019061234c91906150d9565b9050949350505050565b5f30905090565b5f33905090565b5f8061240f5a60966366ad5c8a60e01b8989898960405160240161238b9493929190615120565b604051602081830303815290604052907bffffffffffffffffffffffffffffffffffffffffffffffffffffffff19166020820180517bffffffffffffffffffffffffffffffffffffffffffffffffffffffff83818316178352505050503073ffffffffffffffffffffffffffffffffffffffff16612a8c909392919063ffffffff16565b9150915081612426576124258686868685612b1e565b5b505050505050565b5f7f14e4ceea000000000000000000000000000000000000000000000000000000007bffffffffffffffffffffffffffffffffffffffffffffffffffffffff1916827bffffffffffffffffffffffffffffffffffffffffffffffffffffffff191614806124a0575061249f82612bc8565b5b9050919050565b6124af61235d565b73ffffffffffffffffffffffffffffffffffffffff166124cd611925565b73ffffffffffffffffffffffffffffffffffffffff161461252c576124f061235d565b6040517f118cdaa7000000000000000000000000000000000000000000000000000000008152600401612523919061406b565b60405180910390fd5b565b61253b8383836001612c31565b505050565b5f61254b8484611ff4565b90507fffffffffffffffffffffffffffffffffffffffffffffffffffffffffffffffff81146125cc57818110156125bd578281836040517ffb8f41b20000000000000000000000000000000000000000000000000000000081526004016125b4939291906149eb565b60405180910390fd5b6125cb84848484035f612c31565b5b50505050565b5f73ffffffffffffffffffffffffffffffffffffffff168373ffffffffffffffffffffffffffffffffffffffff1603612642575f6040517f96c6fd1e000000000000000000000000000000000000000000000000000000008152600401612639919061406b565b60405180910390fd5b5f73ffffffffffffffffffffffffffffffffffffffff168273ffffffffffffffffffffffffffffffffffffffff16036126b2575f6040517fec442f050000000000000000000000000000000000000000000000000000000081526004016126a9919061406b565b60405180910390fd5b6126bd838383612e00565b505050565b5f73ffffffffffffffffffffffffffffffffffffffff168273ffffffffffffffffffffffffffffffffffffffff1603612732575f6040517fec442f05000000000000000000000000000000000000000000000000000000008152600401612729919061406b565b60405180910390fd5b61273d5f8383612e00565b5050565b61274d865f835f61301c565b5f61275a8888888861308b565b90505f80878360405160200161277293929190615171565b60405160208183030381529060405290505f61279089835f87611763565b509050803410156127d6576040517f08c379a00000000000000000000000000000000000000000000000000000000081526004016127cd906151f7565b60405180910390fd5b6127e48983888888866130ec565b8973ffffffffffffffffffffffffffffffffffffffff168961ffff167f39a4c66499bcf4b56d79f0dde8ed7a9d4925a0df55825206b2b8531e202be0d08a86604051612831929190615215565b60405180910390a350505050505050505050565b5f602082015190505f61ffff168161ffff160361286d5761286885858585613278565b6128a8565b6040517f08c379a000000000000000000000000000000000000000000000000000000000815260040161289f9061528d565b60405180910390fd5b5050505050565b5f805f9054906101000a900473ffffffffffffffffffffffffffffffffffffffff169050815f806101000a81548173ffffffffffffffffffffffffffffffffffffffff021916908373ffffffffffffffffffffffffffffffffffffffff1602179055508173ffffffffffffffffffffffffffffffffffffffff168173ffffffffffffffffffffffffffffffffffffffff167f8be0079c531659141344cd1fd0a4f28419497f9722a3daafe3b4186f6b6457e060405160405180910390a35050565b606081601f8361298091906145a7565b10156129c1576040517f08c379a00000000000000000000000000000000000000000000000000000000081526004016129b8906152f5565b60405180910390fd5b81836129cd91906145a7565b84511015612a10576040517f08c379a0000000000000000000000000000000000000000000000000000000008152600401612a079061535d565b60405180910390fd5b606082155f8114612a2f5760405191505f825260208201604052612a80565b6040519150601f8416801560200281840101858101878315602002848b0101015b81831015612a6d5780518352602083019250602081019050612a50565b50868552601f19601f8301166040525050505b50809150509392505050565b5f60605f805f8661ffff1667ffffffffffffffff811115612ab057612aaf613d24565b5b6040519080825280601f01601f191660200182016040528015612ae25781602001600182028036833780820191505090505b5090505f808751602089015f8d8df191503d925086831115612b02578692505b828152825f602083013e81819450945050505094509492505050565b818051906020012060055f8761ffff1661ffff1681526020019081526020015f2085604051612b4d91906153ab565b90815260200160405180910390205f8567ffffffffffffffff1667ffffffffffffffff1681526020019081526020015f20819055507fe183f33de2837795525b4792ca4cd60535bd77c53b7e7030060bfcf5734d6b0c8585858585604051612bb99594939291906153c1565b60405180910390a15050505050565b5f7f01ffc9a7000000000000000000000000000000000000000000000000000000007bffffffffffffffffffffffffffffffffffffffffffffffffffffffff1916827bffffffffffffffffffffffffffffffffffffffffffffffffffffffff1916149050919050565b5f73ffffffffffffffffffffffffffffffffffffffff168473ffffffffffffffffffffffffffffffffffffffff1603612ca1575f6040517fe602df05000000000000000000000000000000000000000000000000000000008152600401612c98919061406b565b60405180910390fd5b5f73ffffffffffffffffffffffffffffffffffffffff168373ffffffffffffffffffffffffffffffffffffffff1603612d11575f6040517f94280d62000000000000000000000000000000000000000000000000000000008152600401612d08919061406b565b60405180910390fd5b8160085f8673ffffffffffffffffffffffffffffffffffffffff1673ffffffffffffffffffffffffffffffffffffffff1681526020019081526020015f205f8573ffffffffffffffffffffffffffffffffffffffff1673ffffffffffffffffffffffffffffffffffffffff1681526020019081526020015f20819055508015612dfa578273ffffffffffffffffffffffffffffffffffffffff168473ffffffffffffffffffffffffffffffffffffffff167f8c5be1e5ebec7d5bd14f71427d1e84f3dd0314c0f7b2291e5b200ac8c7c3b92584604051612df191906139df565b60405180910390a35b50505050565b5f73ffffffffffffffffffffffffffffffffffffffff168373ffffffffffffffffffffffffffffffffffffffff1603612e50578060095f828254612e4491906145a7565b92505081905550612f20565b5f60075f8573ffffffffffffffffffffffffffffffffffffffff1673ffffffffffffffffffffffffffffffffffffffff1681526020019081526020015f2054905081811015612eda578381836040517fe450d38c000000000000000000000000000000000000000000000000000000008152600401612ed1939291906149eb565b60405180910390fd5b81810360075f8673ffffffffffffffffffffffffffffffffffffffff1673ffffffffffffffffffffffffffffffffffffffff1681526020019081526020015f2081905550505b5f73ffffffffffffffffffffffffffffffffffffffff168273ffffffffffffffffffffffffffffffffffffffff1603612f67578060095f8282540392505081905550612fb2565b8060075f8473ffffffffffffffffffffffffffffffffffffffff1673ffffffffffffffffffffffffffffffffffffffff1681526020019081526020015f205f82825401925050819055505b8173ffffffffffffffffffffffffffffffffffffffff168373ffffffffffffffffffffffffffffffffffffffff167fddf252ad1be2c89b69c2b068fc378daa952ba7f163c4a11628f55a4df523b3ef8360405161300f91906139df565b60405180910390a3505050565b60065f9054906101000a900460ff16156130415761303c84848484613312565b613085565b5f825114613084576040517f08c379a000000000000000000000000000000000000000000000000000000000815260040161307b90615497565b60405180910390fd5b5b50505050565b5f8061309561235d565b90508073ffffffffffffffffffffffffffffffffffffffff168673ffffffffffffffffffffffffffffffffffffffff16146130d6576130d5868285612540565b5b6130e086846133ea565b82915050949350505050565b5f60015f8861ffff1661ffff1681526020019081526020015f20805461311190614359565b80601f016020809104026020016040519081016040528092919081815260200182805461313d90614359565b80156131885780601f1061315f57610100808354040283529160200191613188565b820191905f5260205f20905b81548152906001019060200180831161316b57829003601f168201915b505050505090505f8151036131d2576040517f08c379a00000000000000000000000000000000000000000000000000000000081526004016131c990615525565b60405180910390fd5b6131dd878751613469565b7f000000000000000000000000000000000000000000000000000000000000000073ffffffffffffffffffffffffffffffffffffffff1663c58031008389848a8a8a8a6040518863ffffffff1660e01b815260040161324196959493929190615552565b5f604051808303818588803b158015613258575f80fd5b505af115801561326a573d5f803e3d5ffd5b505050505050505050505050565b5f808280602001905181019061328e91906155da565b92509250505f6132a75f846134db90919063ffffffff16565b90506132b487828461354f565b91508073ffffffffffffffffffffffffffffffffffffffff168761ffff167fbf551ec93859b170f9b2141bd9298bf3f64322c6f7beb2543a0cb669834118bf8460405161330191906139df565b60405180910390a350505050505050565b5f61331c83613564565b90505f8260025f8861ffff1661ffff1681526020019081526020015f205f8761ffff1661ffff1681526020019081526020015f205461335b91906145a7565b90505f811161339f576040517f08c379a000000000000000000000000000000000000000000000000000000000815260040161339690615690565b60405180910390fd5b808210156133e2576040517f08c379a00000000000000000000000000000000000000000000000000000000081526004016133d9906156f8565b60405180910390fd5b505050505050565b5f73ffffffffffffffffffffffffffffffffffffffff168273ffffffffffffffffffffffffffffffffffffffff160361345a575f6040517f96c6fd1e000000000000000000000000000000000000000000000000000000008152600401613451919061406b565b60405180910390fd5b613465825f83612e00565b5050565b5f60035f8461ffff1661ffff1681526020019081526020015f205490505f81036134935761271090505b808211156134d6576040517f08c379a00000000000000000000000000000000000000000000000000000000081526004016134cd90615760565b60405180910390fd5b505050565b5f6014826134e991906145a7565b8351101561352c576040517f08c379a0000000000000000000000000000000000000000000000000000000008152600401613523906157c8565b60405180910390fd5b5f6c01000000000000000000000000836020860101510490508091505092915050565b5f61355a83836126c2565b8190509392505050565b5f6022825110156135aa576040517f08c379a00000000000000000000000000000000000000000000000000000000081526004016135a190615830565b60405180910390fd5b60228201519050919050565b5f604051905090565b5f80fd5b5f80fd5b5f61ffff82169050919050565b6135dd816135c7565b81146135e7575f80fd5b50565b5f813590506135f8816135d4565b92915050565b5f80fd5b5f80fd5b5f80fd5b5f8083601f84011261361f5761361e6135fe565b5b8235905067ffffffffffffffff81111561363c5761363b613602565b5b60208301915083600182028301111561365857613657613606565b5b9250929050565b5f67ffffffffffffffff82169050919050565b61367b8161365f565b8114613685575f80fd5b50565b5f8135905061369681613672565b92915050565b5f805f805f80608087890312156136b6576136b56135bf565b5b5f6136c389828a016135ea565b965050602087013567ffffffffffffffff8111156136e4576136e36135c3565b5b6136f089828a0161360a565b9550955050604061370389828a01613688565b935050606087013567ffffffffffffffff811115613724576137236135c3565b5b61373089828a0161360a565b92509250509295509295509295565b5f7fffffffff0000000000000000000000000000000000000000000000000000000082169050919050565b6137738161373f565b811461377d575f80fd5b50565b5f8135905061378e8161376a565b92915050565b5f602082840312156137a9576137a86135bf565b5b5f6137b684828501613780565b91505092915050565b5f8115159050919050565b6137d3816137bf565b82525050565b5f6020820190506137ec5f8301846137ca565b92915050565b5f81519050919050565b5f82825260208201905092915050565b5f5b8381101561382957808201518184015260208101905061380e565b5f8484015250505050565b5f601f19601f8301169050919050565b5f61384e826137f2565b61385881856137fc565b935061386881856020860161380c565b61387181613834565b840191505092915050565b5f6020820190508181035f8301526138948184613844565b905092915050565b5f602082840312156138b1576138b06135bf565b5b5f6138be848285016135ea565b91505092915050565b5f73ffffffffffffffffffffffffffffffffffffffff82169050919050565b5f6138f0826138c7565b9050919050565b613900816138e6565b811461390a575f80fd5b50565b5f8135905061391b816138f7565b92915050565b5f819050919050565b61393381613921565b811461393d575f80fd5b50565b5f8135905061394e8161392a565b92915050565b5f806040838503121561396a576139696135bf565b5b5f6139778582860161390d565b925050602061398885828601613940565b9150509250929050565b5f80604083850312156139a8576139a76135bf565b5b5f6139b5858286016135ea565b92505060206139c685828601613940565b9150509250929050565b6139d981613921565b82525050565b5f6020820190506139f25f8301846139d0565b92915050565b5f805f60608486031215613a0f57613a0e6135bf565b5b5f613a1c8682870161390d565b9350506020613a2d8682870161390d565b9250506040613a3e86828701613940565b9150509250925092565b613a51816137bf565b8114613a5b575f80fd5b50565b5f81359050613a6c81613a48565b92915050565b5f805f805f805f60a0888a031215613a8d57613a8c6135bf565b5b5f613a9a8a828b016135ea565b975050602088013567ffffffffffffffff811115613abb57613aba6135c3565b5b613ac78a828b0161360a565b96509650506040613ada8a828b01613940565b9450506060613aeb8a828b01613a5e565b935050608088013567ffffffffffffffff811115613b0c57613b0b6135c3565b5b613b188a828b0161360a565b925092505092959891949750929550565b5f604082019050613b3c5f8301856139d0565b613b4960208301846139d0565b9392505050565b5f60ff82169050919050565b613b6581613b50565b82525050565b5f602082019050613b7e5f830184613b5c565b92915050565b5f805f60408486031215613b9b57613b9a6135bf565b5b5f613ba8868287016135ea565b935050602084013567ffffffffffffffff811115613bc957613bc86135c3565b5b613bd58682870161360a565b92509250509250925092565b613bea816135c7565b82525050565b5f602082019050613c035f830184613be1565b92915050565b5f613c13826138c7565b9050919050565b613c2381613c09565b8114613c2d575f80fd5b50565b5f81359050613c3e81613c1a565b92915050565b5f805f805f805f805f60e08a8c031215613c6157613c606135bf565b5b5f613c6e8c828d0161390d565b9950506020613c7f8c828d016135ea565b98505060408a013567ffffffffffffffff811115613ca057613c9f6135c3565b5b613cac8c828d0161360a565b97509750506060613cbf8c828d01613940565b9550506080613cd08c828d01613c30565b94505060a0613ce18c828d0161390d565b93505060c08a013567ffffffffffffffff811115613d0257613d016135c3565b5b613d0e8c828d0161360a565b92509250509295985092959850929598565b5f80fd5b7f4e487b71000000000000000000000000000000000000000000000000000000005f52604160045260245ffd5b613d5a82613834565b810181811067ffffffffffffffff82111715613d7957613d78613d24565b5b80604052505050565b5f613d8b6135b6565b9050613d978282613d51565b919050565b5f67ffffffffffffffff821115613db657613db5613d24565b5b613dbf82613834565b9050602081019050919050565b828183375f83830152505050565b5f613dec613de784613d9c565b613d82565b905082815260208101848484011115613e0857613e07613d20565b5b613e13848285613dcc565b509392505050565b5f82601f830112613e2f57613e2e6135fe565b5b8135613e3f848260208601613dda565b91505092915050565b5f805f60608486031215613e5f57613e5e6135bf565b5b5f613e6c868287016135ea565b935050602084013567ffffffffffffffff811115613e8d57613e8c6135c3565b5b613e9986828701613e1b565b9250506040613eaa86828701613688565b9150509250925092565b5f819050919050565b613ec681613eb4565b82525050565b5f602082019050613edf5f830184613ebd565b92915050565b5f805f8060808587031215613efd57613efc6135bf565b5b5f613f0a878288016135ea565b945050602085013567ffffffffffffffff811115613f2b57613f2a6135c3565b5b613f3787828801613e1b565b9350506040613f4887828801613a5e565b925050606085013567ffffffffffffffff811115613f6957613f686135c3565b5b613f7587828801613e1b565b91505092959194509250565b5f60208284031215613f9657613f956135bf565b5b5f613fa38482850161390d565b91505092915050565b5f81519050919050565b5f82825260208201905092915050565b5f613fd082613fac565b613fda8185613fb6565b9350613fea81856020860161380c565b613ff381613834565b840191505092915050565b5f6020820190508181035f8301526140168184613fc6565b905092915050565b5f8060408385031215614034576140336135bf565b5b5f614041858286016135ea565b9250506020614052858286016135ea565b9150509250929050565b614065816138e6565b82525050565b5f60208201905061407e5f83018461405c565b92915050565b5f819050919050565b5f6140a76140a261409d846138c7565b614084565b6138c7565b9050919050565b5f6140b88261408d565b9050919050565b5f6140c9826140ae565b9050919050565b6140d9816140bf565b82525050565b5f6020820190506140f25f8301846140d0565b92915050565b5f805f805f60808688031215614111576141106135bf565b5b5f61411e888289016135ea565b955050602061412f888289016135ea565b945050604061414088828901613940565b935050606086013567ffffffffffffffff811115614161576141606135c3565b5b61416d8882890161360a565b92509250509295509295909350565b5f8060408385031215614192576141916135bf565b5b5f61419f8582860161390d565b92505060206141b08582860161390d565b9150509250929050565b5f805f606084860312156141d1576141d06135bf565b5b5f6141de868287016135ea565b93505060206141ef868287016135ea565b925050604061420086828701613940565b9150509250925092565b5f6020828403121561421f5761421e6135bf565b5b5f61422c84828501613a5e565b91505092915050565b5f6020828403121561424a576142496135bf565b5b5f61425784828501613940565b91505092915050565b5f805f8060808587031215614278576142776135bf565b5b5f614285878288016135ea565b9450506020614296878288016135ea565b93505060406142a78782880161390d565b92505060606142b887828801613940565b91505092959194509250565b7f4c7a4170703a20696e76616c696420656e64706f696e742063616c6c657200005f82015250565b5f6142f8601e836137fc565b9150614303826142c4565b602082019050919050565b5f6020820190508181035f830152614325816142ec565b9050919050565b7f4e487b71000000000000000000000000000000000000000000000000000000005f52602260045260245ffd5b5f600282049050600182168061437057607f821691505b6020821081036143835761438261432c565b5b50919050565b5f81905092915050565b5f61439e8385614389565b93506143ab838584613dcc565b82840190509392505050565b5f6143c3828486614393565b91508190509392505050565b7f4c7a4170703a20696e76616c696420736f757263652073656e64696e6720636f5f8201527f6e74726163740000000000000000000000000000000000000000000000000000602082015250565b5f6144296026836137fc565b9150614434826143cf565b604082019050919050565b5f6020820190508181035f8301526144568161441d565b9050919050565b5f6144688385613fb6565b9350614475838584613dcc565b61447e83613834565b840190509392505050565b5f60608201905061449c5f830187613be1565b81810360208301526144af81858761445d565b90506144be60408301846139d0565b95945050505050565b5f60a0820190506144da5f830189613be1565b6144e7602083018861405c565b81810360408301526144f98187613fc6565b905061450860608301866137ca565b818103608083015261451b81848661445d565b9050979650505050505050565b5f815190506145368161392a565b92915050565b5f8060408385031215614552576145516135bf565b5b5f61455f85828601614528565b925050602061457085828601614528565b9150509250929050565b7f4e487b71000000000000000000000000000000000000000000000000000000005f52601160045260245ffd5b5f6145b182613921565b91506145bc83613921565b92508282019050808211156145d4576145d361457a565b5b92915050565b50565b5f6145e85f83614389565b91506145f3826145da565b5f82019050919050565b5f614607826145dd565b9150819050919050565b5f61461b82613921565b915061462683613921565b925082820261463481613921565b9150828204841483151761464b5761464a61457a565b5b5092915050565b7f4e6f7420656e6f756768206574686572000000000000000000000000000000005f82015250565b5f6146866010836137fc565b915061469182614652565b602082019050919050565b5f6020820190508181035f8301526146b38161467a565b9050919050565b5f8160011c9050919050565b5f808291508390505b600185111561470f578086048111156146eb576146ea61457a565b5b60018516156146fa5780820291505b8081029050614708856146ba565b94506146cf565b94509492505050565b5f8261472757600190506147e2565b81614734575f90506147e2565b816001811461474a576002811461475457614783565b60019150506147e2565b60ff8411156147665761476561457a565b5b8360020a91508482111561477d5761477c61457a565b5b506147e2565b5060208310610133831016604e8410600b84101617156147b85782820a9050838111156147b3576147b261457a565b5b6147e2565b6147c584848460016146c6565b925090508184048111156147dc576147db61457a565b5b81810290505b9392505050565b5f6147f382613921565b91506147fe83613b50565b925061482b7fffffffffffffffffffffffffffffffffffffffffffffffffffffffffffffffff8484614718565b905092915050565b5f6040820190506148465f830186613be1565b818103602083015261485981848661445d565b9050949350505050565b7f4e6f6e626c6f636b696e674c7a4170703a2063616c6c6572206d7573742062655f8201527f204c7a4170700000000000000000000000000000000000000000000000000000602082015250565b5f6148bd6026836137fc565b91506148c882614863565b604082019050919050565b5f6020820190508181035f8301526148ea816148b1565b9050919050565b5f60a0820190506149045f830188613be1565b614911602083018761405c565b81810360408301526149238186613fc6565b905061493260608301856137ca565b81810360808301526149448184613fc6565b90509695505050505050565b7f4c7a4170703a206e6f20747275737465642070617468207265636f72640000005f82015250565b5f614984601d836137fc565b915061498f82614950565b602082019050919050565b5f6020820190508181035f8301526149b181614978565b9050919050565b5f6149c282613921565b91506149cd83613921565b92508282039050818111156149e5576149e461457a565b5b92915050565b5f6060820190506149fe5f83018661405c565b614a0b60208301856139d0565b614a1860408301846139d0565b949350505050565b5f8160601b9050919050565b5f614a3682614a20565b9050919050565b5f614a4782614a2c565b9050919050565b614a5f614a5a826138e6565b614a3d565b82525050565b5f614a71828587614393565b9150614a7d8284614a4e565b601482019150819050949350505050565b5f819050815f5260205f209050919050565b5f6020601f8301049050919050565b5f82821b905092915050565b5f60088302614aea7fffffffffffffffffffffffffffffffffffffffffffffffffffffffffffffffff82614aaf565b614af48683614aaf565b95508019841693508086168417925050509392505050565b5f614b26614b21614b1c84613921565b614084565b613921565b9050919050565b5f819050919050565b614b3f83614b0c565b614b53614b4b82614b2d565b848454614abb565b825550505050565b5f90565b614b67614b5b565b614b72818484614b36565b505050565b5b81811015614b9557614b8a5f82614b5f565b600181019050614b78565b5050565b601f821115614bda57614bab81614a8e565b614bb484614aa0565b81016020851015614bc3578190505b614bd7614bcf85614aa0565b830182614b77565b50505b505050565b5f82821c905092915050565b5f614bfa5f1984600802614bdf565b1980831691505092915050565b5f614c128383614beb565b9150826002028217905092915050565b614c2b82613fac565b67ffffffffffffffff811115614c4457614c43613d24565b5b614c4e8254614359565b614c59828285614b99565b5f60209050601f831160018114614c8a575f8415614c78578287015190505b614c828582614c07565b865550614ce9565b601f198416614c9886614a8e565b5f5b82811015614cbf57848901518255600182019150602085019450602081019050614c9a565b86831015614cdc5784890151614cd8601f891682614beb565b8355505b6001600288020188555050505b505050505050565b5f608082019050614d045f830188613be1565b614d116020830187613be1565b614d1e60408301866139d0565b8181036060830152614d3181848661445d565b90509695505050505050565b7f4e6f6e626c6f636b696e674c7a4170703a206e6f2073746f726564206d6573735f8201527f6167650000000000000000000000000000000000000000000000000000000000602082015250565b5f614d976023836137fc565b9150614da282614d3d565b604082019050919050565b5f6020820190508181035f830152614dc481614d8b565b9050919050565b7f4e6f6e626c6f636b696e674c7a4170703a20696e76616c6964207061796c6f615f8201527f6400000000000000000000000000000000000000000000000000000000000000602082015250565b5f614e256021836137fc565b9150614e3082614dcb565b604082019050919050565b5f6020820190508181035f830152614e5281614e19565b9050919050565b614e628161365f565b82525050565b5f608082019050614e7b5f830188613be1565b8181036020830152614e8e81868861445d565b9050614e9d6040830185614e59565b614eaa6060830184613ebd565b9695505050505050565b7f4c7a4170703a20696e76616c6964206d696e47617300000000000000000000005f82015250565b5f614ee86015836137fc565b9150614ef382614eb4565b602082019050919050565b5f6020820190508181035f830152614f1581614edc565b9050919050565b5f606082019050614f2f5f830186613be1565b614f3c6020830185613be1565b614f4960408301846139d0565b949350505050565b5f82905092915050565b614f658383614f51565b67ffffffffffffffff811115614f7e57614f7d613d24565b5b614f888254614359565b614f93828285614b99565b5f601f831160018114614fc0575f8415614fae578287013590505b614fb88582614c07565b86555061501f565b601f198416614fce86614a8e565b5f5b82811015614ff557848901358255600182019150602085019450602081019050614fd0565b86831015615012578489013561500e601f891682614beb565b8355505b6001600288020188555050505b50505050505050565b5f60808201905061503b5f830187613be1565b6150486020830186613be1565b615055604083018561405c565b61506260608301846139d0565b95945050505050565b5f61507d61507884613d9c565b613d82565b90508281526020810184848401111561509957615098613d20565b5b6150a484828561380c565b509392505050565b5f82601f8301126150c0576150bf6135fe565b5b81516150d084826020860161506b565b91505092915050565b5f602082840312156150ee576150ed6135bf565b5b5f82015167ffffffffffffffff81111561510b5761510a6135c3565b5b615117848285016150ac565b91505092915050565b5f6080820190506151335f830187613be1565b81810360208301526151458186613fc6565b90506151546040830185614e59565b81810360608301526151668184613fc6565b905095945050505050565b5f6060820190506151845f830186613be1565b81810360208301526151968185613fc6565b90506151a560408301846139d0565b949350505050565b7f4e6f7420656e6f7567682067617320746f2073656e64000000000000000000005f82015250565b5f6151e16016836137fc565b91506151ec826151ad565b602082019050919050565b5f6020820190508181035f83015261520e816151d5565b9050919050565b5f6040820190508181035f83015261522d8185613fc6565b905061523c60208301846139d0565b9392505050565b7f4f4654436f72653a20756e6b6e6f776e207061636b65742074797065000000005f82015250565b5f615277601c836137fc565b915061528282615243565b602082019050919050565b5f6020820190508181035f8301526152a48161526b565b9050919050565b7f736c6963655f6f766572666c6f770000000000000000000000000000000000005f82015250565b5f6152df600e836137fc565b91506152ea826152ab565b602082019050919050565b5f6020820190508181035f83015261530c816152d3565b9050919050565b7f736c6963655f6f75744f66426f756e64730000000000000000000000000000005f82015250565b5f6153476011836137fc565b915061535282615313565b602082019050919050565b5f6020820190508181035f8301526153748161533b565b9050919050565b5f61538582613fac565b61538f8185614389565b935061539f81856020860161380c565b80840191505092915050565b5f6153b6828461537b565b915081905092915050565b5f60a0820190506153d45f830188613be1565b81810360208301526153e68187613fc6565b90506153f56040830186614e59565b81810360608301526154078185613fc6565b9050818103608083015261541b8184613fc6565b90509695505050505050565b7f4f4654436f72653a205f61646170746572506172616d73206d757374206265205f8201527f656d7074792e0000000000000000000000000000000000000000000000000000602082015250565b5f6154816026836137fc565b915061548c82615427565b604082019050919050565b5f6020820190508181035f8301526154ae81615475565b9050919050565b7f4c7a4170703a2064657374696e6174696f6e20636861696e206973206e6f74205f8201527f61207472757374656420736f7572636500000000000000000000000000000000602082015250565b5f61550f6030836137fc565b915061551a826154b5565b604082019050919050565b5f6020820190508181035f83015261553c81615503565b9050919050565b61554c81613c09565b82525050565b5f60c0820190506155655f830189613be1565b81810360208301526155778188613fc6565b9050818103604083015261558b8187613fc6565b905061559a6060830186615543565b6155a7608083018561405c565b81810360a08301526155b98184613fc6565b9050979650505050505050565b5f815190506155d4816135d4565b92915050565b5f805f606084860312156155f1576155f06135bf565b5b5f6155fe868287016155c6565b935050602084015167ffffffffffffffff81111561561f5761561e6135c3565b5b61562b868287016150ac565b925050604061563c86828701614528565b9150509250925092565b7f4c7a4170703a206d696e4761734c696d6974206e6f74207365740000000000005f82015250565b5f61567a601a836137fc565b915061568582615646565b602082019050919050565b5f6020820190508181035f8301526156a78161566e565b9050919050565b7f4c7a4170703a20676173206c696d697420697320746f6f206c6f7700000000005f82015250565b5f6156e2601b836137fc565b91506156ed826156ae565b602082019050919050565b5f6020820190508181035f83015261570f816156d6565b9050919050565b7f4c7a4170703a207061796c6f61642073697a6520697320746f6f206c617267655f82015250565b5f61574a6020836137fc565b915061575582615716565b602082019050919050565b5f6020820190508181035f8301526157778161573e565b9050919050565b7f746f416464726573735f6f75744f66426f756e647300000000000000000000005f82015250565b5f6157b26015836137fc565b91506157bd8261577e565b602082019050919050565b5f6020820190508181035f8301526157df816157a6565b9050919050565b7f4c7a4170703a20696e76616c69642061646170746572506172616d73000000005f82015250565b5f61581a601c836137fc565b9150615825826157e6565b602082019050919050565b5f6020820190508181035f8301526158478161580e565b905091905056fea2646970667358221220f22d731c84c1cbf862813405db784a82e4c0dd18194c67dc738866dd13757ebb64736f6c63430008170033",
			"opcodes": "PUSH1 0xA0 PUSH1 0x40 MSTORE PUSH6 0x246139CA800 PUSH1 0xC SSTORE CALLVALUE DUP1 ISZERO PUSH3 0x1A JUMPI PUSH0 DUP1 REVERT JUMPDEST POP PUSH1 0x40 MLOAD PUSH3 0x5EFA CODESIZE SUB DUP1 PUSH3 0x5EFA DUP4 CODECOPY DUP2 DUP2 ADD PUSH1 0x40 MSTORE DUP2 ADD SWAP1 PUSH3 0x40 SWAP2 SWAP1 PUSH3 0x2A6 JUMP JUMPDEST PUSH1 0x40 MLOAD DUP1 PUSH1 0x40 ADD PUSH1 0x40 MSTORE DUP1 PUSH1 0x14 DUP2 MSTORE PUSH1 0x20 ADD PUSH32 0x446170704761746520627920446170704C616273000000000000000000000000 DUP2 MSTORE POP PUSH1 0x40 MLOAD DUP1 PUSH1 0x40 ADD PUSH1 0x40 MSTORE DUP1 PUSH1 0x6 DUP2 MSTORE PUSH1 0x20 ADD PUSH32 0x444C474154450000000000000000000000000000000000000000000000000000 DUP2 MSTORE POP DUP3 DUP3 DUP3 DUP3 DUP1 DUP1 CALLER PUSH3 0xC4 DUP2 PUSH3 0x180 PUSH1 0x20 SHL PUSH1 0x20 SHR JUMP JUMPDEST POP DUP1 PUSH20 0xFFFFFFFFFFFFFFFFFFFFFFFFFFFFFFFFFFFFFFFF AND PUSH1 0x80 DUP2 PUSH20 0xFFFFFFFFFFFFFFFFFFFFFFFFFFFFFFFFFFFFFFFF AND DUP2 MSTORE POP POP POP POP POP DUP2 PUSH1 0xA SWAP1 DUP2 PUSH3 0x10D SWAP2 SWAP1 PUSH3 0x53A JUMP JUMPDEST POP DUP1 PUSH1 0xB SWAP1 DUP2 PUSH3 0x11F SWAP2 SWAP1 PUSH3 0x53A JUMP JUMPDEST POP POP POP POP POP POP PUSH20 0x3772F434D796A1B974E9B2CD37055A075F3450BE PUSH1 0xD PUSH0 PUSH2 0x100 EXP DUP2 SLOAD DUP2 PUSH20 0xFFFFFFFFFFFFFFFFFFFFFFFFFFFFFFFFFFFFFFFF MUL NOT AND SWAP1 DUP4 PUSH20 0xFFFFFFFFFFFFFFFFFFFFFFFFFFFFFFFFFFFFFFFF AND MUL OR SWAP1 SSTORE POP POP PUSH3 0x61E JUMP JUMPDEST PUSH0 DUP1 PUSH0 SWAP1 SLOAD SWAP1 PUSH2 0x100 EXP SWAP1 DIV PUSH20 0xFFFFFFFFFFFFFFFFFFFFFFFFFFFFFFFFFFFFFFFF AND SWAP1 POP DUP2 PUSH0 DUP1 PUSH2 0x100 EXP DUP2 SLOAD DUP2 PUSH20 0xFFFFFFFFFFFFFFFFFFFFFFFFFFFFFFFFFFFFFFFF MUL NOT AND SWAP1 DUP4 PUSH20 0xFFFFFFFFFFFFFFFFFFFFFFFFFFFFFFFFFFFFFFFF AND MUL OR SWAP1 SSTORE POP DUP2 PUSH20 0xFFFFFFFFFFFFFFFFFFFFFFFFFFFFFFFFFFFFFFFF AND DUP2 PUSH20 0xFFFFFFFFFFFFFFFFFFFFFFFFFFFFFFFFFFFFFFFF AND PUSH32 0x8BE0079C531659141344CD1FD0A4F28419497F9722A3DAAFE3B4186F6B6457E0 PUSH1 0x40 MLOAD PUSH1 0x40 MLOAD DUP1 SWAP2 SUB SWAP1 LOG3 POP POP JUMP JUMPDEST PUSH0 DUP1 REVERT JUMPDEST PUSH0 PUSH20 0xFFFFFFFFFFFFFFFFFFFFFFFFFFFFFFFFFFFFFFFF DUP3 AND SWAP1 POP SWAP2 SWAP1 POP JUMP JUMPDEST PUSH0 PUSH3 0x270 DUP3 PUSH3 0x245 JUMP JUMPDEST SWAP1 POP SWAP2 SWAP1 POP JUMP JUMPDEST PUSH3 0x282 DUP2 PUSH3 0x264 JUMP JUMPDEST DUP2 EQ PUSH3 0x28D JUMPI PUSH0 DUP1 REVERT JUMPDEST POP JUMP JUMPDEST PUSH0 DUP2 MLOAD SWAP1 POP PUSH3 0x2A0 DUP2 PUSH3 0x277 JUMP JUMPDEST SWAP3 SWAP2 POP POP JUMP JUMPDEST PUSH0 PUSH1 0x20 DUP3 DUP5 SUB SLT ISZERO PUSH3 0x2BE JUMPI PUSH3 0x2BD PUSH3 0x241 JUMP JUMPDEST JUMPDEST PUSH0 PUSH3 0x2CD DUP5 DUP3 DUP6 ADD PUSH3 0x290 JUMP JUMPDEST SWAP2 POP POP SWAP3 SWAP2 POP POP JUMP JUMPDEST PUSH0 DUP2 MLOAD SWAP1 POP SWAP2 SWAP1 POP JUMP JUMPDEST PUSH32 0x4E487B7100000000000000000000000000000000000000000000000000000000 PUSH0 MSTORE PUSH1 0x41 PUSH1 0x4 MSTORE PUSH1 0x24 PUSH0 REVERT JUMPDEST PUSH32 0x4E487B7100000000000000000000000000000000000000000000000000000000 PUSH0 MSTORE PUSH1 0x22 PUSH1 0x4 MSTORE PUSH1 0x24 PUSH0 REVERT JUMPDEST PUSH0 PUSH1 0x2 DUP3 DIV SWAP1 POP PUSH1 0x1 DUP3 AND DUP1 PUSH3 0x352 JUMPI PUSH1 0x7F DUP3 AND SWAP2 POP JUMPDEST PUSH1 0x20 DUP3 LT DUP2 SUB PUSH3 0x368 JUMPI PUSH3 0x367 PUSH3 0x30D JUMP JUMPDEST JUMPDEST POP SWAP2 SWAP1 POP JUMP JUMPDEST PUSH0 DUP2 SWAP1 POP DUP2 PUSH0 MSTORE PUSH1 0x20 PUSH0 KECCAK256 SWAP1 POP SWAP2 SWAP1 POP JUMP JUMPDEST PUSH0 PUSH1 0x20 PUSH1 0x1F DUP4 ADD DIV SWAP1 POP SWAP2 SWAP1 POP JUMP JUMPDEST PUSH0 DUP3 DUP3 SHL SWAP1 POP SWAP3 SWAP2 POP POP JUMP JUMPDEST PUSH0 PUSH1 0x8 DUP4 MUL PUSH3 0x3CC PUSH32 0xFFFFFFFFFFFFFFFFFFFFFFFFFFFFFFFFFFFFFFFFFFFFFFFFFFFFFFFFFFFFFFFF DUP3 PUSH3 0x38F JUMP JUMPDEST PUSH3 0x3D8 DUP7 DUP4 PUSH3 0x38F JUMP JUMPDEST SWAP6 POP DUP1 NOT DUP5 AND SWAP4 POP DUP1 DUP7 AND DUP5 OR SWAP3 POP POP POP SWAP4 SWAP3 POP POP POP JUMP JUMPDEST PUSH0 DUP2 SWAP1 POP SWAP2 SWAP1 POP JUMP JUMPDEST PUSH0 DUP2 SWAP1 POP SWAP2 SWAP1 POP JUMP JUMPDEST PUSH0 PUSH3 0x422 PUSH3 0x41C PUSH3 0x416 DUP5 PUSH3 0x3F0 JUMP JUMPDEST PUSH3 0x3F9 JUMP JUMPDEST PUSH3 0x3F0 JUMP JUMPDEST SWAP1 POP SWAP2 SWAP1 POP JUMP JUMPDEST PUSH0 DUP2 SWAP1 POP SWAP2 SWAP1 POP JUMP JUMPDEST PUSH3 0x43D DUP4 PUSH3 0x402 JUMP JUMPDEST PUSH3 0x455 PUSH3 0x44C DUP3 PUSH3 0x429 JUMP JUMPDEST DUP5 DUP5 SLOAD PUSH3 0x39B JUMP JUMPDEST DUP3 SSTORE POP POP POP POP JUMP JUMPDEST PUSH0 SWAP1 JUMP JUMPDEST PUSH3 0x46B PUSH3 0x45D JUMP JUMPDEST PUSH3 0x478 DUP2 DUP5 DUP5 PUSH3 0x432 JUMP JUMPDEST POP POP POP JUMP JUMPDEST JUMPDEST DUP2 DUP2 LT ISZERO PUSH3 0x49F JUMPI PUSH3 0x493 PUSH0 DUP3 PUSH3 0x461 JUMP JUMPDEST PUSH1 0x1 DUP2 ADD SWAP1 POP PUSH3 0x47E JUMP JUMPDEST POP POP JUMP JUMPDEST PUSH1 0x1F DUP3 GT ISZERO PUSH3 0x4EE JUMPI PUSH3 0x4B8 DUP2 PUSH3 0x36E JUMP JUMPDEST PUSH3 0x4C3 DUP5 PUSH3 0x380 JUMP JUMPDEST DUP2 ADD PUSH1 0x20 DUP6 LT ISZERO PUSH3 0x4D3 JUMPI DUP2 SWAP1 POP JUMPDEST PUSH3 0x4EB PUSH3 0x4E2 DUP6 PUSH3 0x380 JUMP JUMPDEST DUP4 ADD DUP3 PUSH3 0x47D JUMP JUMPDEST POP POP JUMPDEST POP POP POP JUMP JUMPDEST PUSH0 DUP3 DUP3 SHR SWAP1 POP SWAP3 SWAP2 POP POP JUMP JUMPDEST PUSH0 PUSH3 0x510 PUSH0 NOT DUP5 PUSH1 0x8 MUL PUSH3 0x4F3 JUMP JUMPDEST NOT DUP1 DUP4 AND SWAP2 POP POP SWAP3 SWAP2 POP POP JUMP JUMPDEST PUSH0 PUSH3 0x52A DUP4 DUP4 PUSH3 0x4FF JUMP JUMPDEST SWAP2 POP DUP3 PUSH1 0x2 MUL DUP3 OR SWAP1 POP SWAP3 SWAP2 POP POP JUMP JUMPDEST PUSH3 0x545 DUP3 PUSH3 0x2D6 JUMP JUMPDEST PUSH8 0xFFFFFFFFFFFFFFFF DUP2 GT ISZERO PUSH3 0x561 JUMPI PUSH3 0x560 PUSH3 0x2E0 JUMP JUMPDEST JUMPDEST PUSH3 0x56D DUP3 SLOAD PUSH3 0x33A JUMP JUMPDEST PUSH3 0x57A DUP3 DUP3 DUP6 PUSH3 0x4A3 JUMP JUMPDEST PUSH0 PUSH1 0x20 SWAP1 POP PUSH1 0x1F DUP4 GT PUSH1 0x1 DUP2 EQ PUSH3 0x5B0 JUMPI PUSH0 DUP5 ISZERO PUSH3 0x59B JUMPI DUP3 DUP8 ADD MLOAD SWAP1 POP JUMPDEST PUSH3 0x5A7 DUP6 DUP3 PUSH3 0x51D JUMP JUMPDEST DUP7 SSTORE POP PUSH3 0x616 JUMP JUMPDEST PUSH1 0x1F NOT DUP5 AND PUSH3 0x5C0 DUP7 PUSH3 0x36E JUMP JUMPDEST PUSH0 JUMPDEST DUP3 DUP2 LT ISZERO PUSH3 0x5E9 JUMPI DUP5 DUP10 ADD MLOAD DUP3 SSTORE PUSH1 0x1 DUP3 ADD SWAP2 POP PUSH1 0x20 DUP6 ADD SWAP5 POP PUSH1 0x20 DUP2 ADD SWAP1 POP PUSH3 0x5C2 JUMP JUMPDEST DUP7 DUP4 LT ISZERO PUSH3 0x609 JUMPI DUP5 DUP10 ADD MLOAD PUSH3 0x605 PUSH1 0x1F DUP10 AND DUP3 PUSH3 0x4FF JUMP JUMPDEST DUP4 SSTORE POP JUMPDEST PUSH1 0x1 PUSH1 0x2 DUP9 MUL ADD DUP9 SSTORE POP POP POP JUMPDEST POP POP POP POP POP POP JUMP JUMPDEST PUSH1 0x80 MLOAD PUSH2 0x5884 PUSH3 0x676 PUSH0 CODECOPY PUSH0 DUP2 DUP2 PUSH2 0xC00 ADD MSTORE DUP2 DUP2 PUSH2 0xFA7 ADD MSTORE DUP2 DUP2 PUSH2 0x1084 ADD MSTORE DUP2 DUP2 PUSH2 0x1175 ADD MSTORE DUP2 DUP2 PUSH2 0x14DC ADD MSTORE DUP2 DUP2 PUSH2 0x1767 ADD MSTORE DUP2 DUP2 PUSH2 0x1C77 ADD MSTORE DUP2 DUP2 PUSH2 0x1D2B ADD MSTORE DUP2 DUP2 PUSH2 0x22AD ADD MSTORE PUSH2 0x31DF ADD MSTORE PUSH2 0x5884 PUSH0 RETURN INVALID PUSH1 0x80 PUSH1 0x40 MSTORE PUSH1 0x4 CALLDATASIZE LT PUSH2 0x2E2 JUMPI PUSH0 CALLDATALOAD PUSH1 0xE0 SHR DUP1 PUSH4 0x715018A6 GT PUSH2 0x18F JUMPI DUP1 PUSH4 0xBAF3292D GT PUSH2 0xDB JUMPI DUP1 PUSH4 0xEAB45D9C GT PUSH2 0x94 JUMPI DUP1 PUSH4 0xEDDD0D9C GT PUSH2 0x6E JUMPI DUP1 PUSH4 0xEDDD0D9C EQ PUSH2 0xB48 JUMPI DUP1 PUSH4 0xF2FDE38B EQ PUSH2 0xB70 JUMPI DUP1 PUSH4 0xF5ECBDBC EQ PUSH2 0xB98 JUMPI DUP1 PUSH4 0xFC0C546A EQ PUSH2 0xBD4 JUMPI PUSH2 0x2E2 JUMP JUMPDEST DUP1 PUSH4 0xEAB45D9C EQ PUSH2 0xACE JUMPI DUP1 PUSH4 0xEB8D72B7 EQ PUSH2 0xAF6 JUMPI DUP1 PUSH4 0xED629C5C EQ PUSH2 0xB1E JUMPI PUSH2 0x2E2 JUMP JUMPDEST DUP1 PUSH4 0xBAF3292D EQ PUSH2 0x9D4 JUMPI DUP1 PUSH4 0xC4461834 EQ PUSH2 0x9FC JUMPI DUP1 PUSH4 0xCBED8B9C EQ PUSH2 0xA26 JUMPI DUP1 PUSH4 0xD1DEBA1F EQ PUSH2 0xA4E JUMPI DUP1 PUSH4 0xDD62ED3E EQ PUSH2 0xA6A JUMPI DUP1 PUSH4 0xDF2A5B3B EQ PUSH2 0xAA6 JUMPI PUSH2 0x2E2 JUMP JUMPDEST DUP1 PUSH4 0x95D89B41 GT PUSH2 0x148 JUMPI DUP1 PUSH4 0xA457C2D7 GT PUSH2 0x122 JUMPI DUP1 PUSH4 0xA457C2D7 EQ PUSH2 0x90A JUMPI DUP1 PUSH4 0xA6C3D165 EQ PUSH2 0x946 JUMPI DUP1 PUSH4 0xA9059CBB EQ PUSH2 0x96E JUMPI DUP1 PUSH4 0xB353AAA7 EQ PUSH2 0x9AA JUMPI PUSH2 0x2E2 JUMP JUMPDEST DUP1 PUSH4 0x95D89B41 EQ PUSH2 0x87A JUMPI DUP1 PUSH4 0x9C3E0D6A EQ PUSH2 0x8A4 JUMPI DUP1 PUSH4 0x9F38369A EQ PUSH2 0x8CE JUMPI PUSH2 0x2E2 JUMP JUMPDEST DUP1 PUSH4 0x715018A6 EQ PUSH2 0x76E JUMPI DUP1 PUSH4 0x7533D788 EQ PUSH2 0x784 JUMPI DUP1 PUSH4 0x8CFD8F5C EQ PUSH2 0x7C0 JUMPI DUP1 PUSH4 0x8DA5CB5B EQ PUSH2 0x7FC JUMPI DUP1 PUSH4 0x9358928B EQ PUSH2 0x826 JUMPI DUP1 PUSH4 0x950C8A74 EQ PUSH2 0x850 JUMPI PUSH2 0x2E2 JUMP JUMPDEST DUP1 PUSH4 0x39509351 GT PUSH2 0x24E JUMPI DUP1 PUSH4 0x44770515 GT PUSH2 0x207 JUMPI DUP1 PUSH4 0x5B8C41E6 GT PUSH2 0x1E1 JUMPI DUP1 PUSH4 0x5B8C41E6 EQ PUSH2 0x691 JUMPI DUP1 PUSH4 0x66AD5C8A EQ PUSH2 0x6CD JUMPI DUP1 PUSH4 0x6D413538 EQ PUSH2 0x6F5 JUMPI DUP1 PUSH4 0x70A08231 EQ PUSH2 0x732 JUMPI PUSH2 0x2E2 JUMP JUMPDEST DUP1 PUSH4 0x44770515 EQ PUSH2 0x621 JUMPI DUP1 PUSH4 0x4C42899A EQ PUSH2 0x64B JUMPI DUP1 PUSH4 0x51905636 EQ PUSH2 0x675 JUMPI PUSH2 0x2E2 JUMP JUMPDEST DUP1 PUSH4 0x39509351 EQ PUSH2 0x51F JUMPI DUP1 PUSH4 0x3CCFD60B EQ PUSH2 0x55B JUMPI DUP1 PUSH4 0x3D8B38F6 EQ PUSH2 0x565 JUMPI DUP1 PUSH4 0x3F1F4FA4 EQ PUSH2 0x5A1 JUMPI DUP1 PUSH4 0x40C10F19 EQ PUSH2 0x5DD JUMPI DUP1 PUSH4 0x42D65A8D EQ PUSH2 0x5F9 JUMPI PUSH2 0x2E2 JUMP JUMPDEST DUP1 PUSH4 0x10DDB137 GT PUSH2 0x2A0 JUMPI DUP1 PUSH4 0x10DDB137 EQ PUSH2 0x400 JUMPI DUP1 PUSH4 0x13966DB5 EQ PUSH2 0x428 JUMPI DUP1 PUSH4 0x18160DDD EQ PUSH2 0x452 JUMPI DUP1 PUSH4 0x23B872DD EQ PUSH2 0x47C JUMPI DUP1 PUSH4 0x2A205E3D EQ PUSH2 0x4B8 JUMPI DUP1 PUSH4 0x313CE567 EQ PUSH2 0x4F5 JUMPI PUSH2 0x2E2 JUMP JUMPDEST DUP1 PUSH3 0x1D3567 EQ PUSH2 0x2E6 JUMPI DUP1 PUSH4 0x1FFC9A7 EQ PUSH2 0x30E JUMPI DUP1 PUSH4 0x6FDDE03 EQ PUSH2 0x34A JUMPI DUP1 PUSH4 0x7E0DB17 EQ PUSH2 0x374 JUMPI DUP1 PUSH4 0x95EA7B3 EQ PUSH2 0x39C JUMPI DUP1 PUSH4 0xDF37483 EQ PUSH2 0x3D8 JUMPI JUMPDEST PUSH0 DUP1 REVERT JUMPDEST CALLVALUE DUP1 ISZERO PUSH2 0x2F1 JUMPI PUSH0 DUP1 REVERT JUMPDEST POP PUSH2 0x30C PUSH1 0x4 DUP1 CALLDATASIZE SUB DUP2 ADD SWAP1 PUSH2 0x307 SWAP2 SWAP1 PUSH2 0x369C JUMP JUMPDEST PUSH2 0xBFE JUMP JUMPDEST STOP JUMPDEST CALLVALUE DUP1 ISZERO PUSH2 0x319 JUMPI PUSH0 DUP1 REVERT JUMPDEST POP PUSH2 0x334 PUSH1 0x4 DUP1 CALLDATASIZE SUB DUP2 ADD SWAP1 PUSH2 0x32F SWAP2 SWAP1 PUSH2 0x3794 JUMP JUMPDEST PUSH2 0xE4C JUMP JUMPDEST PUSH1 0x40 MLOAD PUSH2 0x341 SWAP2 SWAP1 PUSH2 0x37D9 JUMP JUMPDEST PUSH1 0x40 MLOAD DUP1 SWAP2 SUB SWAP1 RETURN JUMPDEST CALLVALUE DUP1 ISZERO PUSH2 0x355 JUMPI PUSH0 DUP1 REVERT JUMPDEST POP PUSH2 0x35E PUSH2 0xF0D JUMP JUMPDEST PUSH1 0x40 MLOAD PUSH2 0x36B SWAP2 SWAP1 PUSH2 0x387C JUMP JUMPDEST PUSH1 0x40 MLOAD DUP1 SWAP2 SUB SWAP1 RETURN JUMPDEST CALLVALUE DUP1 ISZERO PUSH2 0x37F JUMPI PUSH0 DUP1 REVERT JUMPDEST POP PUSH2 0x39A PUSH1 0x4 DUP1 CALLDATASIZE SUB DUP2 ADD SWAP1 PUSH2 0x395 SWAP2 SWAP1 PUSH2 0x389C JUMP JUMPDEST PUSH2 0xF9D JUMP JUMPDEST STOP JUMPDEST CALLVALUE DUP1 ISZERO PUSH2 0x3A7 JUMPI PUSH0 DUP1 REVERT JUMPDEST POP PUSH2 0x3C2 PUSH1 0x4 DUP1 CALLDATASIZE SUB DUP2 ADD SWAP1 PUSH2 0x3BD SWAP2 SWAP1 PUSH2 0x3954 JUMP JUMPDEST PUSH2 0x102E JUMP JUMPDEST PUSH1 0x40 MLOAD PUSH2 0x3CF SWAP2 SWAP1 PUSH2 0x37D9 JUMP JUMPDEST PUSH1 0x40 MLOAD DUP1 SWAP2 SUB SWAP1 RETURN JUMPDEST CALLVALUE DUP1 ISZERO PUSH2 0x3E3 JUMPI PUSH0 DUP1 REVERT JUMPDEST POP PUSH2 0x3FE PUSH1 0x4 DUP1 CALLDATASIZE SUB DUP2 ADD SWAP1 PUSH2 0x3F9 SWAP2 SWAP1 PUSH2 0x3992 JUMP JUMPDEST PUSH2 0x1050 JUMP JUMPDEST STOP JUMPDEST CALLVALUE DUP1 ISZERO PUSH2 0x40B JUMPI PUSH0 DUP1 REVERT JUMPDEST POP PUSH2 0x426 PUSH1 0x4 DUP1 CALLDATASIZE SUB DUP2 ADD SWAP1 PUSH2 0x421 SWAP2 SWAP1 PUSH2 0x389C JUMP JUMPDEST PUSH2 0x107A JUMP JUMPDEST STOP JUMPDEST CALLVALUE DUP1 ISZERO PUSH2 0x433 JUMPI PUSH0 DUP1 REVERT JUMPDEST POP PUSH2 0x43C PUSH2 0x110B JUMP JUMPDEST PUSH1 0x40 MLOAD PUSH2 0x449 SWAP2 SWAP1 PUSH2 0x39DF JUMP JUMPDEST PUSH1 0x40 MLOAD DUP1 SWAP2 SUB SWAP1 RETURN JUMPDEST CALLVALUE DUP1 ISZERO PUSH2 0x45D JUMPI PUSH0 DUP1 REVERT JUMPDEST POP PUSH2 0x466 PUSH2 0x1111 JUMP JUMPDEST PUSH1 0x40 MLOAD PUSH2 0x473 SWAP2 SWAP1 PUSH2 0x39DF JUMP JUMPDEST PUSH1 0x40 MLOAD DUP1 SWAP2 SUB SWAP1 RETURN JUMPDEST CALLVALUE DUP1 ISZERO PUSH2 0x487 JUMPI PUSH0 DUP1 REVERT JUMPDEST POP PUSH2 0x4A2 PUSH1 0x4 DUP1 CALLDATASIZE SUB DUP2 ADD SWAP1 PUSH2 0x49D SWAP2 SWAP1 PUSH2 0x39F8 JUMP JUMPDEST PUSH2 0x111A JUMP JUMPDEST PUSH1 0x40 MLOAD PUSH2 0x4AF SWAP2 SWAP1 PUSH2 0x37D9 JUMP JUMPDEST PUSH1 0x40 MLOAD DUP1 SWAP2 SUB SWAP1 RETURN JUMPDEST CALLVALUE DUP1 ISZERO PUSH2 0x4C3 JUMPI PUSH0 DUP1 REVERT JUMPDEST POP PUSH2 0x4DE PUSH1 0x4 DUP1 CALLDATASIZE SUB DUP2 ADD SWAP1 PUSH2 0x4D9 SWAP2 SWAP1 PUSH2 0x3A72 JUMP JUMPDEST PUSH2 0x1148 JUMP JUMPDEST PUSH1 0x40 MLOAD PUSH2 0x4EC SWAP3 SWAP2 SWAP1 PUSH2 0x3B29 JUMP JUMPDEST PUSH1 0x40 MLOAD DUP1 SWAP2 SUB SWAP1 RETURN JUMPDEST CALLVALUE DUP1 ISZERO PUSH2 0x500 JUMPI PUSH0 DUP1 REVERT JUMPDEST POP PUSH2 0x509 PUSH2 0x1225 JUMP JUMPDEST PUSH1 0x40 MLOAD PUSH2 0x516 SWAP2 SWAP1 PUSH2 0x3B6B JUMP JUMPDEST PUSH1 0x40 MLOAD DUP1 SWAP2 SUB SWAP1 RETURN JUMPDEST CALLVALUE DUP1 ISZERO PUSH2 0x52A JUMPI PUSH0 DUP1 REVERT JUMPDEST POP PUSH2 0x545 PUSH1 0x4 DUP1 CALLDATASIZE SUB DUP2 ADD SWAP1 PUSH2 0x540 SWAP2 SWAP1 PUSH2 0x3954 JUMP JUMPDEST PUSH2 0x122D JUMP JUMPDEST PUSH1 0x40 MLOAD PUSH2 0x552 SWAP2 SWAP1 PUSH2 0x37D9 JUMP JUMPDEST PUSH1 0x40 MLOAD DUP1 SWAP2 SUB SWAP1 RETURN JUMPDEST PUSH2 0x563 PUSH2 0x1263 JUMP JUMPDEST STOP JUMPDEST CALLVALUE DUP1 ISZERO PUSH2 0x570 JUMPI PUSH0 DUP1 REVERT JUMPDEST POP PUSH2 0x58B PUSH1 0x4 DUP1 CALLDATASIZE SUB DUP2 ADD SWAP1 PUSH2 0x586 SWAP2 SWAP1 PUSH2 0x3B84 JUMP JUMPDEST PUSH2 0x12DF JUMP JUMPDEST PUSH1 0x40 MLOAD PUSH2 0x598 SWAP2 SWAP1 PUSH2 0x37D9 JUMP JUMPDEST PUSH1 0x40 MLOAD DUP1 SWAP2 SUB SWAP1 RETURN JUMPDEST CALLVALUE DUP1 ISZERO PUSH2 0x5AC JUMPI PUSH0 DUP1 REVERT JUMPDEST POP PUSH2 0x5C7 PUSH1 0x4 DUP1 CALLDATASIZE SUB DUP2 ADD SWAP1 PUSH2 0x5C2 SWAP2 SWAP1 PUSH2 0x389C JUMP JUMPDEST PUSH2 0x13AE JUMP JUMPDEST PUSH1 0x40 MLOAD PUSH2 0x5D4 SWAP2 SWAP1 PUSH2 0x39DF JUMP JUMPDEST PUSH1 0x40 MLOAD DUP1 SWAP2 SUB SWAP1 RETURN JUMPDEST PUSH2 0x5F7 PUSH1 0x4 DUP1 CALLDATASIZE SUB DUP2 ADD SWAP1 PUSH2 0x5F2 SWAP2 SWAP1 PUSH2 0x3954 JUMP JUMPDEST PUSH2 0x13C3 JUMP JUMPDEST STOP JUMPDEST CALLVALUE DUP1 ISZERO PUSH2 0x604 JUMPI PUSH0 DUP1 REVERT JUMPDEST POP PUSH2 0x61F PUSH1 0x4 DUP1 CALLDATASIZE SUB DUP2 ADD SWAP1 PUSH2 0x61A SWAP2 SWAP1 PUSH2 0x3B84 JUMP JUMPDEST PUSH2 0x14D2 JUMP JUMPDEST STOP JUMPDEST CALLVALUE DUP1 ISZERO PUSH2 0x62C JUMPI PUSH0 DUP1 REVERT JUMPDEST POP PUSH2 0x635 PUSH2 0x1569 JUMP JUMPDEST PUSH1 0x40 MLOAD PUSH2 0x642 SWAP2 SWAP1 PUSH2 0x39DF JUMP JUMPDEST PUSH1 0x40 MLOAD DUP1 SWAP2 SUB SWAP1 RETURN JUMPDEST CALLVALUE DUP1 ISZERO PUSH2 0x656 JUMPI PUSH0 DUP1 REVERT JUMPDEST POP PUSH2 0x65F PUSH2 0x156D JUMP JUMPDEST PUSH1 0x40 MLOAD PUSH2 0x66C SWAP2 SWAP1 PUSH2 0x3BF0 JUMP JUMPDEST PUSH1 0x40 MLOAD DUP1 SWAP2 SUB SWAP1 RETURN JUMPDEST PUSH2 0x68F PUSH1 0x4 DUP1 CALLDATASIZE SUB DUP2 ADD SWAP1 PUSH2 0x68A SWAP2 SWAP1 PUSH2 0x3C44 JUMP JUMPDEST PUSH2 0x1571 JUMP JUMPDEST STOP JUMPDEST CALLVALUE DUP1 ISZERO PUSH2 0x69C JUMPI PUSH0 DUP1 REVERT JUMPDEST POP PUSH2 0x6B7 PUSH1 0x4 DUP1 CALLDATASIZE SUB DUP2 ADD SWAP1 PUSH2 0x6B2 SWAP2 SWAP1 PUSH2 0x3E48 JUMP JUMPDEST PUSH2 0x1611 JUMP JUMPDEST PUSH1 0x40 MLOAD PUSH2 0x6C4 SWAP2 SWAP1 PUSH2 0x3ECC JUMP JUMPDEST PUSH1 0x40 MLOAD DUP1 SWAP2 SUB SWAP1 RETURN JUMPDEST CALLVALUE DUP1 ISZERO PUSH2 0x6D8 JUMPI PUSH0 DUP1 REVERT JUMPDEST POP PUSH2 0x6F3 PUSH1 0x4 DUP1 CALLDATASIZE SUB DUP2 ADD SWAP1 PUSH2 0x6EE SWAP2 SWAP1 PUSH2 0x369C JUMP JUMPDEST PUSH2 0x1654 JUMP JUMPDEST STOP JUMPDEST CALLVALUE DUP1 ISZERO PUSH2 0x700 JUMPI PUSH0 DUP1 REVERT JUMPDEST POP PUSH2 0x71B PUSH1 0x4 DUP1 CALLDATASIZE SUB DUP2 ADD SWAP1 PUSH2 0x716 SWAP2 SWAP1 PUSH2 0x3EE5 JUMP JUMPDEST PUSH2 0x1763 JUMP JUMPDEST PUSH1 0x40 MLOAD PUSH2 0x729 SWAP3 SWAP2 SWAP1 PUSH2 0x3B29 JUMP JUMPDEST PUSH1 0x40 MLOAD DUP1 SWAP2 SUB SWAP1 RETURN JUMPDEST CALLVALUE DUP1 ISZERO PUSH2 0x73D JUMPI PUSH0 DUP1 REVERT JUMPDEST POP PUSH2 0x758 PUSH1 0x4 DUP1 CALLDATASIZE SUB DUP2 ADD SWAP1 PUSH2 0x753 SWAP2 SWAP1 PUSH2 0x3F81 JUMP JUMPDEST PUSH2 0x1811 JUMP JUMPDEST PUSH1 0x40 MLOAD PUSH2 0x765 SWAP2 SWAP1 PUSH2 0x39DF JUMP JUMPDEST PUSH1 0x40 MLOAD DUP1 SWAP2 SUB SWAP1 RETURN JUMPDEST CALLVALUE DUP1 ISZERO PUSH2 0x779 JUMPI PUSH0 DUP1 REVERT JUMPDEST POP PUSH2 0x782 PUSH2 0x1857 JUMP JUMPDEST STOP JUMPDEST CALLVALUE DUP1 ISZERO PUSH2 0x78F JUMPI PUSH0 DUP1 REVERT JUMPDEST POP PUSH2 0x7AA PUSH1 0x4 DUP1 CALLDATASIZE SUB DUP2 ADD SWAP1 PUSH2 0x7A5 SWAP2 SWAP1 PUSH2 0x389C JUMP JUMPDEST PUSH2 0x186A JUMP JUMPDEST PUSH1 0x40 MLOAD PUSH2 0x7B7 SWAP2 SWAP1 PUSH2 0x3FFE JUMP JUMPDEST PUSH1 0x40 MLOAD DUP1 SWAP2 SUB SWAP1 RETURN JUMPDEST CALLVALUE DUP1 ISZERO PUSH2 0x7CB JUMPI PUSH0 DUP1 REVERT JUMPDEST POP PUSH2 0x7E6 PUSH1 0x4 DUP1 CALLDATASIZE SUB DUP2 ADD SWAP1 PUSH2 0x7E1 SWAP2 SWAP1 PUSH2 0x401E JUMP JUMPDEST PUSH2 0x1905 JUMP JUMPDEST PUSH1 0x40 MLOAD PUSH2 0x7F3 SWAP2 SWAP1 PUSH2 0x39DF JUMP JUMPDEST PUSH1 0x40 MLOAD DUP1 SWAP2 SUB SWAP1 RETURN JUMPDEST CALLVALUE DUP1 ISZERO PUSH2 0x807 JUMPI PUSH0 DUP1 REVERT JUMPDEST POP PUSH2 0x810 PUSH2 0x1925 JUMP JUMPDEST PUSH1 0x40 MLOAD PUSH2 0x81D SWAP2 SWAP1 PUSH2 0x406B JUMP JUMPDEST PUSH1 0x40 MLOAD DUP1 SWAP2 SUB SWAP1 RETURN JUMPDEST CALLVALUE DUP1 ISZERO PUSH2 0x831 JUMPI PUSH0 DUP1 REVERT JUMPDEST POP PUSH2 0x83A PUSH2 0x194C JUMP JUMPDEST PUSH1 0x40 MLOAD PUSH2 0x847 SWAP2 SWAP1 PUSH2 0x39DF JUMP JUMPDEST PUSH1 0x40 MLOAD DUP1 SWAP2 SUB SWAP1 RETURN JUMPDEST CALLVALUE DUP1 ISZERO PUSH2 0x85B JUMPI PUSH0 DUP1 REVERT JUMPDEST POP PUSH2 0x864 PUSH2 0x195A JUMP JUMPDEST PUSH1 0x40 MLOAD PUSH2 0x871 SWAP2 SWAP1 PUSH2 0x406B JUMP JUMPDEST PUSH1 0x40 MLOAD DUP1 SWAP2 SUB SWAP1 RETURN JUMPDEST CALLVALUE DUP1 ISZERO PUSH2 0x885 JUMPI PUSH0 DUP1 REVERT JUMPDEST POP PUSH2 0x88E PUSH2 0x197F JUMP JUMPDEST PUSH1 0x40 MLOAD PUSH2 0x89B SWAP2 SWAP1 PUSH2 0x387C JUMP JUMPDEST PUSH1 0x40 MLOAD DUP1 SWAP2 SUB SWAP1 RETURN JUMPDEST CALLVALUE DUP1 ISZERO PUSH2 0x8AF JUMPI PUSH0 DUP1 REVERT JUMPDEST POP PUSH2 0x8B8 PUSH2 0x1A0F JUMP JUMPDEST PUSH1 0x40 MLOAD PUSH2 0x8C5 SWAP2 SWAP1 PUSH2 0x406B JUMP JUMPDEST PUSH1 0x40 MLOAD DUP1 SWAP2 SUB SWAP1 RETURN JUMPDEST CALLVALUE DUP1 ISZERO PUSH2 0x8D9 JUMPI PUSH0 DUP1 REVERT JUMPDEST POP PUSH2 0x8F4 PUSH1 0x4 DUP1 CALLDATASIZE SUB DUP2 ADD SWAP1 PUSH2 0x8EF SWAP2 SWAP1 PUSH2 0x389C JUMP JUMPDEST PUSH2 0x1A34 JUMP JUMPDEST PUSH1 0x40 MLOAD PUSH2 0x901 SWAP2 SWAP1 PUSH2 0x3FFE JUMP JUMPDEST PUSH1 0x40 MLOAD DUP1 SWAP2 SUB SWAP1 RETURN JUMPDEST CALLVALUE DUP1 ISZERO PUSH2 0x915 JUMPI PUSH0 DUP1 REVERT JUMPDEST POP PUSH2 0x930 PUSH1 0x4 DUP1 CALLDATASIZE SUB DUP2 ADD SWAP1 PUSH2 0x92B SWAP2 SWAP1 PUSH2 0x3954 JUMP JUMPDEST PUSH2 0x1B46 JUMP JUMPDEST PUSH1 0x40 MLOAD PUSH2 0x93D SWAP2 SWAP1 PUSH2 0x37D9 JUMP JUMPDEST PUSH1 0x40 MLOAD DUP1 SWAP2 SUB SWAP1 RETURN JUMPDEST CALLVALUE DUP1 ISZERO PUSH2 0x951 JUMPI PUSH0 DUP1 REVERT JUMPDEST POP PUSH2 0x96C PUSH1 0x4 DUP1 CALLDATASIZE SUB DUP2 ADD SWAP1 PUSH2 0x967 SWAP2 SWAP1 PUSH2 0x3B84 JUMP JUMPDEST PUSH2 0x1BC1 JUMP JUMPDEST STOP JUMPDEST CALLVALUE DUP1 ISZERO PUSH2 0x979 JUMPI PUSH0 DUP1 REVERT JUMPDEST POP PUSH2 0x994 PUSH1 0x4 DUP1 CALLDATASIZE SUB DUP2 ADD SWAP1 PUSH2 0x98F SWAP2 SWAP1 PUSH2 0x3954 JUMP JUMPDEST PUSH2 0x1C53 JUMP JUMPDEST PUSH1 0x40 MLOAD PUSH2 0x9A1 SWAP2 SWAP1 PUSH2 0x37D9 JUMP JUMPDEST PUSH1 0x40 MLOAD DUP1 SWAP2 SUB SWAP1 RETURN JUMPDEST CALLVALUE DUP1 ISZERO PUSH2 0x9B5 JUMPI PUSH0 DUP1 REVERT JUMPDEST POP PUSH2 0x9BE PUSH2 0x1C75 JUMP JUMPDEST PUSH1 0x40 MLOAD PUSH2 0x9CB SWAP2 SWAP1 PUSH2 0x40DF JUMP JUMPDEST PUSH1 0x40 MLOAD DUP1 SWAP2 SUB SWAP1 RETURN JUMPDEST CALLVALUE DUP1 ISZERO PUSH2 0x9DF JUMPI PUSH0 DUP1 REVERT JUMPDEST POP PUSH2 0x9FA PUSH1 0x4 DUP1 CALLDATASIZE SUB DUP2 ADD SWAP1 PUSH2 0x9F5 SWAP2 SWAP1 PUSH2 0x3F81 JUMP JUMPDEST PUSH2 0x1C99 JUMP JUMPDEST STOP JUMPDEST CALLVALUE DUP1 ISZERO PUSH2 0xA07 JUMPI PUSH0 DUP1 REVERT JUMPDEST POP PUSH2 0xA10 PUSH2 0x1D1B JUMP JUMPDEST PUSH1 0x40 MLOAD PUSH2 0xA1D SWAP2 SWAP1 PUSH2 0x39DF JUMP JUMPDEST PUSH1 0x40 MLOAD DUP1 SWAP2 SUB SWAP1 RETURN JUMPDEST CALLVALUE DUP1 ISZERO PUSH2 0xA31 JUMPI PUSH0 DUP1 REVERT JUMPDEST POP PUSH2 0xA4C PUSH1 0x4 DUP1 CALLDATASIZE SUB DUP2 ADD SWAP1 PUSH2 0xA47 SWAP2 SWAP1 PUSH2 0x40F8 JUMP JUMPDEST PUSH2 0x1D21 JUMP JUMPDEST STOP JUMPDEST PUSH2 0xA68 PUSH1 0x4 DUP1 CALLDATASIZE SUB DUP2 ADD SWAP1 PUSH2 0xA63 SWAP2 SWAP1 PUSH2 0x369C JUMP JUMPDEST PUSH2 0x1DBE JUMP JUMPDEST STOP JUMPDEST CALLVALUE DUP1 ISZERO PUSH2 0xA75 JUMPI PUSH0 DUP1 REVERT JUMPDEST POP PUSH2 0xA90 PUSH1 0x4 DUP1 CALLDATASIZE SUB DUP2 ADD SWAP1 PUSH2 0xA8B SWAP2 SWAP1 PUSH2 0x417C JUMP JUMPDEST PUSH2 0x1FF4 JUMP JUMPDEST PUSH1 0x40 MLOAD PUSH2 0xA9D SWAP2 SWAP1 PUSH2 0x39DF JUMP JUMPDEST PUSH1 0x40 MLOAD DUP1 SWAP2 SUB SWAP1 RETURN JUMPDEST CALLVALUE DUP1 ISZERO PUSH2 0xAB1 JUMPI PUSH0 DUP1 REVERT JUMPDEST POP PUSH2 0xACC PUSH1 0x4 DUP1 CALLDATASIZE SUB DUP2 ADD SWAP1 PUSH2 0xAC7 SWAP2 SWAP1 PUSH2 0x41BA JUMP JUMPDEST PUSH2 0x2076 JUMP JUMPDEST STOP JUMPDEST CALLVALUE DUP1 ISZERO PUSH2 0xAD9 JUMPI PUSH0 DUP1 REVERT JUMPDEST POP PUSH2 0xAF4 PUSH1 0x4 DUP1 CALLDATASIZE SUB DUP2 ADD SWAP1 PUSH2 0xAEF SWAP2 SWAP1 PUSH2 0x420A JUMP JUMPDEST PUSH2 0x2135 JUMP JUMPDEST STOP JUMPDEST CALLVALUE DUP1 ISZERO PUSH2 0xB01 JUMPI PUSH0 DUP1 REVERT JUMPDEST POP PUSH2 0xB1C PUSH1 0x4 DUP1 CALLDATASIZE SUB DUP2 ADD SWAP1 PUSH2 0xB17 SWAP2 SWAP1 PUSH2 0x3B84 JUMP JUMPDEST PUSH2 0x2190 JUMP JUMPDEST STOP JUMPDEST CALLVALUE DUP1 ISZERO PUSH2 0xB29 JUMPI PUSH0 DUP1 REVERT JUMPDEST POP PUSH2 0xB32 PUSH2 0x2201 JUMP JUMPDEST PUSH1 0x40 MLOAD PUSH2 0xB3F SWAP2 SWAP1 PUSH2 0x37D9 JUMP JUMPDEST PUSH1 0x40 MLOAD DUP1 SWAP2 SUB SWAP1 RETURN JUMPDEST CALLVALUE DUP1 ISZERO PUSH2 0xB53 JUMPI PUSH0 DUP1 REVERT JUMPDEST POP PUSH2 0xB6E PUSH1 0x4 DUP1 CALLDATASIZE SUB DUP2 ADD SWAP1 PUSH2 0xB69 SWAP2 SWAP1 PUSH2 0x4235 JUMP JUMPDEST PUSH2 0x2213 JUMP JUMPDEST STOP JUMPDEST CALLVALUE DUP1 ISZERO PUSH2 0xB7B JUMPI PUSH0 DUP1 REVERT JUMPDEST POP PUSH2 0xB96 PUSH1 0x4 DUP1 CALLDATASIZE SUB DUP2 ADD SWAP1 PUSH2 0xB91 SWAP2 SWAP1 PUSH2 0x3F81 JUMP JUMPDEST PUSH2 0x2225 JUMP JUMPDEST STOP JUMPDEST CALLVALUE DUP1 ISZERO PUSH2 0xBA3 JUMPI PUSH0 DUP1 REVERT JUMPDEST POP PUSH2 0xBBE PUSH1 0x4 DUP1 CALLDATASIZE SUB DUP2 ADD SWAP1 PUSH2 0xBB9 SWAP2 SWAP1 PUSH2 0x4260 JUMP JUMPDEST PUSH2 0x22A9 JUMP JUMPDEST PUSH1 0x40 MLOAD PUSH2 0xBCB SWAP2 SWAP1 PUSH2 0x3FFE JUMP JUMPDEST PUSH1 0x40 MLOAD DUP1 SWAP2 SUB SWAP1 RETURN JUMPDEST CALLVALUE DUP1 ISZERO PUSH2 0xBDF JUMPI PUSH0 DUP1 REVERT JUMPDEST POP PUSH2 0xBE8 PUSH2 0x2356 JUMP JUMPDEST PUSH1 0x40 MLOAD PUSH2 0xBF5 SWAP2 SWAP1 PUSH2 0x406B JUMP JUMPDEST PUSH1 0x40 MLOAD DUP1 SWAP2 SUB SWAP1 RETURN JUMPDEST PUSH32 0x0 PUSH20 0xFFFFFFFFFFFFFFFFFFFFFFFFFFFFFFFFFFFFFFFF AND PUSH2 0xC3D PUSH2 0x235D JUMP JUMPDEST PUSH20 0xFFFFFFFFFFFFFFFFFFFFFFFFFFFFFFFFFFFFFFFF AND EQ PUSH2 0xC93 JUMPI PUSH1 0x40 MLOAD PUSH32 0x8C379A000000000000000000000000000000000000000000000000000000000 DUP2 MSTORE PUSH1 0x4 ADD PUSH2 0xC8A SWAP1 PUSH2 0x430E JUMP JUMPDEST PUSH1 0x40 MLOAD DUP1 SWAP2 SUB SWAP1 REVERT JUMPDEST PUSH0 PUSH1 0x1 PUSH0 DUP9 PUSH2 0xFFFF AND PUSH2 0xFFFF AND DUP2 MSTORE PUSH1 0x20 ADD SWAP1 DUP2 MSTORE PUSH1 0x20 ADD PUSH0 KECCAK256 DUP1 SLOAD PUSH2 0xCB8 SWAP1 PUSH2 0x4359 JUMP JUMPDEST DUP1 PUSH1 0x1F ADD PUSH1 0x20 DUP1 SWAP2 DIV MUL PUSH1 0x20 ADD PUSH1 0x40 MLOAD SWAP1 DUP2 ADD PUSH1 0x40 MSTORE DUP1 SWAP3 SWAP2 SWAP1 DUP2 DUP2 MSTORE PUSH1 0x20 ADD DUP3 DUP1 SLOAD PUSH2 0xCE4 SWAP1 PUSH2 0x4359 JUMP JUMPDEST DUP1 ISZERO PUSH2 0xD2F JUMPI DUP1 PUSH1 0x1F LT PUSH2 0xD06 JUMPI PUSH2 0x100 DUP1 DUP4 SLOAD DIV MUL DUP4 MSTORE SWAP2 PUSH1 0x20 ADD SWAP2 PUSH2 0xD2F JUMP JUMPDEST DUP3 ADD SWAP2 SWAP1 PUSH0 MSTORE PUSH1 0x20 PUSH0 KECCAK256 SWAP1 JUMPDEST DUP2 SLOAD DUP2 MSTORE SWAP1 PUSH1 0x1 ADD SWAP1 PUSH1 0x20 ADD DUP1 DUP4 GT PUSH2 0xD12 JUMPI DUP3 SWAP1 SUB PUSH1 0x1F AND DUP3 ADD SWAP2 JUMPDEST POP POP POP POP POP SWAP1 POP DUP1 MLOAD DUP7 DUP7 SWAP1 POP EQ DUP1 ISZERO PUSH2 0xD49 JUMPI POP PUSH0 DUP2 MLOAD GT JUMPDEST DUP1 ISZERO PUSH2 0xD72 JUMPI POP DUP1 DUP1 MLOAD SWAP1 PUSH1 0x20 ADD KECCAK256 DUP7 DUP7 PUSH1 0x40 MLOAD PUSH2 0xD68 SWAP3 SWAP2 SWAP1 PUSH2 0x43B7 JUMP JUMPDEST PUSH1 0x40 MLOAD DUP1 SWAP2 SUB SWAP1 KECCAK256 EQ JUMPDEST PUSH2 0xDB1 JUMPI PUSH1 0x40 MLOAD PUSH32 0x8C379A000000000000000000000000000000000000000000000000000000000 DUP2 MSTORE PUSH1 0x4 ADD PUSH2 0xDA8 SWAP1 PUSH2 0x443F JUMP JUMPDEST PUSH1 0x40 MLOAD DUP1 SWAP2 SUB SWAP1 REVERT JUMPDEST PUSH2 0xE43 DUP8 DUP8 DUP8 DUP1 DUP1 PUSH1 0x1F ADD PUSH1 0x20 DUP1 SWAP2 DIV MUL PUSH1 0x20 ADD PUSH1 0x40 MLOAD SWAP1 DUP2 ADD PUSH1 0x40 MSTORE DUP1 SWAP4 SWAP3 SWAP2 SWAP1 DUP2 DUP2 MSTORE PUSH1 0x20 ADD DUP4 DUP4 DUP1 DUP3 DUP5 CALLDATACOPY PUSH0 DUP2 DUP5 ADD MSTORE PUSH1 0x1F NOT PUSH1 0x1F DUP3 ADD AND SWAP1 POP DUP1 DUP4 ADD SWAP3 POP POP POP POP POP POP POP DUP7 DUP7 DUP7 DUP1 DUP1 PUSH1 0x1F ADD PUSH1 0x20 DUP1 SWAP2 DIV MUL PUSH1 0x20 ADD PUSH1 0x40 MLOAD SWAP1 DUP2 ADD PUSH1 0x40 MSTORE DUP1 SWAP4 SWAP3 SWAP2 SWAP1 DUP2 DUP2 MSTORE PUSH1 0x20 ADD DUP4 DUP4 DUP1 DUP3 DUP5 CALLDATACOPY PUSH0 DUP2 DUP5 ADD MSTORE PUSH1 0x1F NOT PUSH1 0x1F DUP3 ADD AND SWAP1 POP DUP1 DUP4 ADD SWAP3 POP POP POP POP POP POP POP PUSH2 0x2364 JUMP JUMPDEST POP POP POP POP POP POP POP JUMP JUMPDEST PUSH0 DUP1 PUSH28 0xFFFFFFFFFFFFFFFFFFFFFFFFFFFFFFFFFFFFFFFFFFFFFFFFFFFFFFFF NOT AND DUP3 PUSH28 0xFFFFFFFFFFFFFFFFFFFFFFFFFFFFFFFFFFFFFFFFFFFFFFFFFFFFFFFF NOT AND EQ DUP1 PUSH2 0xEF6 JUMPI POP PUSH32 0x36372B0700000000000000000000000000000000000000000000000000000000 PUSH28 0xFFFFFFFFFFFFFFFFFFFFFFFFFFFFFFFFFFFFFFFFFFFFFFFFFFFFFFFF NOT AND DUP3 PUSH28 0xFFFFFFFFFFFFFFFFFFFFFFFFFFFFFFFFFFFFFFFFFFFFFFFFFFFFFFFF NOT AND EQ JUMPDEST DUP1 PUSH2 0xF06 JUMPI POP PUSH2 0xF05 DUP3 PUSH2 0x242E JUMP JUMPDEST JUMPDEST SWAP1 POP SWAP2 SWAP1 POP JUMP JUMPDEST PUSH1 0x60 PUSH1 0xA DUP1 SLOAD PUSH2 0xF1C SWAP1 PUSH2 0x4359 JUMP JUMPDEST DUP1 PUSH1 0x1F ADD PUSH1 0x20 DUP1 SWAP2 DIV MUL PUSH1 0x20 ADD PUSH1 0x40 MLOAD SWAP1 DUP2 ADD PUSH1 0x40 MSTORE DUP1 SWAP3 SWAP2 SWAP1 DUP2 DUP2 MSTORE PUSH1 0x20 ADD DUP3 DUP1 SLOAD PUSH2 0xF48 SWAP1 PUSH2 0x4359 JUMP JUMPDEST DUP1 ISZERO PUSH2 0xF93 JUMPI DUP1 PUSH1 0x1F LT PUSH2 0xF6A JUMPI PUSH2 0x100 DUP1 DUP4 SLOAD DIV MUL DUP4 MSTORE SWAP2 PUSH1 0x20 ADD SWAP2 PUSH2 0xF93 JUMP JUMPDEST DUP3 ADD SWAP2 SWAP1 PUSH0 MSTORE PUSH1 0x20 PUSH0 KECCAK256 SWAP1 JUMPDEST DUP2 SLOAD DUP2 MSTORE SWAP1 PUSH1 0x1 ADD SWAP1 PUSH1 0x20 ADD DUP1 DUP4 GT PUSH2 0xF76 JUMPI DUP3 SWAP1 SUB PUSH1 0x1F AND DUP3 ADD SWAP2 JUMPDEST POP POP POP POP POP SWAP1 POP SWAP1 JUMP JUMPDEST PUSH2 0xFA5 PUSH2 0x24A7 JUMP JUMPDEST PUSH32 0x0 PUSH20 0xFFFFFFFFFFFFFFFFFFFFFFFFFFFFFFFFFFFFFFFF AND PUSH4 0x7E0DB17 DUP3 PUSH1 0x40 MLOAD DUP3 PUSH4 0xFFFFFFFF AND PUSH1 0xE0 SHL DUP2 MSTORE PUSH1 0x4 ADD PUSH2 0xFFE SWAP2 SWAP1 PUSH2 0x3BF0 JUMP JUMPDEST PUSH0 PUSH1 0x40 MLOAD DUP1 DUP4 SUB DUP2 PUSH0 DUP8 DUP1 EXTCODESIZE ISZERO DUP1 ISZERO PUSH2 0x1015 JUMPI PUSH0 DUP1 REVERT JUMPDEST POP GAS CALL ISZERO DUP1 ISZERO PUSH2 0x1027 JUMPI RETURNDATASIZE PUSH0 DUP1 RETURNDATACOPY RETURNDATASIZE PUSH0 REVERT JUMPDEST POP POP POP POP POP JUMP JUMPDEST PUSH0 DUP1 PUSH2 0x1038 PUSH2 0x235D JUMP JUMPDEST SWAP1 POP PUSH2 0x1045 DUP2 DUP6 DUP6 PUSH2 0x252E JUMP JUMPDEST PUSH1 0x1 SWAP2 POP POP SWAP3 SWAP2 POP POP JUMP JUMPDEST PUSH2 0x1058 PUSH2 0x24A7 JUMP JUMPDEST DUP1 PUSH1 0x3 PUSH0 DUP5 PUSH2 0xFFFF AND PUSH2 0xFFFF AND DUP2 MSTORE PUSH1 0x20 ADD SWAP1 DUP2 MSTORE PUSH1 0x20 ADD PUSH0 KECCAK256 DUP2 SWAP1 SSTORE POP POP POP JUMP JUMPDEST PUSH2 0x1082 PUSH2 0x24A7 JUMP JUMPDEST PUSH32 0x0 PUSH20 0xFFFFFFFFFFFFFFFFFFFFFFFFFFFFFFFFFFFFFFFF AND PUSH4 0x10DDB137 DUP3 PUSH1 0x40 MLOAD DUP3 PUSH4 0xFFFFFFFF AND PUSH1 0xE0 SHL DUP2 MSTORE PUSH1 0x4 ADD PUSH2 0x10DB SWAP2 SWAP1 PUSH2 0x3BF0 JUMP JUMPDEST PUSH0 PUSH1 0x40 MLOAD DUP1 DUP4 SUB DUP2 PUSH0 DUP8 DUP1 EXTCODESIZE ISZERO DUP1 ISZERO PUSH2 0x10F2 JUMPI PUSH0 DUP1 REVERT JUMPDEST POP GAS CALL ISZERO DUP1 ISZERO PUSH2 0x1104 JUMPI RETURNDATASIZE PUSH0 DUP1 RETURNDATACOPY RETURNDATASIZE PUSH0 REVERT JUMPDEST POP POP POP POP POP JUMP JUMPDEST PUSH1 0xC SLOAD DUP2 JUMP JUMPDEST PUSH0 PUSH1 0x9 SLOAD SWAP1 POP SWAP1 JUMP JUMPDEST PUSH0 DUP1 PUSH2 0x1124 PUSH2 0x235D JUMP JUMPDEST SWAP1 POP PUSH2 0x1131 DUP6 DUP3 DUP6 PUSH2 0x2540 JUMP JUMPDEST PUSH2 0x113C DUP6 DUP6 DUP6 PUSH2 0x25D2 JUMP JUMPDEST PUSH1 0x1 SWAP2 POP POP SWAP4 SWAP3 POP POP POP JUMP JUMPDEST PUSH0 DUP1 PUSH0 DUP1 DUP10 DUP10 DUP10 PUSH1 0x40 MLOAD PUSH1 0x20 ADD PUSH2 0x1162 SWAP5 SWAP4 SWAP3 SWAP2 SWAP1 PUSH2 0x4489 JUMP JUMPDEST PUSH1 0x40 MLOAD PUSH1 0x20 DUP2 DUP4 SUB SUB DUP2 MSTORE SWAP1 PUSH1 0x40 MSTORE SWAP1 POP PUSH32 0x0 PUSH20 0xFFFFFFFFFFFFFFFFFFFFFFFFFFFFFFFFFFFFFFFF AND PUSH4 0x40A7BB10 DUP12 ADDRESS DUP5 DUP11 DUP11 DUP11 PUSH1 0x40 MLOAD DUP8 PUSH4 0xFFFFFFFF AND PUSH1 0xE0 SHL DUP2 MSTORE PUSH1 0x4 ADD PUSH2 0x11D6 SWAP7 SWAP6 SWAP5 SWAP4 SWAP3 SWAP2 SWAP1 PUSH2 0x44C7 JUMP JUMPDEST PUSH1 0x40 DUP1 MLOAD DUP1 DUP4 SUB DUP2 DUP7 GAS STATICCALL ISZERO DUP1 ISZERO PUSH2 0x11F0 JUMPI RETURNDATASIZE PUSH0 DUP1 RETURNDATACOPY RETURNDATASIZE PUSH0 REVERT JUMPDEST POP POP POP POP PUSH1 0x40 MLOAD RETURNDATASIZE PUSH1 0x1F NOT PUSH1 0x1F DUP3 ADD AND DUP3 ADD DUP1 PUSH1 0x40 MSTORE POP DUP2 ADD SWAP1 PUSH2 0x1214 SWAP2 SWAP1 PUSH2 0x453C JUMP JUMPDEST SWAP3 POP SWAP3 POP POP SWAP8 POP SWAP8 SWAP6 POP POP POP POP POP POP JUMP JUMPDEST PUSH0 PUSH1 0x12 SWAP1 POP SWAP1 JUMP JUMPDEST PUSH0 DUP1 PUSH2 0x1237 PUSH2 0x235D JUMP JUMPDEST SWAP1 POP PUSH2 0x1258 DUP2 DUP6 DUP6 PUSH2 0x1249 DUP6 DUP10 PUSH2 0x1FF4 JUMP JUMPDEST PUSH2 0x1253 SWAP2 SWAP1 PUSH2 0x45A7 JUMP JUMPDEST PUSH2 0x252E JUMP JUMPDEST PUSH1 0x1 SWAP2 POP POP SWAP3 SWAP2 POP POP JUMP JUMPDEST PUSH2 0x126B PUSH2 0x24A7 JUMP JUMPDEST PUSH0 CALLER PUSH20 0xFFFFFFFFFFFFFFFFFFFFFFFFFFFFFFFFFFFFFFFF AND SELFBALANCE PUSH1 0x40 MLOAD PUSH2 0x1290 SWAP1 PUSH2 0x45FD JUMP JUMPDEST PUSH0 PUSH1 0x40 MLOAD DUP1 DUP4 SUB DUP2 DUP6 DUP8 GAS CALL SWAP3 POP POP POP RETURNDATASIZE DUP1 PUSH0 DUP2 EQ PUSH2 0x12CA JUMPI PUSH1 0x40 MLOAD SWAP2 POP PUSH1 0x1F NOT PUSH1 0x3F RETURNDATASIZE ADD AND DUP3 ADD PUSH1 0x40 MSTORE RETURNDATASIZE DUP3 MSTORE RETURNDATASIZE PUSH0 PUSH1 0x20 DUP5 ADD RETURNDATACOPY PUSH2 0x12CF JUMP JUMPDEST PUSH1 0x60 SWAP2 POP JUMPDEST POP POP SWAP1 POP DUP1 PUSH2 0x12DC JUMPI PUSH0 DUP1 REVERT JUMPDEST POP JUMP JUMPDEST PUSH0 DUP1 PUSH1 0x1 PUSH0 DUP7 PUSH2 0xFFFF AND PUSH2 0xFFFF AND DUP2 MSTORE PUSH1 0x20 ADD SWAP1 DUP2 MSTORE PUSH1 0x20 ADD PUSH0 KECCAK256 DUP1 SLOAD PUSH2 0x1305 SWAP1 PUSH2 0x4359 JUMP JUMPDEST DUP1 PUSH1 0x1F ADD PUSH1 0x20 DUP1 SWAP2 DIV MUL PUSH1 0x20 ADD PUSH1 0x40 MLOAD SWAP1 DUP2 ADD PUSH1 0x40 MSTORE DUP1 SWAP3 SWAP2 SWAP1 DUP2 DUP2 MSTORE PUSH1 0x20 ADD DUP3 DUP1 SLOAD PUSH2 0x1331 SWAP1 PUSH2 0x4359 JUMP JUMPDEST DUP1 ISZERO PUSH2 0x137C JUMPI DUP1 PUSH1 0x1F LT PUSH2 0x1353 JUMPI PUSH2 0x100 DUP1 DUP4 SLOAD DIV MUL DUP4 MSTORE SWAP2 PUSH1 0x20 ADD SWAP2 PUSH2 0x137C JUMP JUMPDEST DUP3 ADD SWAP2 SWAP1 PUSH0 MSTORE PUSH1 0x20 PUSH0 KECCAK256 SWAP1 JUMPDEST DUP2 SLOAD DUP2 MSTORE SWAP1 PUSH1 0x1 ADD SWAP1 PUSH1 0x20 ADD DUP1 DUP4 GT PUSH2 0x135F JUMPI DUP3 SWAP1 SUB PUSH1 0x1F AND DUP3 ADD SWAP2 JUMPDEST POP POP POP POP POP SWAP1 POP DUP4 DUP4 PUSH1 0x40 MLOAD PUSH2 0x1393 SWAP3 SWAP2 SWAP1 PUSH2 0x43B7 JUMP JUMPDEST PUSH1 0x40 MLOAD DUP1 SWAP2 SUB SWAP1 KECCAK256 DUP2 DUP1 MLOAD SWAP1 PUSH1 0x20 ADD KECCAK256 EQ SWAP2 POP POP SWAP4 SWAP3 POP POP POP JUMP JUMPDEST PUSH1 0x3 PUSH1 0x20 MSTORE DUP1 PUSH0 MSTORE PUSH1 0x40 PUSH0 KECCAK256 PUSH0 SWAP2 POP SWAP1 POP SLOAD DUP2 JUMP JUMPDEST CALLVALUE PUSH1 0xC SLOAD DUP3 PUSH2 0x13D2 SWAP2 SWAP1 PUSH2 0x4611 JUMP JUMPDEST GT ISZERO PUSH2 0x1413 JUMPI PUSH1 0x40 MLOAD PUSH32 0x8C379A000000000000000000000000000000000000000000000000000000000 DUP2 MSTORE PUSH1 0x4 ADD PUSH2 0x140A SWAP1 PUSH2 0x469C JUMP JUMPDEST PUSH1 0x40 MLOAD DUP1 SWAP2 SUB SWAP1 REVERT JUMPDEST PUSH0 PUSH1 0xD PUSH0 SWAP1 SLOAD SWAP1 PUSH2 0x100 EXP SWAP1 DIV PUSH20 0xFFFFFFFFFFFFFFFFFFFFFFFFFFFFFFFFFFFFFFFF AND PUSH20 0xFFFFFFFFFFFFFFFFFFFFFFFFFFFFFFFFFFFFFFFF AND CALLVALUE PUSH1 0x40 MLOAD PUSH2 0x1459 SWAP1 PUSH2 0x45FD JUMP JUMPDEST PUSH0 PUSH1 0x40 MLOAD DUP1 DUP4 SUB DUP2 DUP6 DUP8 GAS CALL SWAP3 POP POP POP RETURNDATASIZE DUP1 PUSH0 DUP2 EQ PUSH2 0x1493 JUMPI PUSH1 0x40 MLOAD SWAP2 POP PUSH1 0x1F NOT PUSH1 0x3F RETURNDATASIZE ADD AND DUP3 ADD PUSH1 0x40 MSTORE RETURNDATASIZE DUP3 MSTORE RETURNDATASIZE PUSH0 PUSH1 0x20 DUP5 ADD RETURNDATACOPY PUSH2 0x1498 JUMP JUMPDEST PUSH1 0x60 SWAP2 POP JUMPDEST POP POP SWAP1 POP DUP1 PUSH2 0x14A5 JUMPI PUSH0 DUP1 REVERT JUMPDEST PUSH2 0x14CD DUP4 PUSH2 0x14B1 PUSH2 0x1225 JUMP JUMPDEST PUSH1 0xA PUSH2 0x14BD SWAP2 SWAP1 PUSH2 0x47E9 JUMP JUMPDEST DUP5 PUSH2 0x14C8 SWAP2 SWAP1 PUSH2 0x4611 JUMP JUMPDEST PUSH2 0x26C2 JUMP JUMPDEST POP POP POP JUMP JUMPDEST PUSH2 0x14DA PUSH2 0x24A7 JUMP JUMPDEST PUSH32 0x0 PUSH20 0xFFFFFFFFFFFFFFFFFFFFFFFFFFFFFFFFFFFFFFFF AND PUSH4 0x42D65A8D DUP5 DUP5 DUP5 PUSH1 0x40 MLOAD DUP5 PUSH4 0xFFFFFFFF AND PUSH1 0xE0 SHL DUP2 MSTORE PUSH1 0x4 ADD PUSH2 0x1537 SWAP4 SWAP3 SWAP2 SWAP1 PUSH2 0x4833 JUMP JUMPDEST PUSH0 PUSH1 0x40 MLOAD DUP1 DUP4 SUB DUP2 PUSH0 DUP8 DUP1 EXTCODESIZE ISZERO DUP1 ISZERO PUSH2 0x154E JUMPI PUSH0 DUP1 REVERT JUMPDEST POP GAS CALL ISZERO DUP1 ISZERO PUSH2 0x1560 JUMPI RETURNDATASIZE PUSH0 DUP1 RETURNDATACOPY RETURNDATASIZE PUSH0 REVERT JUMPDEST POP POP POP POP POP POP POP JUMP JUMPDEST PUSH0 DUP2 JUMP JUMPDEST PUSH0 DUP2 JUMP JUMPDEST PUSH2 0x1606 DUP10 DUP10 DUP10 DUP10 DUP1 DUP1 PUSH1 0x1F ADD PUSH1 0x20 DUP1 SWAP2 DIV MUL PUSH1 0x20 ADD PUSH1 0x40 MLOAD SWAP1 DUP2 ADD PUSH1 0x40 MSTORE DUP1 SWAP4 SWAP3 SWAP2 SWAP1 DUP2 DUP2 MSTORE PUSH1 0x20 ADD DUP4 DUP4 DUP1 DUP3 DUP5 CALLDATACOPY PUSH0 DUP2 DUP5 ADD MSTORE PUSH1 0x1F NOT PUSH1 0x1F DUP3 ADD AND SWAP1 POP DUP1 DUP4 ADD SWAP3 POP POP POP POP POP POP POP DUP9 DUP9 DUP9 DUP9 DUP9 DUP1 DUP1 PUSH1 0x1F ADD PUSH1 0x20 DUP1 SWAP2 DIV MUL PUSH1 0x20 ADD PUSH1 0x40 MLOAD SWAP1 DUP2 ADD PUSH1 0x40 MSTORE DUP1 SWAP4 SWAP3 SWAP2 SWAP1 DUP2 DUP2 MSTORE PUSH1 0x20 ADD DUP4 DUP4 DUP1 DUP3 DUP5 CALLDATACOPY PUSH0 DUP2 DUP5 ADD MSTORE PUSH1 0x1F NOT PUSH1 0x1F DUP3 ADD AND SWAP1 POP DUP1 DUP4 ADD SWAP3 POP POP POP POP POP POP POP PUSH2 0x2741 JUMP JUMPDEST POP POP POP POP POP POP POP POP POP JUMP JUMPDEST PUSH1 0x5 PUSH1 0x20 MSTORE DUP3 PUSH0 MSTORE PUSH1 0x40 PUSH0 KECCAK256 DUP3 DUP1 MLOAD PUSH1 0x20 DUP2 ADD DUP3 ADD DUP1 MLOAD DUP5 DUP3 MSTORE PUSH1 0x20 DUP4 ADD PUSH1 0x20 DUP6 ADD KECCAK256 DUP2 DUP4 MSTORE DUP1 SWAP6 POP POP POP POP POP POP PUSH1 0x20 MSTORE DUP1 PUSH0 MSTORE PUSH1 0x40 PUSH0 KECCAK256 PUSH0 SWAP3 POP SWAP3 POP POP POP SLOAD DUP2 JUMP JUMPDEST ADDRESS PUSH20 0xFFFFFFFFFFFFFFFFFFFFFFFFFFFFFFFFFFFFFFFF AND PUSH2 0x1673 PUSH2 0x235D JUMP JUMPDEST PUSH20 0xFFFFFFFFFFFFFFFFFFFFFFFFFFFFFFFFFFFFFFFF AND EQ PUSH2 0x16C9 JUMPI PUSH1 0x40 MLOAD PUSH32 0x8C379A000000000000000000000000000000000000000000000000000000000 DUP2 MSTORE PUSH1 0x4 ADD PUSH2 0x16C0 SWAP1 PUSH2 0x48D3 JUMP JUMPDEST PUSH1 0x40 MLOAD DUP1 SWAP2 SUB SWAP1 REVERT JUMPDEST PUSH2 0x175B DUP7 DUP7 DUP7 DUP1 DUP1 PUSH1 0x1F ADD PUSH1 0x20 DUP1 SWAP2 DIV MUL PUSH1 0x20 ADD PUSH1 0x40 MLOAD SWAP1 DUP2 ADD PUSH1 0x40 MSTORE DUP1 SWAP4 SWAP3 SWAP2 SWAP1 DUP2 DUP2 MSTORE PUSH1 0x20 ADD DUP4 DUP4 DUP1 DUP3 DUP5 CALLDATACOPY PUSH0 DUP2 DUP5 ADD MSTORE PUSH1 0x1F NOT PUSH1 0x1F DUP3 ADD AND SWAP1 POP DUP1 DUP4 ADD SWAP3 POP POP POP POP POP POP POP DUP6 DUP6 DUP6 DUP1 DUP1 PUSH1 0x1F ADD PUSH1 0x20 DUP1 SWAP2 DIV MUL PUSH1 0x20 ADD PUSH1 0x40 MLOAD SWAP1 DUP2 ADD PUSH1 0x40 MSTORE DUP1 SWAP4 SWAP3 SWAP2 SWAP1 DUP2 DUP2 MSTORE PUSH1 0x20 ADD DUP4 DUP4 DUP1 DUP3 DUP5 CALLDATACOPY PUSH0 DUP2 DUP5 ADD MSTORE PUSH1 0x1F NOT PUSH1 0x1F DUP3 ADD AND SWAP1 POP DUP1 DUP4 ADD SWAP3 POP POP POP POP POP POP POP PUSH2 0x2845 JUMP JUMPDEST POP POP POP POP POP POP JUMP JUMPDEST PUSH0 DUP1 PUSH32 0x0 PUSH20 0xFFFFFFFFFFFFFFFFFFFFFFFFFFFFFFFFFFFFFFFF AND PUSH4 0x40A7BB10 DUP8 ADDRESS DUP9 DUP9 DUP9 PUSH1 0x40 MLOAD DUP7 PUSH4 0xFFFFFFFF AND PUSH1 0xE0 SHL DUP2 MSTORE PUSH1 0x4 ADD PUSH2 0x17C6 SWAP6 SWAP5 SWAP4 SWAP3 SWAP2 SWAP1 PUSH2 0x48F1 JUMP JUMPDEST PUSH1 0x40 DUP1 MLOAD DUP1 DUP4 SUB DUP2 DUP7 GAS STATICCALL ISZERO DUP1 ISZERO PUSH2 0x17E0 JUMPI RETURNDATASIZE PUSH0 DUP1 RETURNDATACOPY RETURNDATASIZE PUSH0 REVERT JUMPDEST POP POP POP POP PUSH1 0x40 MLOAD RETURNDATASIZE PUSH1 0x1F NOT PUSH1 0x1F DUP3 ADD AND DUP3 ADD DUP1 PUSH1 0x40 MSTORE POP DUP2 ADD SWAP1 PUSH2 0x1804 SWAP2 SWAP1 PUSH2 0x453C JUMP JUMPDEST SWAP2 POP SWAP2 POP SWAP5 POP SWAP5 SWAP3 POP POP POP JUMP JUMPDEST PUSH0 PUSH1 0x7 PUSH0 DUP4 PUSH20 0xFFFFFFFFFFFFFFFFFFFFFFFFFFFFFFFFFFFFFFFF AND PUSH20 0xFFFFFFFFFFFFFFFFFFFFFFFFFFFFFFFFFFFFFFFF AND DUP2 MSTORE PUSH1 0x20 ADD SWAP1 DUP2 MSTORE PUSH1 0x20 ADD PUSH0 KECCAK256 SLOAD SWAP1 POP SWAP2 SWAP1 POP JUMP JUMPDEST PUSH2 0x185F PUSH2 0x24A7 JUMP JUMPDEST PUSH2 0x1868 PUSH0 PUSH2 0x28AF JUMP JUMPDEST JUMP JUMPDEST PUSH1 0x1 PUSH1 0x20 MSTORE DUP1 PUSH0 MSTORE PUSH1 0x40 PUSH0 KECCAK256 PUSH0 SWAP2 POP SWAP1 POP DUP1 SLOAD PUSH2 0x1886 SWAP1 PUSH2 0x4359 JUMP JUMPDEST DUP1 PUSH1 0x1F ADD PUSH1 0x20 DUP1 SWAP2 DIV MUL PUSH1 0x20 ADD PUSH1 0x40 MLOAD SWAP1 DUP2 ADD PUSH1 0x40 MSTORE DUP1 SWAP3 SWAP2 SWAP1 DUP2 DUP2 MSTORE PUSH1 0x20 ADD DUP3 DUP1 SLOAD PUSH2 0x18B2 SWAP1 PUSH2 0x4359 JUMP JUMPDEST DUP1 ISZERO PUSH2 0x18FD JUMPI DUP1 PUSH1 0x1F LT PUSH2 0x18D4 JUMPI PUSH2 0x100 DUP1 DUP4 SLOAD DIV MUL DUP4 MSTORE SWAP2 PUSH1 0x20 ADD SWAP2 PUSH2 0x18FD JUMP JUMPDEST DUP3 ADD SWAP2 SWAP1 PUSH0 MSTORE PUSH1 0x20 PUSH0 KECCAK256 SWAP1 JUMPDEST DUP2 SLOAD DUP2 MSTORE SWAP1 PUSH1 0x1 ADD SWAP1 PUSH1 0x20 ADD DUP1 DUP4 GT PUSH2 0x18E0 JUMPI DUP3 SWAP1 SUB PUSH1 0x1F AND DUP3 ADD SWAP2 JUMPDEST POP POP POP POP POP DUP2 JUMP JUMPDEST PUSH1 0x2 PUSH1 0x20 MSTORE DUP2 PUSH0 MSTORE PUSH1 0x40 PUSH0 KECCAK256 PUSH1 0x20 MSTORE DUP1 PUSH0 MSTORE PUSH1 0x40 PUSH0 KECCAK256 PUSH0 SWAP2 POP SWAP2 POP POP SLOAD DUP2 JUMP JUMPDEST PUSH0 DUP1 PUSH0 SWAP1 SLOAD SWAP1 PUSH2 0x100 EXP SWAP1 DIV PUSH20 0xFFFFFFFFFFFFFFFFFFFFFFFFFFFFFFFFFFFFFFFF AND SWAP1 POP SWAP1 JUMP JUMPDEST PUSH0 PUSH2 0x1955 PUSH2 0x1111 JUMP JUMPDEST SWAP1 POP SWAP1 JUMP JUMPDEST PUSH1 0x4 PUSH0 SWAP1 SLOAD SWAP1 PUSH2 0x100 EXP SWAP1 DIV PUSH20 0xFFFFFFFFFFFFFFFFFFFFFFFFFFFFFFFFFFFFFFFF AND DUP2 JUMP JUMPDEST PUSH1 0x60 PUSH1 0xB DUP1 SLOAD PUSH2 0x198E SWAP1 PUSH2 0x4359 JUMP JUMPDEST DUP1 PUSH1 0x1F ADD PUSH1 0x20 DUP1 SWAP2 DIV MUL PUSH1 0x20 ADD PUSH1 0x40 MLOAD SWAP1 DUP2 ADD PUSH1 0x40 MSTORE DUP1 SWAP3 SWAP2 SWAP1 DUP2 DUP2 MSTORE PUSH1 0x20 ADD DUP3 DUP1 SLOAD PUSH2 0x19BA SWAP1 PUSH2 0x4359 JUMP JUMPDEST DUP1 ISZERO PUSH2 0x1A05 JUMPI DUP1 PUSH1 0x1F LT PUSH2 0x19DC JUMPI PUSH2 0x100 DUP1 DUP4 SLOAD DIV MUL DUP4 MSTORE SWAP2 PUSH1 0x20 ADD SWAP2 PUSH2 0x1A05 JUMP JUMPDEST DUP3 ADD SWAP2 SWAP1 PUSH0 MSTORE PUSH1 0x20 PUSH0 KECCAK256 SWAP1 JUMPDEST DUP2 SLOAD DUP2 MSTORE SWAP1 PUSH1 0x1 ADD SWAP1 PUSH1 0x20 ADD DUP1 DUP4 GT PUSH2 0x19E8 JUMPI DUP3 SWAP1 SUB PUSH1 0x1F AND DUP3 ADD SWAP2 JUMPDEST POP POP POP POP POP SWAP1 POP SWAP1 JUMP JUMPDEST PUSH1 0xD PUSH0 SWAP1 SLOAD SWAP1 PUSH2 0x100 EXP SWAP1 DIV PUSH20 0xFFFFFFFFFFFFFFFFFFFFFFFFFFFFFFFFFFFFFFFF AND DUP2 JUMP JUMPDEST PUSH1 0x60 PUSH0 PUSH1 0x1 PUSH0 DUP5 PUSH2 0xFFFF AND PUSH2 0xFFFF AND DUP2 MSTORE PUSH1 0x20 ADD SWAP1 DUP2 MSTORE PUSH1 0x20 ADD PUSH0 KECCAK256 DUP1 SLOAD PUSH2 0x1A5B SWAP1 PUSH2 0x4359 JUMP JUMPDEST DUP1 PUSH1 0x1F ADD PUSH1 0x20 DUP1 SWAP2 DIV MUL PUSH1 0x20 ADD PUSH1 0x40 MLOAD SWAP1 DUP2 ADD PUSH1 0x40 MSTORE DUP1 SWAP3 SWAP2 SWAP1 DUP2 DUP2 MSTORE PUSH1 0x20 ADD DUP3 DUP1 SLOAD PUSH2 0x1A87 SWAP1 PUSH2 0x4359 JUMP JUMPDEST DUP1 ISZERO PUSH2 0x1AD2 JUMPI DUP1 PUSH1 0x1F LT PUSH2 0x1AA9 JUMPI PUSH2 0x100 DUP1 DUP4 SLOAD DIV MUL DUP4 MSTORE SWAP2 PUSH1 0x20 ADD SWAP2 PUSH2 0x1AD2 JUMP JUMPDEST DUP3 ADD SWAP2 SWAP1 PUSH0 MSTORE PUSH1 0x20 PUSH0 KECCAK256 SWAP1 JUMPDEST DUP2 SLOAD DUP2 MSTORE SWAP1 PUSH1 0x1 ADD SWAP1 PUSH1 0x20 ADD DUP1 DUP4 GT PUSH2 0x1AB5 JUMPI DUP3 SWAP1 SUB PUSH1 0x1F AND DUP3 ADD SWAP2 JUMPDEST POP POP POP POP POP SWAP1 POP PUSH0 DUP2 MLOAD SUB PUSH2 0x1B1C JUMPI PUSH1 0x40 MLOAD PUSH32 0x8C379A000000000000000000000000000000000000000000000000000000000 DUP2 MSTORE PUSH1 0x4 ADD PUSH2 0x1B13 SWAP1 PUSH2 0x499A JUMP JUMPDEST PUSH1 0x40 MLOAD DUP1 SWAP2 SUB SWAP1 REVERT JUMPDEST PUSH2 0x1B3E PUSH0 PUSH1 0x14 DUP4 MLOAD PUSH2 0x1B2E SWAP2 SWAP1 PUSH2 0x49B8 JUMP JUMPDEST DUP4 PUSH2 0x2970 SWAP1 SWAP3 SWAP2 SWAP1 PUSH4 0xFFFFFFFF AND JUMP JUMPDEST SWAP2 POP POP SWAP2 SWAP1 POP JUMP JUMPDEST PUSH0 DUP1 PUSH2 0x1B50 PUSH2 0x235D JUMP JUMPDEST SWAP1 POP PUSH0 PUSH2 0x1B5D DUP3 DUP7 PUSH2 0x1FF4 JUMP JUMPDEST SWAP1 POP DUP4 DUP2 LT ISZERO PUSH2 0x1BA8 JUMPI DUP5 DUP2 DUP6 PUSH1 0x40 MLOAD PUSH32 0xA60F030C00000000000000000000000000000000000000000000000000000000 DUP2 MSTORE PUSH1 0x4 ADD PUSH2 0x1B9F SWAP4 SWAP3 SWAP2 SWAP1 PUSH2 0x49EB JUMP JUMPDEST PUSH1 0x40 MLOAD DUP1 SWAP2 SUB SWAP1 REVERT JUMPDEST PUSH2 0x1BB5 DUP3 DUP7 DUP7 DUP5 SUB PUSH2 0x252E JUMP JUMPDEST PUSH1 0x1 SWAP3 POP POP POP SWAP3 SWAP2 POP POP JUMP JUMPDEST PUSH2 0x1BC9 PUSH2 0x24A7 JUMP JUMPDEST DUP2 DUP2 ADDRESS PUSH1 0x40 MLOAD PUSH1 0x20 ADD PUSH2 0x1BDE SWAP4 SWAP3 SWAP2 SWAP1 PUSH2 0x4A65 JUMP JUMPDEST PUSH1 0x40 MLOAD PUSH1 0x20 DUP2 DUP4 SUB SUB DUP2 MSTORE SWAP1 PUSH1 0x40 MSTORE PUSH1 0x1 PUSH0 DUP6 PUSH2 0xFFFF AND PUSH2 0xFFFF AND DUP2 MSTORE PUSH1 0x20 ADD SWAP1 DUP2 MSTORE PUSH1 0x20 ADD PUSH0 KECCAK256 SWAP1 DUP2 PUSH2 0x1C12 SWAP2 SWAP1 PUSH2 0x4C22 JUMP JUMPDEST POP PUSH32 0x8C0400CFE2D1199B1A725C78960BCC2A344D869B80590D0F2BD005DB15A572CE DUP4 DUP4 DUP4 PUSH1 0x40 MLOAD PUSH2 0x1C46 SWAP4 SWAP3 SWAP2 SWAP1 PUSH2 0x4833 JUMP JUMPDEST PUSH1 0x40 MLOAD DUP1 SWAP2 SUB SWAP1 LOG1 POP POP POP JUMP JUMPDEST PUSH0 DUP1 PUSH2 0x1C5D PUSH2 0x235D JUMP JUMPDEST SWAP1 POP PUSH2 0x1C6A DUP2 DUP6 DUP6 PUSH2 0x25D2 JUMP JUMPDEST PUSH1 0x1 SWAP2 POP POP SWAP3 SWAP2 POP POP JUMP JUMPDEST PUSH32 0x0 DUP2 JUMP JUMPDEST PUSH2 0x1CA1 PUSH2 0x24A7 JUMP JUMPDEST DUP1 PUSH1 0x4 PUSH0 PUSH2 0x100 EXP DUP2 SLOAD DUP2 PUSH20 0xFFFFFFFFFFFFFFFFFFFFFFFFFFFFFFFFFFFFFFFF MUL NOT AND SWAP1 DUP4 PUSH20 0xFFFFFFFFFFFFFFFFFFFFFFFFFFFFFFFFFFFFFFFF AND MUL OR SWAP1 SSTORE POP PUSH32 0x5DB758E995A17EC1AD84BDEF7E8C3293A0BD6179BCCE400DFF5D4C3D87DB726B DUP2 PUSH1 0x40 MLOAD PUSH2 0x1D10 SWAP2 SWAP1 PUSH2 0x406B JUMP JUMPDEST PUSH1 0x40 MLOAD DUP1 SWAP2 SUB SWAP1 LOG1 POP JUMP JUMPDEST PUSH2 0x2710 DUP2 JUMP JUMPDEST PUSH2 0x1D29 PUSH2 0x24A7 JUMP JUMPDEST PUSH32 0x0 PUSH20 0xFFFFFFFFFFFFFFFFFFFFFFFFFFFFFFFFFFFFFFFF AND PUSH4 0xCBED8B9C DUP7 DUP7 DUP7 DUP7 DUP7 PUSH1 0x40 MLOAD DUP7 PUSH4 0xFFFFFFFF AND PUSH1 0xE0 SHL DUP2 MSTORE PUSH1 0x4 ADD PUSH2 0x1D8A SWAP6 SWAP5 SWAP4 SWAP3 SWAP2 SWAP1 PUSH2 0x4CF1 JUMP JUMPDEST PUSH0 PUSH1 0x40 MLOAD DUP1 DUP4 SUB DUP2 PUSH0 DUP8 DUP1 EXTCODESIZE ISZERO DUP1 ISZERO PUSH2 0x1DA1 JUMPI PUSH0 DUP1 REVERT JUMPDEST POP GAS CALL ISZERO DUP1 ISZERO PUSH2 0x1DB3 JUMPI RETURNDATASIZE PUSH0 DUP1 RETURNDATACOPY RETURNDATASIZE PUSH0 REVERT JUMPDEST POP POP POP POP POP POP POP POP POP JUMP JUMPDEST PUSH0 PUSH1 0x5 PUSH0 DUP9 PUSH2 0xFFFF AND PUSH2 0xFFFF AND DUP2 MSTORE PUSH1 0x20 ADD SWAP1 DUP2 MSTORE PUSH1 0x20 ADD PUSH0 KECCAK256 DUP7 DUP7 PUSH1 0x40 MLOAD PUSH2 0x1DE8 SWAP3 SWAP2 SWAP1 PUSH2 0x43B7 JUMP JUMPDEST SWAP1 DUP2 MSTORE PUSH1 0x20 ADD PUSH1 0x40 MLOAD DUP1 SWAP2 SUB SWAP1 KECCAK256 PUSH0 DUP6 PUSH8 0xFFFFFFFFFFFFFFFF AND PUSH8 0xFFFFFFFFFFFFFFFF AND DUP2 MSTORE PUSH1 0x20 ADD SWAP1 DUP2 MSTORE PUSH1 0x20 ADD PUSH0 KECCAK256 SLOAD SWAP1 POP PUSH0 DUP1 SHL DUP2 SUB PUSH2 0x1E60 JUMPI PUSH1 0x40 MLOAD PUSH32 0x8C379A000000000000000000000000000000000000000000000000000000000 DUP2 MSTORE PUSH1 0x4 ADD PUSH2 0x1E57 SWAP1 PUSH2 0x4DAD JUMP JUMPDEST PUSH1 0x40 MLOAD DUP1 SWAP2 SUB SWAP1 REVERT JUMPDEST DUP1 DUP4 DUP4 PUSH1 0x40 MLOAD PUSH2 0x1E71 SWAP3 SWAP2 SWAP1 PUSH2 0x43B7 JUMP JUMPDEST PUSH1 0x40 MLOAD DUP1 SWAP2 SUB SWAP1 KECCAK256 EQ PUSH2 0x1EB9 JUMPI PUSH1 0x40 MLOAD PUSH32 0x8C379A000000000000000000000000000000000000000000000000000000000 DUP2 MSTORE PUSH1 0x4 ADD PUSH2 0x1EB0 SWAP1 PUSH2 0x4E3B JUMP JUMPDEST PUSH1 0x40 MLOAD DUP1 SWAP2 SUB SWAP1 REVERT JUMPDEST PUSH0 DUP1 SHL PUSH1 0x5 PUSH0 DUP10 PUSH2 0xFFFF AND PUSH2 0xFFFF AND DUP2 MSTORE PUSH1 0x20 ADD SWAP1 DUP2 MSTORE PUSH1 0x20 ADD PUSH0 KECCAK256 DUP8 DUP8 PUSH1 0x40 MLOAD PUSH2 0x1EE5 SWAP3 SWAP2 SWAP1 PUSH2 0x43B7 JUMP JUMPDEST SWAP1 DUP2 MSTORE PUSH1 0x20 ADD PUSH1 0x40 MLOAD DUP1 SWAP2 SUB SWAP1 KECCAK256 PUSH0 DUP7 PUSH8 0xFFFFFFFFFFFFFFFF AND PUSH8 0xFFFFFFFFFFFFFFFF AND DUP2 MSTORE PUSH1 0x20 ADD SWAP1 DUP2 MSTORE PUSH1 0x20 ADD PUSH0 KECCAK256 DUP2 SWAP1 SSTORE POP PUSH2 0x1FAC DUP8 DUP8 DUP8 DUP1 DUP1 PUSH1 0x1F ADD PUSH1 0x20 DUP1 SWAP2 DIV MUL PUSH1 0x20 ADD PUSH1 0x40 MLOAD SWAP1 DUP2 ADD PUSH1 0x40 MSTORE DUP1 SWAP4 SWAP3 SWAP2 SWAP1 DUP2 DUP2 MSTORE PUSH1 0x20 ADD DUP4 DUP4 DUP1 DUP3 DUP5 CALLDATACOPY PUSH0 DUP2 DUP5 ADD MSTORE PUSH1 0x1F NOT PUSH1 0x1F DUP3 ADD AND SWAP1 POP DUP1 DUP4 ADD SWAP3 POP POP POP POP POP POP POP DUP7 DUP7 DUP7 DUP1 DUP1 PUSH1 0x1F ADD PUSH1 0x20 DUP1 SWAP2 DIV MUL PUSH1 0x20 ADD PUSH1 0x40 MLOAD SWAP1 DUP2 ADD PUSH1 0x40 MSTORE DUP1 SWAP4 SWAP3 SWAP2 SWAP1 DUP2 DUP2 MSTORE PUSH1 0x20 ADD DUP4 DUP4 DUP1 DUP3 DUP5 CALLDATACOPY PUSH0 DUP2 DUP5 ADD MSTORE PUSH1 0x1F NOT PUSH1 0x1F DUP3 ADD AND SWAP1 POP DUP1 DUP4 ADD SWAP3 POP POP POP POP POP POP POP PUSH2 0x2845 JUMP JUMPDEST PUSH32 0xC264D91F3ADC5588250E1551F547752CA0CFA8F6B530D243B9F9F4CAB10EA8E5 DUP8 DUP8 DUP8 DUP8 DUP6 PUSH1 0x40 MLOAD PUSH2 0x1FE3 SWAP6 SWAP5 SWAP4 SWAP3 SWAP2 SWAP1 PUSH2 0x4E68 JUMP JUMPDEST PUSH1 0x40 MLOAD DUP1 SWAP2 SUB SWAP1 LOG1 POP POP POP POP POP POP POP JUMP JUMPDEST PUSH0 PUSH1 0x8 PUSH0 DUP5 PUSH20 0xFFFFFFFFFFFFFFFFFFFFFFFFFFFFFFFFFFFFFFFF AND PUSH20 0xFFFFFFFFFFFFFFFFFFFFFFFFFFFFFFFFFFFFFFFF AND DUP2 MSTORE PUSH1 0x20 ADD SWAP1 DUP2 MSTORE PUSH1 0x20 ADD PUSH0 KECCAK256 PUSH0 DUP4 PUSH20 0xFFFFFFFFFFFFFFFFFFFFFFFFFFFFFFFFFFFFFFFF AND PUSH20 0xFFFFFFFFFFFFFFFFFFFFFFFFFFFFFFFFFFFFFFFF AND DUP2 MSTORE PUSH1 0x20 ADD SWAP1 DUP2 MSTORE PUSH1 0x20 ADD PUSH0 KECCAK256 SLOAD SWAP1 POP SWAP3 SWAP2 POP POP JUMP JUMPDEST PUSH2 0x207E PUSH2 0x24A7 JUMP JUMPDEST PUSH0 DUP2 GT PUSH2 0x20C0 JUMPI PUSH1 0x40 MLOAD PUSH32 0x8C379A000000000000000000000000000000000000000000000000000000000 DUP2 MSTORE PUSH1 0x4 ADD PUSH2 0x20B7 SWAP1 PUSH2 0x4EFE JUMP JUMPDEST PUSH1 0x40 MLOAD DUP1 SWAP2 SUB SWAP1 REVERT JUMPDEST DUP1 PUSH1 0x2 PUSH0 DUP6 PUSH2 0xFFFF AND PUSH2 0xFFFF AND DUP2 MSTORE PUSH1 0x20 ADD SWAP1 DUP2 MSTORE PUSH1 0x20 ADD PUSH0 KECCAK256 PUSH0 DUP5 PUSH2 0xFFFF AND PUSH2 0xFFFF AND DUP2 MSTORE PUSH1 0x20 ADD SWAP1 DUP2 MSTORE PUSH1 0x20 ADD PUSH0 KECCAK256 DUP2 SWAP1 SSTORE POP PUSH32 0x9D5C7C0B934DA8FEFA9C7760C98383778A12DFBFC0C3B3106518F43FB9508AC0 DUP4 DUP4 DUP4 PUSH1 0x40 MLOAD PUSH2 0x2128 SWAP4 SWAP3 SWAP2 SWAP1 PUSH2 0x4F1C JUMP JUMPDEST PUSH1 0x40 MLOAD DUP1 SWAP2 SUB SWAP1 LOG1 POP POP POP JUMP JUMPDEST PUSH2 0x213D PUSH2 0x24A7 JUMP JUMPDEST DUP1 PUSH1 0x6 PUSH0 PUSH2 0x100 EXP DUP2 SLOAD DUP2 PUSH1 0xFF MUL NOT AND SWAP1 DUP4 ISZERO ISZERO MUL OR SWAP1 SSTORE POP PUSH32 0x1584AD594A70CBE1E6515592E1272A987D922B097EAD875069CEBE8B40C004A4 DUP2 PUSH1 0x40 MLOAD PUSH2 0x2185 SWAP2 SWAP1 PUSH2 0x37D9 JUMP JUMPDEST PUSH1 0x40 MLOAD DUP1 SWAP2 SUB SWAP1 LOG1 POP JUMP JUMPDEST PUSH2 0x2198 PUSH2 0x24A7 JUMP JUMPDEST DUP2 DUP2 PUSH1 0x1 PUSH0 DUP7 PUSH2 0xFFFF AND PUSH2 0xFFFF AND DUP2 MSTORE PUSH1 0x20 ADD SWAP1 DUP2 MSTORE PUSH1 0x20 ADD PUSH0 KECCAK256 SWAP2 DUP3 PUSH2 0x21C0 SWAP3 SWAP2 SWAP1 PUSH2 0x4F5B JUMP JUMPDEST POP PUSH32 0xFA41487AD5D6728F0B19276FA1EDDC16558578F5109FC39D2DC33C3230470DAB DUP4 DUP4 DUP4 PUSH1 0x40 MLOAD PUSH2 0x21F4 SWAP4 SWAP3 SWAP2 SWAP1 PUSH2 0x4833 JUMP JUMPDEST PUSH1 0x40 MLOAD DUP1 SWAP2 SUB SWAP1 LOG1 POP POP POP JUMP JUMPDEST PUSH1 0x6 PUSH0 SWAP1 SLOAD SWAP1 PUSH2 0x100 EXP SWAP1 DIV PUSH1 0xFF AND DUP2 JUMP JUMPDEST PUSH2 0x221B PUSH2 0x24A7 JUMP JUMPDEST DUP1 PUSH1 0xC DUP2 SWAP1 SSTORE POP POP JUMP JUMPDEST PUSH2 0x222D PUSH2 0x24A7 JUMP JUMPDEST PUSH0 PUSH20 0xFFFFFFFFFFFFFFFFFFFFFFFFFFFFFFFFFFFFFFFF AND DUP2 PUSH20 0xFFFFFFFFFFFFFFFFFFFFFFFFFFFFFFFFFFFFFFFF AND SUB PUSH2 0x229D JUMPI PUSH0 PUSH1 0x40 MLOAD PUSH32 0x1E4FBDF700000000000000000000000000000000000000000000000000000000 DUP2 MSTORE PUSH1 0x4 ADD PUSH2 0x2294 SWAP2 SWAP1 PUSH2 0x406B JUMP JUMPDEST PUSH1 0x40 MLOAD DUP1 SWAP2 SUB SWAP1 REVERT JUMPDEST PUSH2 0x22A6 DUP2 PUSH2 0x28AF JUMP JUMPDEST POP JUMP JUMPDEST PUSH1 0x60 PUSH32 0x0 PUSH20 0xFFFFFFFFFFFFFFFFFFFFFFFFFFFFFFFFFFFFFFFF AND PUSH4 0xF5ECBDBC DUP7 DUP7 ADDRESS DUP7 PUSH1 0x40 MLOAD DUP6 PUSH4 0xFFFFFFFF AND PUSH1 0xE0 SHL DUP2 MSTORE PUSH1 0x4 ADD PUSH2 0x230A SWAP5 SWAP4 SWAP3 SWAP2 SWAP1 PUSH2 0x5028 JUMP JUMPDEST PUSH0 PUSH1 0x40 MLOAD DUP1 DUP4 SUB DUP2 DUP7 GAS STATICCALL ISZERO DUP1 ISZERO PUSH2 0x2324 JUMPI RETURNDATASIZE PUSH0 DUP1 RETURNDATACOPY RETURNDATASIZE PUSH0 REVERT JUMPDEST POP POP POP POP PUSH1 0x40 MLOAD RETURNDATASIZE PUSH0 DUP3 RETURNDATACOPY RETURNDATASIZE PUSH1 0x1F NOT PUSH1 0x1F DUP3 ADD AND DUP3 ADD DUP1 PUSH1 0x40 MSTORE POP DUP2 ADD SWAP1 PUSH2 0x234C SWAP2 SWAP1 PUSH2 0x50D9 JUMP JUMPDEST SWAP1 POP SWAP5 SWAP4 POP POP POP POP JUMP JUMPDEST PUSH0 ADDRESS SWAP1 POP SWAP1 JUMP JUMPDEST PUSH0 CALLER SWAP1 POP SWAP1 JUMP JUMPDEST PUSH0 DUP1 PUSH2 0x240F GAS PUSH1 0x96 PUSH4 0x66AD5C8A PUSH1 0xE0 SHL DUP10 DUP10 DUP10 DUP10 PUSH1 0x40 MLOAD PUSH1 0x24 ADD PUSH2 0x238B SWAP5 SWAP4 SWAP3 SWAP2 SWAP1 PUSH2 0x5120 JUMP JUMPDEST PUSH1 0x40 MLOAD PUSH1 0x20 DUP2 DUP4 SUB SUB DUP2 MSTORE SWAP1 PUSH1 0x40 MSTORE SWAP1 PUSH28 0xFFFFFFFFFFFFFFFFFFFFFFFFFFFFFFFFFFFFFFFFFFFFFFFFFFFFFFFF NOT AND PUSH1 0x20 DUP3 ADD DUP1 MLOAD PUSH28 0xFFFFFFFFFFFFFFFFFFFFFFFFFFFFFFFFFFFFFFFFFFFFFFFFFFFFFFFF DUP4 DUP2 DUP4 AND OR DUP4 MSTORE POP POP POP POP ADDRESS PUSH20 0xFFFFFFFFFFFFFFFFFFFFFFFFFFFFFFFFFFFFFFFF AND PUSH2 0x2A8C SWAP1 SWAP4 SWAP3 SWAP2 SWAP1 PUSH4 0xFFFFFFFF AND JUMP JUMPDEST SWAP2 POP SWAP2 POP DUP2 PUSH2 0x2426 JUMPI PUSH2 0x2425 DUP7 DUP7 DUP7 DUP7 DUP6 PUSH2 0x2B1E JUMP JUMPDEST JUMPDEST POP POP POP POP POP POP JUMP JUMPDEST PUSH0 PUSH32 0x14E4CEEA00000000000000000000000000000000000000000000000000000000 PUSH28 0xFFFFFFFFFFFFFFFFFFFFFFFFFFFFFFFFFFFFFFFFFFFFFFFFFFFFFFFF NOT AND DUP3 PUSH28 0xFFFFFFFFFFFFFFFFFFFFFFFFFFFFFFFFFFFFFFFFFFFFFFFFFFFFFFFF NOT AND EQ DUP1 PUSH2 0x24A0 JUMPI POP PUSH2 0x249F DUP3 PUSH2 0x2BC8 JUMP JUMPDEST JUMPDEST SWAP1 POP SWAP2 SWAP1 POP JUMP JUMPDEST PUSH2 0x24AF PUSH2 0x235D JUMP JUMPDEST PUSH20 0xFFFFFFFFFFFFFFFFFFFFFFFFFFFFFFFFFFFFFFFF AND PUSH2 0x24CD PUSH2 0x1925 JUMP JUMPDEST PUSH20 0xFFFFFFFFFFFFFFFFFFFFFFFFFFFFFFFFFFFFFFFF AND EQ PUSH2 0x252C JUMPI PUSH2 0x24F0 PUSH2 0x235D JUMP JUMPDEST PUSH1 0x40 MLOAD PUSH32 0x118CDAA700000000000000000000000000000000000000000000000000000000 DUP2 MSTORE PUSH1 0x4 ADD PUSH2 0x2523 SWAP2 SWAP1 PUSH2 0x406B JUMP JUMPDEST PUSH1 0x40 MLOAD DUP1 SWAP2 SUB SWAP1 REVERT JUMPDEST JUMP JUMPDEST PUSH2 0x253B DUP4 DUP4 DUP4 PUSH1 0x1 PUSH2 0x2C31 JUMP JUMPDEST POP POP POP JUMP JUMPDEST PUSH0 PUSH2 0x254B DUP5 DUP5 PUSH2 0x1FF4 JUMP JUMPDEST SWAP1 POP PUSH32 0xFFFFFFFFFFFFFFFFFFFFFFFFFFFFFFFFFFFFFFFFFFFFFFFFFFFFFFFFFFFFFFFF DUP2 EQ PUSH2 0x25CC JUMPI DUP2 DUP2 LT ISZERO PUSH2 0x25BD JUMPI DUP3 DUP2 DUP4 PUSH1 0x40 MLOAD PUSH32 0xFB8F41B200000000000000000000000000000000000000000000000000000000 DUP2 MSTORE PUSH1 0x4 ADD PUSH2 0x25B4 SWAP4 SWAP3 SWAP2 SWAP1 PUSH2 0x49EB JUMP JUMPDEST PUSH1 0x40 MLOAD DUP1 SWAP2 SUB SWAP1 REVERT JUMPDEST PUSH2 0x25CB DUP5 DUP5 DUP5 DUP5 SUB PUSH0 PUSH2 0x2C31 JUMP JUMPDEST JUMPDEST POP POP POP POP JUMP JUMPDEST PUSH0 PUSH20 0xFFFFFFFFFFFFFFFFFFFFFFFFFFFFFFFFFFFFFFFF AND DUP4 PUSH20 0xFFFFFFFFFFFFFFFFFFFFFFFFFFFFFFFFFFFFFFFF AND SUB PUSH2 0x2642 JUMPI PUSH0 PUSH1 0x40 MLOAD PUSH32 0x96C6FD1E00000000000000000000000000000000000000000000000000000000 DUP2 MSTORE PUSH1 0x4 ADD PUSH2 0x2639 SWAP2 SWAP1 PUSH2 0x406B JUMP JUMPDEST PUSH1 0x40 MLOAD DUP1 SWAP2 SUB SWAP1 REVERT JUMPDEST PUSH0 PUSH20 0xFFFFFFFFFFFFFFFFFFFFFFFFFFFFFFFFFFFFFFFF AND DUP3 PUSH20 0xFFFFFFFFFFFFFFFFFFFFFFFFFFFFFFFFFFFFFFFF AND SUB PUSH2 0x26B2 JUMPI PUSH0 PUSH1 0x40 MLOAD PUSH32 0xEC442F0500000000000000000000000000000000000000000000000000000000 DUP2 MSTORE PUSH1 0x4 ADD PUSH2 0x26A9 SWAP2 SWAP1 PUSH2 0x406B JUMP JUMPDEST PUSH1 0x40 MLOAD DUP1 SWAP2 SUB SWAP1 REVERT JUMPDEST PUSH2 0x26BD DUP4 DUP4 DUP4 PUSH2 0x2E00 JUMP JUMPDEST POP POP POP JUMP JUMPDEST PUSH0 PUSH20 0xFFFFFFFFFFFFFFFFFFFFFFFFFFFFFFFFFFFFFFFF AND DUP3 PUSH20 0xFFFFFFFFFFFFFFFFFFFFFFFFFFFFFFFFFFFFFFFF AND SUB PUSH2 0x2732 JUMPI PUSH0 PUSH1 0x40 MLOAD PUSH32 0xEC442F0500000000000000000000000000000000000000000000000000000000 DUP2 MSTORE PUSH1 0x4 ADD PUSH2 0x2729 SWAP2 SWAP1 PUSH2 0x406B JUMP JUMPDEST PUSH1 0x40 MLOAD DUP1 SWAP2 SUB SWAP1 REVERT JUMPDEST PUSH2 0x273D PUSH0 DUP4 DUP4 PUSH2 0x2E00 JUMP JUMPDEST POP POP JUMP JUMPDEST PUSH2 0x274D DUP7 PUSH0 DUP4 PUSH0 PUSH2 0x301C JUMP JUMPDEST PUSH0 PUSH2 0x275A DUP9 DUP9 DUP9 DUP9 PUSH2 0x308B JUMP JUMPDEST SWAP1 POP PUSH0 DUP1 DUP8 DUP4 PUSH1 0x40 MLOAD PUSH1 0x20 ADD PUSH2 0x2772 SWAP4 SWAP3 SWAP2 SWAP1 PUSH2 0x5171 JUMP JUMPDEST PUSH1 0x40 MLOAD PUSH1 0x20 DUP2 DUP4 SUB SUB DUP2 MSTORE SWAP1 PUSH1 0x40 MSTORE SWAP1 POP PUSH0 PUSH2 0x2790 DUP10 DUP4 PUSH0 DUP8 PUSH2 0x1763 JUMP JUMPDEST POP SWAP1 POP DUP1 CALLVALUE LT ISZERO PUSH2 0x27D6 JUMPI PUSH1 0x40 MLOAD PUSH32 0x8C379A000000000000000000000000000000000000000000000000000000000 DUP2 MSTORE PUSH1 0x4 ADD PUSH2 0x27CD SWAP1 PUSH2 0x51F7 JUMP JUMPDEST PUSH1 0x40 MLOAD DUP1 SWAP2 SUB SWAP1 REVERT JUMPDEST PUSH2 0x27E4 DUP10 DUP4 DUP9 DUP9 DUP9 DUP7 PUSH2 0x30EC JUMP JUMPDEST DUP10 PUSH20 0xFFFFFFFFFFFFFFFFFFFFFFFFFFFFFFFFFFFFFFFF AND DUP10 PUSH2 0xFFFF AND PUSH32 0x39A4C66499BCF4B56D79F0DDE8ED7A9D4925A0DF55825206B2B8531E202BE0D0 DUP11 DUP7 PUSH1 0x40 MLOAD PUSH2 0x2831 SWAP3 SWAP2 SWAP1 PUSH2 0x5215 JUMP JUMPDEST PUSH1 0x40 MLOAD DUP1 SWAP2 SUB SWAP1 LOG3 POP POP POP POP POP POP POP POP POP POP JUMP JUMPDEST PUSH0 PUSH1 0x20 DUP3 ADD MLOAD SWAP1 POP PUSH0 PUSH2 0xFFFF AND DUP2 PUSH2 0xFFFF AND SUB PUSH2 0x286D JUMPI PUSH2 0x2868 DUP6 DUP6 DUP6 DUP6 PUSH2 0x3278 JUMP JUMPDEST PUSH2 0x28A8 JUMP JUMPDEST PUSH1 0x40 MLOAD PUSH32 0x8C379A000000000000000000000000000000000000000000000000000000000 DUP2 MSTORE PUSH1 0x4 ADD PUSH2 0x289F SWAP1 PUSH2 0x528D JUMP JUMPDEST PUSH1 0x40 MLOAD DUP1 SWAP2 SUB SWAP1 REVERT JUMPDEST POP POP POP POP POP JUMP JUMPDEST PUSH0 DUP1 PUSH0 SWAP1 SLOAD SWAP1 PUSH2 0x100 EXP SWAP1 DIV PUSH20 0xFFFFFFFFFFFFFFFFFFFFFFFFFFFFFFFFFFFFFFFF AND SWAP1 POP DUP2 PUSH0 DUP1 PUSH2 0x100 EXP DUP2 SLOAD DUP2 PUSH20 0xFFFFFFFFFFFFFFFFFFFFFFFFFFFFFFFFFFFFFFFF MUL NOT AND SWAP1 DUP4 PUSH20 0xFFFFFFFFFFFFFFFFFFFFFFFFFFFFFFFFFFFFFFFF AND MUL OR SWAP1 SSTORE POP DUP2 PUSH20 0xFFFFFFFFFFFFFFFFFFFFFFFFFFFFFFFFFFFFFFFF AND DUP2 PUSH20 0xFFFFFFFFFFFFFFFFFFFFFFFFFFFFFFFFFFFFFFFF AND PUSH32 0x8BE0079C531659141344CD1FD0A4F28419497F9722A3DAAFE3B4186F6B6457E0 PUSH1 0x40 MLOAD PUSH1 0x40 MLOAD DUP1 SWAP2 SUB SWAP1 LOG3 POP POP JUMP JUMPDEST PUSH1 0x60 DUP2 PUSH1 0x1F DUP4 PUSH2 0x2980 SWAP2 SWAP1 PUSH2 0x45A7 JUMP JUMPDEST LT ISZERO PUSH2 0x29C1 JUMPI PUSH1 0x40 MLOAD PUSH32 0x8C379A000000000000000000000000000000000000000000000000000000000 DUP2 MSTORE PUSH1 0x4 ADD PUSH2 0x29B8 SWAP1 PUSH2 0x52F5 JUMP JUMPDEST PUSH1 0x40 MLOAD DUP1 SWAP2 SUB SWAP1 REVERT JUMPDEST DUP2 DUP4 PUSH2 0x29CD SWAP2 SWAP1 PUSH2 0x45A7 JUMP JUMPDEST DUP5 MLOAD LT ISZERO PUSH2 0x2A10 JUMPI PUSH1 0x40 MLOAD PUSH32 0x8C379A000000000000000000000000000000000000000000000000000000000 DUP2 MSTORE PUSH1 0x4 ADD PUSH2 0x2A07 SWAP1 PUSH2 0x535D JUMP JUMPDEST PUSH1 0x40 MLOAD DUP1 SWAP2 SUB SWAP1 REVERT JUMPDEST PUSH1 0x60 DUP3 ISZERO PUSH0 DUP2 EQ PUSH2 0x2A2F JUMPI PUSH1 0x40 MLOAD SWAP2 POP PUSH0 DUP3 MSTORE PUSH1 0x20 DUP3 ADD PUSH1 0x40 MSTORE PUSH2 0x2A80 JUMP JUMPDEST PUSH1 0x40 MLOAD SWAP2 POP PUSH1 0x1F DUP5 AND DUP1 ISZERO PUSH1 0x20 MUL DUP2 DUP5 ADD ADD DUP6 DUP2 ADD DUP8 DUP4 ISZERO PUSH1 0x20 MUL DUP5 DUP12 ADD ADD ADD JUMPDEST DUP2 DUP4 LT ISZERO PUSH2 0x2A6D JUMPI DUP1 MLOAD DUP4 MSTORE PUSH1 0x20 DUP4 ADD SWAP3 POP PUSH1 0x20 DUP2 ADD SWAP1 POP PUSH2 0x2A50 JUMP JUMPDEST POP DUP7 DUP6 MSTORE PUSH1 0x1F NOT PUSH1 0x1F DUP4 ADD AND PUSH1 0x40 MSTORE POP POP POP JUMPDEST POP DUP1 SWAP2 POP POP SWAP4 SWAP3 POP POP POP JUMP JUMPDEST PUSH0 PUSH1 0x60 PUSH0 DUP1 PUSH0 DUP7 PUSH2 0xFFFF AND PUSH8 0xFFFFFFFFFFFFFFFF DUP2 GT ISZERO PUSH2 0x2AB0 JUMPI PUSH2 0x2AAF PUSH2 0x3D24 JUMP JUMPDEST JUMPDEST PUSH1 0x40 MLOAD SWAP1 DUP1 DUP3 MSTORE DUP1 PUSH1 0x1F ADD PUSH1 0x1F NOT AND PUSH1 0x20 ADD DUP3 ADD PUSH1 0x40 MSTORE DUP1 ISZERO PUSH2 0x2AE2 JUMPI DUP2 PUSH1 0x20 ADD PUSH1 0x1 DUP3 MUL DUP1 CALLDATASIZE DUP4 CALLDATACOPY DUP1 DUP3 ADD SWAP2 POP POP SWAP1 POP JUMPDEST POP SWAP1 POP PUSH0 DUP1 DUP8 MLOAD PUSH1 0x20 DUP10 ADD PUSH0 DUP14 DUP14 CALL SWAP2 POP RETURNDATASIZE SWAP3 POP DUP7 DUP4 GT ISZERO PUSH2 0x2B02 JUMPI DUP7 SWAP3 POP JUMPDEST DUP3 DUP2 MSTORE DUP3 PUSH0 PUSH1 0x20 DUP4 ADD RETURNDATACOPY DUP2 DUP2 SWAP5 POP SWAP5 POP POP POP POP SWAP5 POP SWAP5 SWAP3 POP POP POP JUMP JUMPDEST DUP2 DUP1 MLOAD SWAP1 PUSH1 0x20 ADD KECCAK256 PUSH1 0x5 PUSH0 DUP8 PUSH2 0xFFFF AND PUSH2 0xFFFF AND DUP2 MSTORE PUSH1 0x20 ADD SWAP1 DUP2 MSTORE PUSH1 0x20 ADD PUSH0 KECCAK256 DUP6 PUSH1 0x40 MLOAD PUSH2 0x2B4D SWAP2 SWAP1 PUSH2 0x53AB JUMP JUMPDEST SWAP1 DUP2 MSTORE PUSH1 0x20 ADD PUSH1 0x40 MLOAD DUP1 SWAP2 SUB SWAP1 KECCAK256 PUSH0 DUP6 PUSH8 0xFFFFFFFFFFFFFFFF AND PUSH8 0xFFFFFFFFFFFFFFFF AND DUP2 MSTORE PUSH1 0x20 ADD SWAP1 DUP2 MSTORE PUSH1 0x20 ADD PUSH0 KECCAK256 DUP2 SWAP1 SSTORE POP PUSH32 0xE183F33DE2837795525B4792CA4CD60535BD77C53B7E7030060BFCF5734D6B0C DUP6 DUP6 DUP6 DUP6 DUP6 PUSH1 0x40 MLOAD PUSH2 0x2BB9 SWAP6 SWAP5 SWAP4 SWAP3 SWAP2 SWAP1 PUSH2 0x53C1 JUMP JUMPDEST PUSH1 0x40 MLOAD DUP1 SWAP2 SUB SWAP1 LOG1 POP POP POP POP POP JUMP JUMPDEST PUSH0 PUSH32 0x1FFC9A700000000000000000000000000000000000000000000000000000000 PUSH28 0xFFFFFFFFFFFFFFFFFFFFFFFFFFFFFFFFFFFFFFFFFFFFFFFFFFFFFFFF NOT AND DUP3 PUSH28 0xFFFFFFFFFFFFFFFFFFFFFFFFFFFFFFFFFFFFFFFFFFFFFFFFFFFFFFFF NOT AND EQ SWAP1 POP SWAP2 SWAP1 POP JUMP JUMPDEST PUSH0 PUSH20 0xFFFFFFFFFFFFFFFFFFFFFFFFFFFFFFFFFFFFFFFF AND DUP5 PUSH20 0xFFFFFFFFFFFFFFFFFFFFFFFFFFFFFFFFFFFFFFFF AND SUB PUSH2 0x2CA1 JUMPI PUSH0 PUSH1 0x40 MLOAD PUSH32 0xE602DF0500000000000000000000000000000000000000000000000000000000 DUP2 MSTORE PUSH1 0x4 ADD PUSH2 0x2C98 SWAP2 SWAP1 PUSH2 0x406B JUMP JUMPDEST PUSH1 0x40 MLOAD DUP1 SWAP2 SUB SWAP1 REVERT JUMPDEST PUSH0 PUSH20 0xFFFFFFFFFFFFFFFFFFFFFFFFFFFFFFFFFFFFFFFF AND DUP4 PUSH20 0xFFFFFFFFFFFFFFFFFFFFFFFFFFFFFFFFFFFFFFFF AND SUB PUSH2 0x2D11 JUMPI PUSH0 PUSH1 0x40 MLOAD PUSH32 0x94280D6200000000000000000000000000000000000000000000000000000000 DUP2 MSTORE PUSH1 0x4 ADD PUSH2 0x2D08 SWAP2 SWAP1 PUSH2 0x406B JUMP JUMPDEST PUSH1 0x40 MLOAD DUP1 SWAP2 SUB SWAP1 REVERT JUMPDEST DUP2 PUSH1 0x8 PUSH0 DUP7 PUSH20 0xFFFFFFFFFFFFFFFFFFFFFFFFFFFFFFFFFFFFFFFF AND PUSH20 0xFFFFFFFFFFFFFFFFFFFFFFFFFFFFFFFFFFFFFFFF AND DUP2 MSTORE PUSH1 0x20 ADD SWAP1 DUP2 MSTORE PUSH1 0x20 ADD PUSH0 KECCAK256 PUSH0 DUP6 PUSH20 0xFFFFFFFFFFFFFFFFFFFFFFFFFFFFFFFFFFFFFFFF AND PUSH20 0xFFFFFFFFFFFFFFFFFFFFFFFFFFFFFFFFFFFFFFFF AND DUP2 MSTORE PUSH1 0x20 ADD SWAP1 DUP2 MSTORE PUSH1 0x20 ADD PUSH0 KECCAK256 DUP2 SWAP1 SSTORE POP DUP1 ISZERO PUSH2 0x2DFA JUMPI DUP3 PUSH20 0xFFFFFFFFFFFFFFFFFFFFFFFFFFFFFFFFFFFFFFFF AND DUP5 PUSH20 0xFFFFFFFFFFFFFFFFFFFFFFFFFFFFFFFFFFFFFFFF AND PUSH32 0x8C5BE1E5EBEC7D5BD14F71427D1E84F3DD0314C0F7B2291E5B200AC8C7C3B925 DUP5 PUSH1 0x40 MLOAD PUSH2 0x2DF1 SWAP2 SWAP1 PUSH2 0x39DF JUMP JUMPDEST PUSH1 0x40 MLOAD DUP1 SWAP2 SUB SWAP1 LOG3 JUMPDEST POP POP POP POP JUMP JUMPDEST PUSH0 PUSH20 0xFFFFFFFFFFFFFFFFFFFFFFFFFFFFFFFFFFFFFFFF AND DUP4 PUSH20 0xFFFFFFFFFFFFFFFFFFFFFFFFFFFFFFFFFFFFFFFF AND SUB PUSH2 0x2E50 JUMPI DUP1 PUSH1 0x9 PUSH0 DUP3 DUP3 SLOAD PUSH2 0x2E44 SWAP2 SWAP1 PUSH2 0x45A7 JUMP JUMPDEST SWAP3 POP POP DUP2 SWAP1 SSTORE POP PUSH2 0x2F20 JUMP JUMPDEST PUSH0 PUSH1 0x7 PUSH0 DUP6 PUSH20 0xFFFFFFFFFFFFFFFFFFFFFFFFFFFFFFFFFFFFFFFF AND PUSH20 0xFFFFFFFFFFFFFFFFFFFFFFFFFFFFFFFFFFFFFFFF AND DUP2 MSTORE PUSH1 0x20 ADD SWAP1 DUP2 MSTORE PUSH1 0x20 ADD PUSH0 KECCAK256 SLOAD SWAP1 POP DUP2 DUP2 LT ISZERO PUSH2 0x2EDA JUMPI DUP4 DUP2 DUP4 PUSH1 0x40 MLOAD PUSH32 0xE450D38C00000000000000000000000000000000000000000000000000000000 DUP2 MSTORE PUSH1 0x4 ADD PUSH2 0x2ED1 SWAP4 SWAP3 SWAP2 SWAP1 PUSH2 0x49EB JUMP JUMPDEST PUSH1 0x40 MLOAD DUP1 SWAP2 SUB SWAP1 REVERT JUMPDEST DUP2 DUP2 SUB PUSH1 0x7 PUSH0 DUP7 PUSH20 0xFFFFFFFFFFFFFFFFFFFFFFFFFFFFFFFFFFFFFFFF AND PUSH20 0xFFFFFFFFFFFFFFFFFFFFFFFFFFFFFFFFFFFFFFFF AND DUP2 MSTORE PUSH1 0x20 ADD SWAP1 DUP2 MSTORE PUSH1 0x20 ADD PUSH0 KECCAK256 DUP2 SWAP1 SSTORE POP POP JUMPDEST PUSH0 PUSH20 0xFFFFFFFFFFFFFFFFFFFFFFFFFFFFFFFFFFFFFFFF AND DUP3 PUSH20 0xFFFFFFFFFFFFFFFFFFFFFFFFFFFFFFFFFFFFFFFF AND SUB PUSH2 0x2F67 JUMPI DUP1 PUSH1 0x9 PUSH0 DUP3 DUP3 SLOAD SUB SWAP3 POP POP DUP2 SWAP1 SSTORE POP PUSH2 0x2FB2 JUMP JUMPDEST DUP1 PUSH1 0x7 PUSH0 DUP5 PUSH20 0xFFFFFFFFFFFFFFFFFFFFFFFFFFFFFFFFFFFFFFFF AND PUSH20 0xFFFFFFFFFFFFFFFFFFFFFFFFFFFFFFFFFFFFFFFF AND DUP2 MSTORE PUSH1 0x20 ADD SWAP1 DUP2 MSTORE PUSH1 0x20 ADD PUSH0 KECCAK256 PUSH0 DUP3 DUP3 SLOAD ADD SWAP3 POP POP DUP2 SWAP1 SSTORE POP JUMPDEST DUP2 PUSH20 0xFFFFFFFFFFFFFFFFFFFFFFFFFFFFFFFFFFFFFFFF AND DUP4 PUSH20 0xFFFFFFFFFFFFFFFFFFFFFFFFFFFFFFFFFFFFFFFF AND PUSH32 0xDDF252AD1BE2C89B69C2B068FC378DAA952BA7F163C4A11628F55A4DF523B3EF DUP4 PUSH1 0x40 MLOAD PUSH2 0x300F SWAP2 SWAP1 PUSH2 0x39DF JUMP JUMPDEST PUSH1 0x40 MLOAD DUP1 SWAP2 SUB SWAP1 LOG3 POP POP POP JUMP JUMPDEST PUSH1 0x6 PUSH0 SWAP1 SLOAD SWAP1 PUSH2 0x100 EXP SWAP1 DIV PUSH1 0xFF AND ISZERO PUSH2 0x3041 JUMPI PUSH2 0x303C DUP5 DUP5 DUP5 DUP5 PUSH2 0x3312 JUMP JUMPDEST PUSH2 0x3085 JUMP JUMPDEST PUSH0 DUP3 MLOAD EQ PUSH2 0x3084 JUMPI PUSH1 0x40 MLOAD PUSH32 0x8C379A000000000000000000000000000000000000000000000000000000000 DUP2 MSTORE PUSH1 0x4 ADD PUSH2 0x307B SWAP1 PUSH2 0x5497 JUMP JUMPDEST PUSH1 0x40 MLOAD DUP1 SWAP2 SUB SWAP1 REVERT JUMPDEST JUMPDEST POP POP POP POP JUMP JUMPDEST PUSH0 DUP1 PUSH2 0x3095 PUSH2 0x235D JUMP JUMPDEST SWAP1 POP DUP1 PUSH20 0xFFFFFFFFFFFFFFFFFFFFFFFFFFFFFFFFFFFFFFFF AND DUP7 PUSH20 0xFFFFFFFFFFFFFFFFFFFFFFFFFFFFFFFFFFFFFFFF AND EQ PUSH2 0x30D6 JUMPI PUSH2 0x30D5 DUP7 DUP3 DUP6 PUSH2 0x2540 JUMP JUMPDEST JUMPDEST PUSH2 0x30E0 DUP7 DUP5 PUSH2 0x33EA JUMP JUMPDEST DUP3 SWAP2 POP POP SWAP5 SWAP4 POP POP POP POP JUMP JUMPDEST PUSH0 PUSH1 0x1 PUSH0 DUP9 PUSH2 0xFFFF AND PUSH2 0xFFFF AND DUP2 MSTORE PUSH1 0x20 ADD SWAP1 DUP2 MSTORE PUSH1 0x20 ADD PUSH0 KECCAK256 DUP1 SLOAD PUSH2 0x3111 SWAP1 PUSH2 0x4359 JUMP JUMPDEST DUP1 PUSH1 0x1F ADD PUSH1 0x20 DUP1 SWAP2 DIV MUL PUSH1 0x20 ADD PUSH1 0x40 MLOAD SWAP1 DUP2 ADD PUSH1 0x40 MSTORE DUP1 SWAP3 SWAP2 SWAP1 DUP2 DUP2 MSTORE PUSH1 0x20 ADD DUP3 DUP1 SLOAD PUSH2 0x313D SWAP1 PUSH2 0x4359 JUMP JUMPDEST DUP1 ISZERO PUSH2 0x3188 JUMPI DUP1 PUSH1 0x1F LT PUSH2 0x315F JUMPI PUSH2 0x100 DUP1 DUP4 SLOAD DIV MUL DUP4 MSTORE SWAP2 PUSH1 0x20 ADD SWAP2 PUSH2 0x3188 JUMP JUMPDEST DUP3 ADD SWAP2 SWAP1 PUSH0 MSTORE PUSH1 0x20 PUSH0 KECCAK256 SWAP1 JUMPDEST DUP2 SLOAD DUP2 MSTORE SWAP1 PUSH1 0x1 ADD SWAP1 PUSH1 0x20 ADD DUP1 DUP4 GT PUSH2 0x316B JUMPI DUP3 SWAP1 SUB PUSH1 0x1F AND DUP3 ADD SWAP2 JUMPDEST POP POP POP POP POP SWAP1 POP PUSH0 DUP2 MLOAD SUB PUSH2 0x31D2 JUMPI PUSH1 0x40 MLOAD PUSH32 0x8C379A000000000000000000000000000000000000000000000000000000000 DUP2 MSTORE PUSH1 0x4 ADD PUSH2 0x31C9 SWAP1 PUSH2 0x5525 JUMP JUMPDEST PUSH1 0x40 MLOAD DUP1 SWAP2 SUB SWAP1 REVERT JUMPDEST PUSH2 0x31DD DUP8 DUP8 MLOAD PUSH2 0x3469 JUMP JUMPDEST PUSH32 0x0 PUSH20 0xFFFFFFFFFFFFFFFFFFFFFFFFFFFFFFFFFFFFFFFF AND PUSH4 0xC5803100 DUP4 DUP10 DUP5 DUP11 DUP11 DUP11 DUP11 PUSH1 0x40 MLOAD DUP9 PUSH4 0xFFFFFFFF AND PUSH1 0xE0 SHL DUP2 MSTORE PUSH1 0x4 ADD PUSH2 0x3241 SWAP7 SWAP6 SWAP5 SWAP4 SWAP3 SWAP2 SWAP1 PUSH2 0x5552 JUMP JUMPDEST PUSH0 PUSH1 0x40 MLOAD DUP1 DUP4 SUB DUP2 DUP6 DUP9 DUP1 EXTCODESIZE ISZERO DUP1 ISZERO PUSH2 0x3258 JUMPI PUSH0 DUP1 REVERT JUMPDEST POP GAS CALL ISZERO DUP1 ISZERO PUSH2 0x326A JUMPI RETURNDATASIZE PUSH0 DUP1 RETURNDATACOPY RETURNDATASIZE PUSH0 REVERT JUMPDEST POP POP POP POP POP POP POP POP POP POP POP POP JUMP JUMPDEST PUSH0 DUP1 DUP3 DUP1 PUSH1 0x20 ADD SWAP1 MLOAD DUP2 ADD SWAP1 PUSH2 0x328E SWAP2 SWAP1 PUSH2 0x55DA JUMP JUMPDEST SWAP3 POP SWAP3 POP POP PUSH0 PUSH2 0x32A7 PUSH0 DUP5 PUSH2 0x34DB SWAP1 SWAP2 SWAP1 PUSH4 0xFFFFFFFF AND JUMP JUMPDEST SWAP1 POP PUSH2 0x32B4 DUP8 DUP3 DUP5 PUSH2 0x354F JUMP JUMPDEST SWAP2 POP DUP1 PUSH20 0xFFFFFFFFFFFFFFFFFFFFFFFFFFFFFFFFFFFFFFFF AND DUP8 PUSH2 0xFFFF AND PUSH32 0xBF551EC93859B170F9B2141BD9298BF3F64322C6F7BEB2543A0CB669834118BF DUP5 PUSH1 0x40 MLOAD PUSH2 0x3301 SWAP2 SWAP1 PUSH2 0x39DF JUMP JUMPDEST PUSH1 0x40 MLOAD DUP1 SWAP2 SUB SWAP1 LOG3 POP POP POP POP POP POP POP JUMP JUMPDEST PUSH0 PUSH2 0x331C DUP4 PUSH2 0x3564 JUMP JUMPDEST SWAP1 POP PUSH0 DUP3 PUSH1 0x2 PUSH0 DUP9 PUSH2 0xFFFF AND PUSH2 0xFFFF AND DUP2 MSTORE PUSH1 0x20 ADD SWAP1 DUP2 MSTORE PUSH1 0x20 ADD PUSH0 KECCAK256 PUSH0 DUP8 PUSH2 0xFFFF AND PUSH2 0xFFFF AND DUP2 MSTORE PUSH1 0x20 ADD SWAP1 DUP2 MSTORE PUSH1 0x20 ADD PUSH0 KECCAK256 SLOAD PUSH2 0x335B SWAP2 SWAP1 PUSH2 0x45A7 JUMP JUMPDEST SWAP1 POP PUSH0 DUP2 GT PUSH2 0x339F JUMPI PUSH1 0x40 MLOAD PUSH32 0x8C379A000000000000000000000000000000000000000000000000000000000 DUP2 MSTORE PUSH1 0x4 ADD PUSH2 0x3396 SWAP1 PUSH2 0x5690 JUMP JUMPDEST PUSH1 0x40 MLOAD DUP1 SWAP2 SUB SWAP1 REVERT JUMPDEST DUP1 DUP3 LT ISZERO PUSH2 0x33E2 JUMPI PUSH1 0x40 MLOAD PUSH32 0x8C379A000000000000000000000000000000000000000000000000000000000 DUP2 MSTORE PUSH1 0x4 ADD PUSH2 0x33D9 SWAP1 PUSH2 0x56F8 JUMP JUMPDEST PUSH1 0x40 MLOAD DUP1 SWAP2 SUB SWAP1 REVERT JUMPDEST POP POP POP POP POP POP JUMP JUMPDEST PUSH0 PUSH20 0xFFFFFFFFFFFFFFFFFFFFFFFFFFFFFFFFFFFFFFFF AND DUP3 PUSH20 0xFFFFFFFFFFFFFFFFFFFFFFFFFFFFFFFFFFFFFFFF AND SUB PUSH2 0x345A JUMPI PUSH0 PUSH1 0x40 MLOAD PUSH32 0x96C6FD1E00000000000000000000000000000000000000000000000000000000 DUP2 MSTORE PUSH1 0x4 ADD PUSH2 0x3451 SWAP2 SWAP1 PUSH2 0x406B JUMP JUMPDEST PUSH1 0x40 MLOAD DUP1 SWAP2 SUB SWAP1 REVERT JUMPDEST PUSH2 0x3465 DUP3 PUSH0 DUP4 PUSH2 0x2E00 JUMP JUMPDEST POP POP JUMP JUMPDEST PUSH0 PUSH1 0x3 PUSH0 DUP5 PUSH2 0xFFFF AND PUSH2 0xFFFF AND DUP2 MSTORE PUSH1 0x20 ADD SWAP1 DUP2 MSTORE PUSH1 0x20 ADD PUSH0 KECCAK256 SLOAD SWAP1 POP PUSH0 DUP2 SUB PUSH2 0x3493 JUMPI PUSH2 0x2710 SWAP1 POP JUMPDEST DUP1 DUP3 GT ISZERO PUSH2 0x34D6 JUMPI PUSH1 0x40 MLOAD PUSH32 0x8C379A000000000000000000000000000000000000000000000000000000000 DUP2 MSTORE PUSH1 0x4 ADD PUSH2 0x34CD SWAP1 PUSH2 0x5760 JUMP JUMPDEST PUSH1 0x40 MLOAD DUP1 SWAP2 SUB SWAP1 REVERT JUMPDEST POP POP POP JUMP JUMPDEST PUSH0 PUSH1 0x14 DUP3 PUSH2 0x34E9 SWAP2 SWAP1 PUSH2 0x45A7 JUMP JUMPDEST DUP4 MLOAD LT ISZERO PUSH2 0x352C JUMPI PUSH1 0x40 MLOAD PUSH32 0x8C379A000000000000000000000000000000000000000000000000000000000 DUP2 MSTORE PUSH1 0x4 ADD PUSH2 0x3523 SWAP1 PUSH2 0x57C8 JUMP JUMPDEST PUSH1 0x40 MLOAD DUP1 SWAP2 SUB SWAP1 REVERT JUMPDEST PUSH0 PUSH13 0x1000000000000000000000000 DUP4 PUSH1 0x20 DUP7 ADD ADD MLOAD DIV SWAP1 POP DUP1 SWAP2 POP POP SWAP3 SWAP2 POP POP JUMP JUMPDEST PUSH0 PUSH2 0x355A DUP4 DUP4 PUSH2 0x26C2 JUMP JUMPDEST DUP2 SWAP1 POP SWAP4 SWAP3 POP POP POP JUMP JUMPDEST PUSH0 PUSH1 0x22 DUP3 MLOAD LT ISZERO PUSH2 0x35AA JUMPI PUSH1 0x40 MLOAD PUSH32 0x8C379A000000000000000000000000000000000000000000000000000000000 DUP2 MSTORE PUSH1 0x4 ADD PUSH2 0x35A1 SWAP1 PUSH2 0x5830 JUMP JUMPDEST PUSH1 0x40 MLOAD DUP1 SWAP2 SUB SWAP1 REVERT JUMPDEST PUSH1 0x22 DUP3 ADD MLOAD SWAP1 POP SWAP2 SWAP1 POP JUMP JUMPDEST PUSH0 PUSH1 0x40 MLOAD SWAP1 POP SWAP1 JUMP JUMPDEST PUSH0 DUP1 REVERT JUMPDEST PUSH0 DUP1 REVERT JUMPDEST PUSH0 PUSH2 0xFFFF DUP3 AND SWAP1 POP SWAP2 SWAP1 POP JUMP JUMPDEST PUSH2 0x35DD DUP2 PUSH2 0x35C7 JUMP JUMPDEST DUP2 EQ PUSH2 0x35E7 JUMPI PUSH0 DUP1 REVERT JUMPDEST POP JUMP JUMPDEST PUSH0 DUP2 CALLDATALOAD SWAP1 POP PUSH2 0x35F8 DUP2 PUSH2 0x35D4 JUMP JUMPDEST SWAP3 SWAP2 POP POP JUMP JUMPDEST PUSH0 DUP1 REVERT JUMPDEST PUSH0 DUP1 REVERT JUMPDEST PUSH0 DUP1 REVERT JUMPDEST PUSH0 DUP1 DUP4 PUSH1 0x1F DUP5 ADD SLT PUSH2 0x361F JUMPI PUSH2 0x361E PUSH2 0x35FE JUMP JUMPDEST JUMPDEST DUP3 CALLDATALOAD SWAP1 POP PUSH8 0xFFFFFFFFFFFFFFFF DUP2 GT ISZERO PUSH2 0x363C JUMPI PUSH2 0x363B PUSH2 0x3602 JUMP JUMPDEST JUMPDEST PUSH1 0x20 DUP4 ADD SWAP2 POP DUP4 PUSH1 0x1 DUP3 MUL DUP4 ADD GT ISZERO PUSH2 0x3658 JUMPI PUSH2 0x3657 PUSH2 0x3606 JUMP JUMPDEST JUMPDEST SWAP3 POP SWAP3 SWAP1 POP JUMP JUMPDEST PUSH0 PUSH8 0xFFFFFFFFFFFFFFFF DUP3 AND SWAP1 POP SWAP2 SWAP1 POP JUMP JUMPDEST PUSH2 0x367B DUP2 PUSH2 0x365F JUMP JUMPDEST DUP2 EQ PUSH2 0x3685 JUMPI PUSH0 DUP1 REVERT JUMPDEST POP JUMP JUMPDEST PUSH0 DUP2 CALLDATALOAD SWAP1 POP PUSH2 0x3696 DUP2 PUSH2 0x3672 JUMP JUMPDEST SWAP3 SWAP2 POP POP JUMP JUMPDEST PUSH0 DUP1 PUSH0 DUP1 PUSH0 DUP1 PUSH1 0x80 DUP8 DUP10 SUB SLT ISZERO PUSH2 0x36B6 JUMPI PUSH2 0x36B5 PUSH2 0x35BF JUMP JUMPDEST JUMPDEST PUSH0 PUSH2 0x36C3 DUP10 DUP3 DUP11 ADD PUSH2 0x35EA JUMP JUMPDEST SWAP7 POP POP PUSH1 0x20 DUP8 ADD CALLDATALOAD PUSH8 0xFFFFFFFFFFFFFFFF DUP2 GT ISZERO PUSH2 0x36E4 JUMPI PUSH2 0x36E3 PUSH2 0x35C3 JUMP JUMPDEST JUMPDEST PUSH2 0x36F0 DUP10 DUP3 DUP11 ADD PUSH2 0x360A JUMP JUMPDEST SWAP6 POP SWAP6 POP POP PUSH1 0x40 PUSH2 0x3703 DUP10 DUP3 DUP11 ADD PUSH2 0x3688 JUMP JUMPDEST SWAP4 POP POP PUSH1 0x60 DUP8 ADD CALLDATALOAD PUSH8 0xFFFFFFFFFFFFFFFF DUP2 GT ISZERO PUSH2 0x3724 JUMPI PUSH2 0x3723 PUSH2 0x35C3 JUMP JUMPDEST JUMPDEST PUSH2 0x3730 DUP10 DUP3 DUP11 ADD PUSH2 0x360A JUMP JUMPDEST SWAP3 POP SWAP3 POP POP SWAP3 SWAP6 POP SWAP3 SWAP6 POP SWAP3 SWAP6 JUMP JUMPDEST PUSH0 PUSH32 0xFFFFFFFF00000000000000000000000000000000000000000000000000000000 DUP3 AND SWAP1 POP SWAP2 SWAP1 POP JUMP JUMPDEST PUSH2 0x3773 DUP2 PUSH2 0x373F JUMP JUMPDEST DUP2 EQ PUSH2 0x377D JUMPI PUSH0 DUP1 REVERT JUMPDEST POP JUMP JUMPDEST PUSH0 DUP2 CALLDATALOAD SWAP1 POP PUSH2 0x378E DUP2 PUSH2 0x376A JUMP JUMPDEST SWAP3 SWAP2 POP POP JUMP JUMPDEST PUSH0 PUSH1 0x20 DUP3 DUP5 SUB SLT ISZERO PUSH2 0x37A9 JUMPI PUSH2 0x37A8 PUSH2 0x35BF JUMP JUMPDEST JUMPDEST PUSH0 PUSH2 0x37B6 DUP5 DUP3 DUP6 ADD PUSH2 0x3780 JUMP JUMPDEST SWAP2 POP POP SWAP3 SWAP2 POP POP JUMP JUMPDEST PUSH0 DUP2 ISZERO ISZERO SWAP1 POP SWAP2 SWAP1 POP JUMP JUMPDEST PUSH2 0x37D3 DUP2 PUSH2 0x37BF JUMP JUMPDEST DUP3 MSTORE POP POP JUMP JUMPDEST PUSH0 PUSH1 0x20 DUP3 ADD SWAP1 POP PUSH2 0x37EC PUSH0 DUP4 ADD DUP5 PUSH2 0x37CA JUMP JUMPDEST SWAP3 SWAP2 POP POP JUMP JUMPDEST PUSH0 DUP2 MLOAD SWAP1 POP SWAP2 SWAP1 POP JUMP JUMPDEST PUSH0 DUP3 DUP3 MSTORE PUSH1 0x20 DUP3 ADD SWAP1 POP SWAP3 SWAP2 POP POP JUMP JUMPDEST PUSH0 JUMPDEST DUP4 DUP2 LT ISZERO PUSH2 0x3829 JUMPI DUP1 DUP3 ADD MLOAD DUP2 DUP5 ADD MSTORE PUSH1 0x20 DUP2 ADD SWAP1 POP PUSH2 0x380E JUMP JUMPDEST PUSH0 DUP5 DUP5 ADD MSTORE POP POP POP POP JUMP JUMPDEST PUSH0 PUSH1 0x1F NOT PUSH1 0x1F DUP4 ADD AND SWAP1 POP SWAP2 SWAP1 POP JUMP JUMPDEST PUSH0 PUSH2 0x384E DUP3 PUSH2 0x37F2 JUMP JUMPDEST PUSH2 0x3858 DUP2 DUP6 PUSH2 0x37FC JUMP JUMPDEST SWAP4 POP PUSH2 0x3868 DUP2 DUP6 PUSH1 0x20 DUP7 ADD PUSH2 0x380C JUMP JUMPDEST PUSH2 0x3871 DUP2 PUSH2 0x3834 JUMP JUMPDEST DUP5 ADD SWAP2 POP POP SWAP3 SWAP2 POP POP JUMP JUMPDEST PUSH0 PUSH1 0x20 DUP3 ADD SWAP1 POP DUP2 DUP2 SUB PUSH0 DUP4 ADD MSTORE PUSH2 0x3894 DUP2 DUP5 PUSH2 0x3844 JUMP JUMPDEST SWAP1 POP SWAP3 SWAP2 POP POP JUMP JUMPDEST PUSH0 PUSH1 0x20 DUP3 DUP5 SUB SLT ISZERO PUSH2 0x38B1 JUMPI PUSH2 0x38B0 PUSH2 0x35BF JUMP JUMPDEST JUMPDEST PUSH0 PUSH2 0x38BE DUP5 DUP3 DUP6 ADD PUSH2 0x35EA JUMP JUMPDEST SWAP2 POP POP SWAP3 SWAP2 POP POP JUMP JUMPDEST PUSH0 PUSH20 0xFFFFFFFFFFFFFFFFFFFFFFFFFFFFFFFFFFFFFFFF DUP3 AND SWAP1 POP SWAP2 SWAP1 POP JUMP JUMPDEST PUSH0 PUSH2 0x38F0 DUP3 PUSH2 0x38C7 JUMP JUMPDEST SWAP1 POP SWAP2 SWAP1 POP JUMP JUMPDEST PUSH2 0x3900 DUP2 PUSH2 0x38E6 JUMP JUMPDEST DUP2 EQ PUSH2 0x390A JUMPI PUSH0 DUP1 REVERT JUMPDEST POP JUMP JUMPDEST PUSH0 DUP2 CALLDATALOAD SWAP1 POP PUSH2 0x391B DUP2 PUSH2 0x38F7 JUMP JUMPDEST SWAP3 SWAP2 POP POP JUMP JUMPDEST PUSH0 DUP2 SWAP1 POP SWAP2 SWAP1 POP JUMP JUMPDEST PUSH2 0x3933 DUP2 PUSH2 0x3921 JUMP JUMPDEST DUP2 EQ PUSH2 0x393D JUMPI PUSH0 DUP1 REVERT JUMPDEST POP JUMP JUMPDEST PUSH0 DUP2 CALLDATALOAD SWAP1 POP PUSH2 0x394E DUP2 PUSH2 0x392A JUMP JUMPDEST SWAP3 SWAP2 POP POP JUMP JUMPDEST PUSH0 DUP1 PUSH1 0x40 DUP4 DUP6 SUB SLT ISZERO PUSH2 0x396A JUMPI PUSH2 0x3969 PUSH2 0x35BF JUMP JUMPDEST JUMPDEST PUSH0 PUSH2 0x3977 DUP6 DUP3 DUP7 ADD PUSH2 0x390D JUMP JUMPDEST SWAP3 POP POP PUSH1 0x20 PUSH2 0x3988 DUP6 DUP3 DUP7 ADD PUSH2 0x3940 JUMP JUMPDEST SWAP2 POP POP SWAP3 POP SWAP3 SWAP1 POP JUMP JUMPDEST PUSH0 DUP1 PUSH1 0x40 DUP4 DUP6 SUB SLT ISZERO PUSH2 0x39A8 JUMPI PUSH2 0x39A7 PUSH2 0x35BF JUMP JUMPDEST JUMPDEST PUSH0 PUSH2 0x39B5 DUP6 DUP3 DUP7 ADD PUSH2 0x35EA JUMP JUMPDEST SWAP3 POP POP PUSH1 0x20 PUSH2 0x39C6 DUP6 DUP3 DUP7 ADD PUSH2 0x3940 JUMP JUMPDEST SWAP2 POP POP SWAP3 POP SWAP3 SWAP1 POP JUMP JUMPDEST PUSH2 0x39D9 DUP2 PUSH2 0x3921 JUMP JUMPDEST DUP3 MSTORE POP POP JUMP JUMPDEST PUSH0 PUSH1 0x20 DUP3 ADD SWAP1 POP PUSH2 0x39F2 PUSH0 DUP4 ADD DUP5 PUSH2 0x39D0 JUMP JUMPDEST SWAP3 SWAP2 POP POP JUMP JUMPDEST PUSH0 DUP1 PUSH0 PUSH1 0x60 DUP5 DUP7 SUB SLT ISZERO PUSH2 0x3A0F JUMPI PUSH2 0x3A0E PUSH2 0x35BF JUMP JUMPDEST JUMPDEST PUSH0 PUSH2 0x3A1C DUP7 DUP3 DUP8 ADD PUSH2 0x390D JUMP JUMPDEST SWAP4 POP POP PUSH1 0x20 PUSH2 0x3A2D DUP7 DUP3 DUP8 ADD PUSH2 0x390D JUMP JUMPDEST SWAP3 POP POP PUSH1 0x40 PUSH2 0x3A3E DUP7 DUP3 DUP8 ADD PUSH2 0x3940 JUMP JUMPDEST SWAP2 POP POP SWAP3 POP SWAP3 POP SWAP3 JUMP JUMPDEST PUSH2 0x3A51 DUP2 PUSH2 0x37BF JUMP JUMPDEST DUP2 EQ PUSH2 0x3A5B JUMPI PUSH0 DUP1 REVERT JUMPDEST POP JUMP JUMPDEST PUSH0 DUP2 CALLDATALOAD SWAP1 POP PUSH2 0x3A6C DUP2 PUSH2 0x3A48 JUMP JUMPDEST SWAP3 SWAP2 POP POP JUMP JUMPDEST PUSH0 DUP1 PUSH0 DUP1 PUSH0 DUP1 PUSH0 PUSH1 0xA0 DUP9 DUP11 SUB SLT ISZERO PUSH2 0x3A8D JUMPI PUSH2 0x3A8C PUSH2 0x35BF JUMP JUMPDEST JUMPDEST PUSH0 PUSH2 0x3A9A DUP11 DUP3 DUP12 ADD PUSH2 0x35EA JUMP JUMPDEST SWAP8 POP POP PUSH1 0x20 DUP9 ADD CALLDATALOAD PUSH8 0xFFFFFFFFFFFFFFFF DUP2 GT ISZERO PUSH2 0x3ABB JUMPI PUSH2 0x3ABA PUSH2 0x35C3 JUMP JUMPDEST JUMPDEST PUSH2 0x3AC7 DUP11 DUP3 DUP12 ADD PUSH2 0x360A JUMP JUMPDEST SWAP7 POP SWAP7 POP POP PUSH1 0x40 PUSH2 0x3ADA DUP11 DUP3 DUP12 ADD PUSH2 0x3940 JUMP JUMPDEST SWAP5 POP POP PUSH1 0x60 PUSH2 0x3AEB DUP11 DUP3 DUP12 ADD PUSH2 0x3A5E JUMP JUMPDEST SWAP4 POP POP PUSH1 0x80 DUP9 ADD CALLDATALOAD PUSH8 0xFFFFFFFFFFFFFFFF DUP2 GT ISZERO PUSH2 0x3B0C JUMPI PUSH2 0x3B0B PUSH2 0x35C3 JUMP JUMPDEST JUMPDEST PUSH2 0x3B18 DUP11 DUP3 DUP12 ADD PUSH2 0x360A JUMP JUMPDEST SWAP3 POP SWAP3 POP POP SWAP3 SWAP6 SWAP9 SWAP2 SWAP5 SWAP8 POP SWAP3 SWAP6 POP JUMP JUMPDEST PUSH0 PUSH1 0x40 DUP3 ADD SWAP1 POP PUSH2 0x3B3C PUSH0 DUP4 ADD DUP6 PUSH2 0x39D0 JUMP JUMPDEST PUSH2 0x3B49 PUSH1 0x20 DUP4 ADD DUP5 PUSH2 0x39D0 JUMP JUMPDEST SWAP4 SWAP3 POP POP POP JUMP JUMPDEST PUSH0 PUSH1 0xFF DUP3 AND SWAP1 POP SWAP2 SWAP1 POP JUMP JUMPDEST PUSH2 0x3B65 DUP2 PUSH2 0x3B50 JUMP JUMPDEST DUP3 MSTORE POP POP JUMP JUMPDEST PUSH0 PUSH1 0x20 DUP3 ADD SWAP1 POP PUSH2 0x3B7E PUSH0 DUP4 ADD DUP5 PUSH2 0x3B5C JUMP JUMPDEST SWAP3 SWAP2 POP POP JUMP JUMPDEST PUSH0 DUP1 PUSH0 PUSH1 0x40 DUP5 DUP7 SUB SLT ISZERO PUSH2 0x3B9B JUMPI PUSH2 0x3B9A PUSH2 0x35BF JUMP JUMPDEST JUMPDEST PUSH0 PUSH2 0x3BA8 DUP7 DUP3 DUP8 ADD PUSH2 0x35EA JUMP JUMPDEST SWAP4 POP POP PUSH1 0x20 DUP5 ADD CALLDATALOAD PUSH8 0xFFFFFFFFFFFFFFFF DUP2 GT ISZERO PUSH2 0x3BC9 JUMPI PUSH2 0x3BC8 PUSH2 0x35C3 JUMP JUMPDEST JUMPDEST PUSH2 0x3BD5 DUP7 DUP3 DUP8 ADD PUSH2 0x360A JUMP JUMPDEST SWAP3 POP SWAP3 POP POP SWAP3 POP SWAP3 POP SWAP3 JUMP JUMPDEST PUSH2 0x3BEA DUP2 PUSH2 0x35C7 JUMP JUMPDEST DUP3 MSTORE POP POP JUMP JUMPDEST PUSH0 PUSH1 0x20 DUP3 ADD SWAP1 POP PUSH2 0x3C03 PUSH0 DUP4 ADD DUP5 PUSH2 0x3BE1 JUMP JUMPDEST SWAP3 SWAP2 POP POP JUMP JUMPDEST PUSH0 PUSH2 0x3C13 DUP3 PUSH2 0x38C7 JUMP JUMPDEST SWAP1 POP SWAP2 SWAP1 POP JUMP JUMPDEST PUSH2 0x3C23 DUP2 PUSH2 0x3C09 JUMP JUMPDEST DUP2 EQ PUSH2 0x3C2D JUMPI PUSH0 DUP1 REVERT JUMPDEST POP JUMP JUMPDEST PUSH0 DUP2 CALLDATALOAD SWAP1 POP PUSH2 0x3C3E DUP2 PUSH2 0x3C1A JUMP JUMPDEST SWAP3 SWAP2 POP POP JUMP JUMPDEST PUSH0 DUP1 PUSH0 DUP1 PUSH0 DUP1 PUSH0 DUP1 PUSH0 PUSH1 0xE0 DUP11 DUP13 SUB SLT ISZERO PUSH2 0x3C61 JUMPI PUSH2 0x3C60 PUSH2 0x35BF JUMP JUMPDEST JUMPDEST PUSH0 PUSH2 0x3C6E DUP13 DUP3 DUP14 ADD PUSH2 0x390D JUMP JUMPDEST SWAP10 POP POP PUSH1 0x20 PUSH2 0x3C7F DUP13 DUP3 DUP14 ADD PUSH2 0x35EA JUMP JUMPDEST SWAP9 POP POP PUSH1 0x40 DUP11 ADD CALLDATALOAD PUSH8 0xFFFFFFFFFFFFFFFF DUP2 GT ISZERO PUSH2 0x3CA0 JUMPI PUSH2 0x3C9F PUSH2 0x35C3 JUMP JUMPDEST JUMPDEST PUSH2 0x3CAC DUP13 DUP3 DUP14 ADD PUSH2 0x360A JUMP JUMPDEST SWAP8 POP SWAP8 POP POP PUSH1 0x60 PUSH2 0x3CBF DUP13 DUP3 DUP14 ADD PUSH2 0x3940 JUMP JUMPDEST SWAP6 POP POP PUSH1 0x80 PUSH2 0x3CD0 DUP13 DUP3 DUP14 ADD PUSH2 0x3C30 JUMP JUMPDEST SWAP5 POP POP PUSH1 0xA0 PUSH2 0x3CE1 DUP13 DUP3 DUP14 ADD PUSH2 0x390D JUMP JUMPDEST SWAP4 POP POP PUSH1 0xC0 DUP11 ADD CALLDATALOAD PUSH8 0xFFFFFFFFFFFFFFFF DUP2 GT ISZERO PUSH2 0x3D02 JUMPI PUSH2 0x3D01 PUSH2 0x35C3 JUMP JUMPDEST JUMPDEST PUSH2 0x3D0E DUP13 DUP3 DUP14 ADD PUSH2 0x360A JUMP JUMPDEST SWAP3 POP SWAP3 POP POP SWAP3 SWAP6 SWAP9 POP SWAP3 SWAP6 SWAP9 POP SWAP3 SWAP6 SWAP9 JUMP JUMPDEST PUSH0 DUP1 REVERT JUMPDEST PUSH32 0x4E487B7100000000000000000000000000000000000000000000000000000000 PUSH0 MSTORE PUSH1 0x41 PUSH1 0x4 MSTORE PUSH1 0x24 PUSH0 REVERT JUMPDEST PUSH2 0x3D5A DUP3 PUSH2 0x3834 JUMP JUMPDEST DUP2 ADD DUP2 DUP2 LT PUSH8 0xFFFFFFFFFFFFFFFF DUP3 GT OR ISZERO PUSH2 0x3D79 JUMPI PUSH2 0x3D78 PUSH2 0x3D24 JUMP JUMPDEST JUMPDEST DUP1 PUSH1 0x40 MSTORE POP POP POP JUMP JUMPDEST PUSH0 PUSH2 0x3D8B PUSH2 0x35B6 JUMP JUMPDEST SWAP1 POP PUSH2 0x3D97 DUP3 DUP3 PUSH2 0x3D51 JUMP JUMPDEST SWAP2 SWAP1 POP JUMP JUMPDEST PUSH0 PUSH8 0xFFFFFFFFFFFFFFFF DUP3 GT ISZERO PUSH2 0x3DB6 JUMPI PUSH2 0x3DB5 PUSH2 0x3D24 JUMP JUMPDEST JUMPDEST PUSH2 0x3DBF DUP3 PUSH2 0x3834 JUMP JUMPDEST SWAP1 POP PUSH1 0x20 DUP2 ADD SWAP1 POP SWAP2 SWAP1 POP JUMP JUMPDEST DUP3 DUP2 DUP4 CALLDATACOPY PUSH0 DUP4 DUP4 ADD MSTORE POP POP POP JUMP JUMPDEST PUSH0 PUSH2 0x3DEC PUSH2 0x3DE7 DUP5 PUSH2 0x3D9C JUMP JUMPDEST PUSH2 0x3D82 JUMP JUMPDEST SWAP1 POP DUP3 DUP2 MSTORE PUSH1 0x20 DUP2 ADD DUP5 DUP5 DUP5 ADD GT ISZERO PUSH2 0x3E08 JUMPI PUSH2 0x3E07 PUSH2 0x3D20 JUMP JUMPDEST JUMPDEST PUSH2 0x3E13 DUP5 DUP3 DUP6 PUSH2 0x3DCC JUMP JUMPDEST POP SWAP4 SWAP3 POP POP POP JUMP JUMPDEST PUSH0 DUP3 PUSH1 0x1F DUP4 ADD SLT PUSH2 0x3E2F JUMPI PUSH2 0x3E2E PUSH2 0x35FE JUMP JUMPDEST JUMPDEST DUP2 CALLDATALOAD PUSH2 0x3E3F DUP5 DUP3 PUSH1 0x20 DUP7 ADD PUSH2 0x3DDA JUMP JUMPDEST SWAP2 POP POP SWAP3 SWAP2 POP POP JUMP JUMPDEST PUSH0 DUP1 PUSH0 PUSH1 0x60 DUP5 DUP7 SUB SLT ISZERO PUSH2 0x3E5F JUMPI PUSH2 0x3E5E PUSH2 0x35BF JUMP JUMPDEST JUMPDEST PUSH0 PUSH2 0x3E6C DUP7 DUP3 DUP8 ADD PUSH2 0x35EA JUMP JUMPDEST SWAP4 POP POP PUSH1 0x20 DUP5 ADD CALLDATALOAD PUSH8 0xFFFFFFFFFFFFFFFF DUP2 GT ISZERO PUSH2 0x3E8D JUMPI PUSH2 0x3E8C PUSH2 0x35C3 JUMP JUMPDEST JUMPDEST PUSH2 0x3E99 DUP7 DUP3 DUP8 ADD PUSH2 0x3E1B JUMP JUMPDEST SWAP3 POP POP PUSH1 0x40 PUSH2 0x3EAA DUP7 DUP3 DUP8 ADD PUSH2 0x3688 JUMP JUMPDEST SWAP2 POP POP SWAP3 POP SWAP3 POP SWAP3 JUMP JUMPDEST PUSH0 DUP2 SWAP1 POP SWAP2 SWAP1 POP JUMP JUMPDEST PUSH2 0x3EC6 DUP2 PUSH2 0x3EB4 JUMP JUMPDEST DUP3 MSTORE POP POP JUMP JUMPDEST PUSH0 PUSH1 0x20 DUP3 ADD SWAP1 POP PUSH2 0x3EDF PUSH0 DUP4 ADD DUP5 PUSH2 0x3EBD JUMP JUMPDEST SWAP3 SWAP2 POP POP JUMP JUMPDEST PUSH0 DUP1 PUSH0 DUP1 PUSH1 0x80 DUP6 DUP8 SUB SLT ISZERO PUSH2 0x3EFD JUMPI PUSH2 0x3EFC PUSH2 0x35BF JUMP JUMPDEST JUMPDEST PUSH0 PUSH2 0x3F0A DUP8 DUP3 DUP9 ADD PUSH2 0x35EA JUMP JUMPDEST SWAP5 POP POP PUSH1 0x20 DUP6 ADD CALLDATALOAD PUSH8 0xFFFFFFFFFFFFFFFF DUP2 GT ISZERO PUSH2 0x3F2B JUMPI PUSH2 0x3F2A PUSH2 0x35C3 JUMP JUMPDEST JUMPDEST PUSH2 0x3F37 DUP8 DUP3 DUP9 ADD PUSH2 0x3E1B JUMP JUMPDEST SWAP4 POP POP PUSH1 0x40 PUSH2 0x3F48 DUP8 DUP3 DUP9 ADD PUSH2 0x3A5E JUMP JUMPDEST SWAP3 POP POP PUSH1 0x60 DUP6 ADD CALLDATALOAD PUSH8 0xFFFFFFFFFFFFFFFF DUP2 GT ISZERO PUSH2 0x3F69 JUMPI PUSH2 0x3F68 PUSH2 0x35C3 JUMP JUMPDEST JUMPDEST PUSH2 0x3F75 DUP8 DUP3 DUP9 ADD PUSH2 0x3E1B JUMP JUMPDEST SWAP2 POP POP SWAP3 SWAP6 SWAP2 SWAP5 POP SWAP3 POP JUMP JUMPDEST PUSH0 PUSH1 0x20 DUP3 DUP5 SUB SLT ISZERO PUSH2 0x3F96 JUMPI PUSH2 0x3F95 PUSH2 0x35BF JUMP JUMPDEST JUMPDEST PUSH0 PUSH2 0x3FA3 DUP5 DUP3 DUP6 ADD PUSH2 0x390D JUMP JUMPDEST SWAP2 POP POP SWAP3 SWAP2 POP POP JUMP JUMPDEST PUSH0 DUP2 MLOAD SWAP1 POP SWAP2 SWAP1 POP JUMP JUMPDEST PUSH0 DUP3 DUP3 MSTORE PUSH1 0x20 DUP3 ADD SWAP1 POP SWAP3 SWAP2 POP POP JUMP JUMPDEST PUSH0 PUSH2 0x3FD0 DUP3 PUSH2 0x3FAC JUMP JUMPDEST PUSH2 0x3FDA DUP2 DUP6 PUSH2 0x3FB6 JUMP JUMPDEST SWAP4 POP PUSH2 0x3FEA DUP2 DUP6 PUSH1 0x20 DUP7 ADD PUSH2 0x380C JUMP JUMPDEST PUSH2 0x3FF3 DUP2 PUSH2 0x3834 JUMP JUMPDEST DUP5 ADD SWAP2 POP POP SWAP3 SWAP2 POP POP JUMP JUMPDEST PUSH0 PUSH1 0x20 DUP3 ADD SWAP1 POP DUP2 DUP2 SUB PUSH0 DUP4 ADD MSTORE PUSH2 0x4016 DUP2 DUP5 PUSH2 0x3FC6 JUMP JUMPDEST SWAP1 POP SWAP3 SWAP2 POP POP JUMP JUMPDEST PUSH0 DUP1 PUSH1 0x40 DUP4 DUP6 SUB SLT ISZERO PUSH2 0x4034 JUMPI PUSH2 0x4033 PUSH2 0x35BF JUMP JUMPDEST JUMPDEST PUSH0 PUSH2 0x4041 DUP6 DUP3 DUP7 ADD PUSH2 0x35EA JUMP JUMPDEST SWAP3 POP POP PUSH1 0x20 PUSH2 0x4052 DUP6 DUP3 DUP7 ADD PUSH2 0x35EA JUMP JUMPDEST SWAP2 POP POP SWAP3 POP SWAP3 SWAP1 POP JUMP JUMPDEST PUSH2 0x4065 DUP2 PUSH2 0x38E6 JUMP JUMPDEST DUP3 MSTORE POP POP JUMP JUMPDEST PUSH0 PUSH1 0x20 DUP3 ADD SWAP1 POP PUSH2 0x407E PUSH0 DUP4 ADD DUP5 PUSH2 0x405C JUMP JUMPDEST SWAP3 SWAP2 POP POP JUMP JUMPDEST PUSH0 DUP2 SWAP1 POP SWAP2 SWAP1 POP JUMP JUMPDEST PUSH0 PUSH2 0x40A7 PUSH2 0x40A2 PUSH2 0x409D DUP5 PUSH2 0x38C7 JUMP JUMPDEST PUSH2 0x4084 JUMP JUMPDEST PUSH2 0x38C7 JUMP JUMPDEST SWAP1 POP SWAP2 SWAP1 POP JUMP JUMPDEST PUSH0 PUSH2 0x40B8 DUP3 PUSH2 0x408D JUMP JUMPDEST SWAP1 POP SWAP2 SWAP1 POP JUMP JUMPDEST PUSH0 PUSH2 0x40C9 DUP3 PUSH2 0x40AE JUMP JUMPDEST SWAP1 POP SWAP2 SWAP1 POP JUMP JUMPDEST PUSH2 0x40D9 DUP2 PUSH2 0x40BF JUMP JUMPDEST DUP3 MSTORE POP POP JUMP JUMPDEST PUSH0 PUSH1 0x20 DUP3 ADD SWAP1 POP PUSH2 0x40F2 PUSH0 DUP4 ADD DUP5 PUSH2 0x40D0 JUMP JUMPDEST SWAP3 SWAP2 POP POP JUMP JUMPDEST PUSH0 DUP1 PUSH0 DUP1 PUSH0 PUSH1 0x80 DUP7 DUP9 SUB SLT ISZERO PUSH2 0x4111 JUMPI PUSH2 0x4110 PUSH2 0x35BF JUMP JUMPDEST JUMPDEST PUSH0 PUSH2 0x411E DUP9 DUP3 DUP10 ADD PUSH2 0x35EA JUMP JUMPDEST SWAP6 POP POP PUSH1 0x20 PUSH2 0x412F DUP9 DUP3 DUP10 ADD PUSH2 0x35EA JUMP JUMPDEST SWAP5 POP POP PUSH1 0x40 PUSH2 0x4140 DUP9 DUP3 DUP10 ADD PUSH2 0x3940 JUMP JUMPDEST SWAP4 POP POP PUSH1 0x60 DUP7 ADD CALLDATALOAD PUSH8 0xFFFFFFFFFFFFFFFF DUP2 GT ISZERO PUSH2 0x4161 JUMPI PUSH2 0x4160 PUSH2 0x35C3 JUMP JUMPDEST JUMPDEST PUSH2 0x416D DUP9 DUP3 DUP10 ADD PUSH2 0x360A JUMP JUMPDEST SWAP3 POP SWAP3 POP POP SWAP3 SWAP6 POP SWAP3 SWAP6 SWAP1 SWAP4 POP JUMP JUMPDEST PUSH0 DUP1 PUSH1 0x40 DUP4 DUP6 SUB SLT ISZERO PUSH2 0x4192 JUMPI PUSH2 0x4191 PUSH2 0x35BF JUMP JUMPDEST JUMPDEST PUSH0 PUSH2 0x419F DUP6 DUP3 DUP7 ADD PUSH2 0x390D JUMP JUMPDEST SWAP3 POP POP PUSH1 0x20 PUSH2 0x41B0 DUP6 DUP3 DUP7 ADD PUSH2 0x390D JUMP JUMPDEST SWAP2 POP POP SWAP3 POP SWAP3 SWAP1 POP JUMP JUMPDEST PUSH0 DUP1 PUSH0 PUSH1 0x60 DUP5 DUP7 SUB SLT ISZERO PUSH2 0x41D1 JUMPI PUSH2 0x41D0 PUSH2 0x35BF JUMP JUMPDEST JUMPDEST PUSH0 PUSH2 0x41DE DUP7 DUP3 DUP8 ADD PUSH2 0x35EA JUMP JUMPDEST SWAP4 POP POP PUSH1 0x20 PUSH2 0x41EF DUP7 DUP3 DUP8 ADD PUSH2 0x35EA JUMP JUMPDEST SWAP3 POP POP PUSH1 0x40 PUSH2 0x4200 DUP7 DUP3 DUP8 ADD PUSH2 0x3940 JUMP JUMPDEST SWAP2 POP POP SWAP3 POP SWAP3 POP SWAP3 JUMP JUMPDEST PUSH0 PUSH1 0x20 DUP3 DUP5 SUB SLT ISZERO PUSH2 0x421F JUMPI PUSH2 0x421E PUSH2 0x35BF JUMP JUMPDEST JUMPDEST PUSH0 PUSH2 0x422C DUP5 DUP3 DUP6 ADD PUSH2 0x3A5E JUMP JUMPDEST SWAP2 POP POP SWAP3 SWAP2 POP POP JUMP JUMPDEST PUSH0 PUSH1 0x20 DUP3 DUP5 SUB SLT ISZERO PUSH2 0x424A JUMPI PUSH2 0x4249 PUSH2 0x35BF JUMP JUMPDEST JUMPDEST PUSH0 PUSH2 0x4257 DUP5 DUP3 DUP6 ADD PUSH2 0x3940 JUMP JUMPDEST SWAP2 POP POP SWAP3 SWAP2 POP POP JUMP JUMPDEST PUSH0 DUP1 PUSH0 DUP1 PUSH1 0x80 DUP6 DUP8 SUB SLT ISZERO PUSH2 0x4278 JUMPI PUSH2 0x4277 PUSH2 0x35BF JUMP JUMPDEST JUMPDEST PUSH0 PUSH2 0x4285 DUP8 DUP3 DUP9 ADD PUSH2 0x35EA JUMP JUMPDEST SWAP5 POP POP PUSH1 0x20 PUSH2 0x4296 DUP8 DUP3 DUP9 ADD PUSH2 0x35EA JUMP JUMPDEST SWAP4 POP POP PUSH1 0x40 PUSH2 0x42A7 DUP8 DUP3 DUP9 ADD PUSH2 0x390D JUMP JUMPDEST SWAP3 POP POP PUSH1 0x60 PUSH2 0x42B8 DUP8 DUP3 DUP9 ADD PUSH2 0x3940 JUMP JUMPDEST SWAP2 POP POP SWAP3 SWAP6 SWAP2 SWAP5 POP SWAP3 POP JUMP JUMPDEST PUSH32 0x4C7A4170703A20696E76616C696420656E64706F696E742063616C6C65720000 PUSH0 DUP3 ADD MSTORE POP JUMP JUMPDEST PUSH0 PUSH2 0x42F8 PUSH1 0x1E DUP4 PUSH2 0x37FC JUMP JUMPDEST SWAP2 POP PUSH2 0x4303 DUP3 PUSH2 0x42C4 JUMP JUMPDEST PUSH1 0x20 DUP3 ADD SWAP1 POP SWAP2 SWAP1 POP JUMP JUMPDEST PUSH0 PUSH1 0x20 DUP3 ADD SWAP1 POP DUP2 DUP2 SUB PUSH0 DUP4 ADD MSTORE PUSH2 0x4325 DUP2 PUSH2 0x42EC JUMP JUMPDEST SWAP1 POP SWAP2 SWAP1 POP JUMP JUMPDEST PUSH32 0x4E487B7100000000000000000000000000000000000000000000000000000000 PUSH0 MSTORE PUSH1 0x22 PUSH1 0x4 MSTORE PUSH1 0x24 PUSH0 REVERT JUMPDEST PUSH0 PUSH1 0x2 DUP3 DIV SWAP1 POP PUSH1 0x1 DUP3 AND DUP1 PUSH2 0x4370 JUMPI PUSH1 0x7F DUP3 AND SWAP2 POP JUMPDEST PUSH1 0x20 DUP3 LT DUP2 SUB PUSH2 0x4383 JUMPI PUSH2 0x4382 PUSH2 0x432C JUMP JUMPDEST JUMPDEST POP SWAP2 SWAP1 POP JUMP JUMPDEST PUSH0 DUP2 SWAP1 POP SWAP3 SWAP2 POP POP JUMP JUMPDEST PUSH0 PUSH2 0x439E DUP4 DUP6 PUSH2 0x4389 JUMP JUMPDEST SWAP4 POP PUSH2 0x43AB DUP4 DUP6 DUP5 PUSH2 0x3DCC JUMP JUMPDEST DUP3 DUP5 ADD SWAP1 POP SWAP4 SWAP3 POP POP POP JUMP JUMPDEST PUSH0 PUSH2 0x43C3 DUP3 DUP5 DUP7 PUSH2 0x4393 JUMP JUMPDEST SWAP2 POP DUP2 SWAP1 POP SWAP4 SWAP3 POP POP POP JUMP JUMPDEST PUSH32 0x4C7A4170703A20696E76616C696420736F757263652073656E64696E6720636F PUSH0 DUP3 ADD MSTORE PUSH32 0x6E74726163740000000000000000000000000000000000000000000000000000 PUSH1 0x20 DUP3 ADD MSTORE POP JUMP JUMPDEST PUSH0 PUSH2 0x4429 PUSH1 0x26 DUP4 PUSH2 0x37FC JUMP JUMPDEST SWAP2 POP PUSH2 0x4434 DUP3 PUSH2 0x43CF JUMP JUMPDEST PUSH1 0x40 DUP3 ADD SWAP1 POP SWAP2 SWAP1 POP JUMP JUMPDEST PUSH0 PUSH1 0x20 DUP3 ADD SWAP1 POP DUP2 DUP2 SUB PUSH0 DUP4 ADD MSTORE PUSH2 0x4456 DUP2 PUSH2 0x441D JUMP JUMPDEST SWAP1 POP SWAP2 SWAP1 POP JUMP JUMPDEST PUSH0 PUSH2 0x4468 DUP4 DUP6 PUSH2 0x3FB6 JUMP JUMPDEST SWAP4 POP PUSH2 0x4475 DUP4 DUP6 DUP5 PUSH2 0x3DCC JUMP JUMPDEST PUSH2 0x447E DUP4 PUSH2 0x3834 JUMP JUMPDEST DUP5 ADD SWAP1 POP SWAP4 SWAP3 POP POP POP JUMP JUMPDEST PUSH0 PUSH1 0x60 DUP3 ADD SWAP1 POP PUSH2 0x449C PUSH0 DUP4 ADD DUP8 PUSH2 0x3BE1 JUMP JUMPDEST DUP2 DUP2 SUB PUSH1 0x20 DUP4 ADD MSTORE PUSH2 0x44AF DUP2 DUP6 DUP8 PUSH2 0x445D JUMP JUMPDEST SWAP1 POP PUSH2 0x44BE PUSH1 0x40 DUP4 ADD DUP5 PUSH2 0x39D0 JUMP JUMPDEST SWAP6 SWAP5 POP POP POP POP POP JUMP JUMPDEST PUSH0 PUSH1 0xA0 DUP3 ADD SWAP1 POP PUSH2 0x44DA PUSH0 DUP4 ADD DUP10 PUSH2 0x3BE1 JUMP JUMPDEST PUSH2 0x44E7 PUSH1 0x20 DUP4 ADD DUP9 PUSH2 0x405C JUMP JUMPDEST DUP2 DUP2 SUB PUSH1 0x40 DUP4 ADD MSTORE PUSH2 0x44F9 DUP2 DUP8 PUSH2 0x3FC6 JUMP JUMPDEST SWAP1 POP PUSH2 0x4508 PUSH1 0x60 DUP4 ADD DUP7 PUSH2 0x37CA JUMP JUMPDEST DUP2 DUP2 SUB PUSH1 0x80 DUP4 ADD MSTORE PUSH2 0x451B DUP2 DUP5 DUP7 PUSH2 0x445D JUMP JUMPDEST SWAP1 POP SWAP8 SWAP7 POP POP POP POP POP POP POP JUMP JUMPDEST PUSH0 DUP2 MLOAD SWAP1 POP PUSH2 0x4536 DUP2 PUSH2 0x392A JUMP JUMPDEST SWAP3 SWAP2 POP POP JUMP JUMPDEST PUSH0 DUP1 PUSH1 0x40 DUP4 DUP6 SUB SLT ISZERO PUSH2 0x4552 JUMPI PUSH2 0x4551 PUSH2 0x35BF JUMP JUMPDEST JUMPDEST PUSH0 PUSH2 0x455F DUP6 DUP3 DUP7 ADD PUSH2 0x4528 JUMP JUMPDEST SWAP3 POP POP PUSH1 0x20 PUSH2 0x4570 DUP6 DUP3 DUP7 ADD PUSH2 0x4528 JUMP JUMPDEST SWAP2 POP POP SWAP3 POP SWAP3 SWAP1 POP JUMP JUMPDEST PUSH32 0x4E487B7100000000000000000000000000000000000000000000000000000000 PUSH0 MSTORE PUSH1 0x11 PUSH1 0x4 MSTORE PUSH1 0x24 PUSH0 REVERT JUMPDEST PUSH0 PUSH2 0x45B1 DUP3 PUSH2 0x3921 JUMP JUMPDEST SWAP2 POP PUSH2 0x45BC DUP4 PUSH2 0x3921 JUMP JUMPDEST SWAP3 POP DUP3 DUP3 ADD SWAP1 POP DUP1 DUP3 GT ISZERO PUSH2 0x45D4 JUMPI PUSH2 0x45D3 PUSH2 0x457A JUMP JUMPDEST JUMPDEST SWAP3 SWAP2 POP POP JUMP JUMPDEST POP JUMP JUMPDEST PUSH0 PUSH2 0x45E8 PUSH0 DUP4 PUSH2 0x4389 JUMP JUMPDEST SWAP2 POP PUSH2 0x45F3 DUP3 PUSH2 0x45DA JUMP JUMPDEST PUSH0 DUP3 ADD SWAP1 POP SWAP2 SWAP1 POP JUMP JUMPDEST PUSH0 PUSH2 0x4607 DUP3 PUSH2 0x45DD JUMP JUMPDEST SWAP2 POP DUP2 SWAP1 POP SWAP2 SWAP1 POP JUMP JUMPDEST PUSH0 PUSH2 0x461B DUP3 PUSH2 0x3921 JUMP JUMPDEST SWAP2 POP PUSH2 0x4626 DUP4 PUSH2 0x3921 JUMP JUMPDEST SWAP3 POP DUP3 DUP3 MUL PUSH2 0x4634 DUP2 PUSH2 0x3921 JUMP JUMPDEST SWAP2 POP DUP3 DUP3 DIV DUP5 EQ DUP4 ISZERO OR PUSH2 0x464B JUMPI PUSH2 0x464A PUSH2 0x457A JUMP JUMPDEST JUMPDEST POP SWAP3 SWAP2 POP POP JUMP JUMPDEST PUSH32 0x4E6F7420656E6F75676820657468657200000000000000000000000000000000 PUSH0 DUP3 ADD MSTORE POP JUMP JUMPDEST PUSH0 PUSH2 0x4686 PUSH1 0x10 DUP4 PUSH2 0x37FC JUMP JUMPDEST SWAP2 POP PUSH2 0x4691 DUP3 PUSH2 0x4652 JUMP JUMPDEST PUSH1 0x20 DUP3 ADD SWAP1 POP SWAP2 SWAP1 POP JUMP JUMPDEST PUSH0 PUSH1 0x20 DUP3 ADD SWAP1 POP DUP2 DUP2 SUB PUSH0 DUP4 ADD MSTORE PUSH2 0x46B3 DUP2 PUSH2 0x467A JUMP JUMPDEST SWAP1 POP SWAP2 SWAP1 POP JUMP JUMPDEST PUSH0 DUP2 PUSH1 0x1 SHR SWAP1 POP SWAP2 SWAP1 POP JUMP JUMPDEST PUSH0 DUP1 DUP3 SWAP2 POP DUP4 SWAP1 POP JUMPDEST PUSH1 0x1 DUP6 GT ISZERO PUSH2 0x470F JUMPI DUP1 DUP7 DIV DUP2 GT ISZERO PUSH2 0x46EB JUMPI PUSH2 0x46EA PUSH2 0x457A JUMP JUMPDEST JUMPDEST PUSH1 0x1 DUP6 AND ISZERO PUSH2 0x46FA JUMPI DUP1 DUP3 MUL SWAP2 POP JUMPDEST DUP1 DUP2 MUL SWAP1 POP PUSH2 0x4708 DUP6 PUSH2 0x46BA JUMP JUMPDEST SWAP5 POP PUSH2 0x46CF JUMP JUMPDEST SWAP5 POP SWAP5 SWAP3 POP POP POP JUMP JUMPDEST PUSH0 DUP3 PUSH2 0x4727 JUMPI PUSH1 0x1 SWAP1 POP PUSH2 0x47E2 JUMP JUMPDEST DUP2 PUSH2 0x4734 JUMPI PUSH0 SWAP1 POP PUSH2 0x47E2 JUMP JUMPDEST DUP2 PUSH1 0x1 DUP2 EQ PUSH2 0x474A JUMPI PUSH1 0x2 DUP2 EQ PUSH2 0x4754 JUMPI PUSH2 0x4783 JUMP JUMPDEST PUSH1 0x1 SWAP2 POP POP PUSH2 0x47E2 JUMP JUMPDEST PUSH1 0xFF DUP5 GT ISZERO PUSH2 0x4766 JUMPI PUSH2 0x4765 PUSH2 0x457A JUMP JUMPDEST JUMPDEST DUP4 PUSH1 0x2 EXP SWAP2 POP DUP5 DUP3 GT ISZERO PUSH2 0x477D JUMPI PUSH2 0x477C PUSH2 0x457A JUMP JUMPDEST JUMPDEST POP PUSH2 0x47E2 JUMP JUMPDEST POP PUSH1 0x20 DUP4 LT PUSH2 0x133 DUP4 LT AND PUSH1 0x4E DUP5 LT PUSH1 0xB DUP5 LT AND OR ISZERO PUSH2 0x47B8 JUMPI DUP3 DUP3 EXP SWAP1 POP DUP4 DUP2 GT ISZERO PUSH2 0x47B3 JUMPI PUSH2 0x47B2 PUSH2 0x457A JUMP JUMPDEST JUMPDEST PUSH2 0x47E2 JUMP JUMPDEST PUSH2 0x47C5 DUP5 DUP5 DUP5 PUSH1 0x1 PUSH2 0x46C6 JUMP JUMPDEST SWAP3 POP SWAP1 POP DUP2 DUP5 DIV DUP2 GT ISZERO PUSH2 0x47DC JUMPI PUSH2 0x47DB PUSH2 0x457A JUMP JUMPDEST JUMPDEST DUP2 DUP2 MUL SWAP1 POP JUMPDEST SWAP4 SWAP3 POP POP POP JUMP JUMPDEST PUSH0 PUSH2 0x47F3 DUP3 PUSH2 0x3921 JUMP JUMPDEST SWAP2 POP PUSH2 0x47FE DUP4 PUSH2 0x3B50 JUMP JUMPDEST SWAP3 POP PUSH2 0x482B PUSH32 0xFFFFFFFFFFFFFFFFFFFFFFFFFFFFFFFFFFFFFFFFFFFFFFFFFFFFFFFFFFFFFFFF DUP5 DUP5 PUSH2 0x4718 JUMP JUMPDEST SWAP1 POP SWAP3 SWAP2 POP POP JUMP JUMPDEST PUSH0 PUSH1 0x40 DUP3 ADD SWAP1 POP PUSH2 0x4846 PUSH0 DUP4 ADD DUP7 PUSH2 0x3BE1 JUMP JUMPDEST DUP2 DUP2 SUB PUSH1 0x20 DUP4 ADD MSTORE PUSH2 0x4859 DUP2 DUP5 DUP7 PUSH2 0x445D JUMP JUMPDEST SWAP1 POP SWAP5 SWAP4 POP POP POP POP JUMP JUMPDEST PUSH32 0x4E6F6E626C6F636B696E674C7A4170703A2063616C6C6572206D757374206265 PUSH0 DUP3 ADD MSTORE PUSH32 0x204C7A4170700000000000000000000000000000000000000000000000000000 PUSH1 0x20 DUP3 ADD MSTORE POP JUMP JUMPDEST PUSH0 PUSH2 0x48BD PUSH1 0x26 DUP4 PUSH2 0x37FC JUMP JUMPDEST SWAP2 POP PUSH2 0x48C8 DUP3 PUSH2 0x4863 JUMP JUMPDEST PUSH1 0x40 DUP3 ADD SWAP1 POP SWAP2 SWAP1 POP JUMP JUMPDEST PUSH0 PUSH1 0x20 DUP3 ADD SWAP1 POP DUP2 DUP2 SUB PUSH0 DUP4 ADD MSTORE PUSH2 0x48EA DUP2 PUSH2 0x48B1 JUMP JUMPDEST SWAP1 POP SWAP2 SWAP1 POP JUMP JUMPDEST PUSH0 PUSH1 0xA0 DUP3 ADD SWAP1 POP PUSH2 0x4904 PUSH0 DUP4 ADD DUP9 PUSH2 0x3BE1 JUMP JUMPDEST PUSH2 0x4911 PUSH1 0x20 DUP4 ADD DUP8 PUSH2 0x405C JUMP JUMPDEST DUP2 DUP2 SUB PUSH1 0x40 DUP4 ADD MSTORE PUSH2 0x4923 DUP2 DUP7 PUSH2 0x3FC6 JUMP JUMPDEST SWAP1 POP PUSH2 0x4932 PUSH1 0x60 DUP4 ADD DUP6 PUSH2 0x37CA JUMP JUMPDEST DUP2 DUP2 SUB PUSH1 0x80 DUP4 ADD MSTORE PUSH2 0x4944 DUP2 DUP5 PUSH2 0x3FC6 JUMP JUMPDEST SWAP1 POP SWAP7 SWAP6 POP POP POP POP POP POP JUMP JUMPDEST PUSH32 0x4C7A4170703A206E6F20747275737465642070617468207265636F7264000000 PUSH0 DUP3 ADD MSTORE POP JUMP JUMPDEST PUSH0 PUSH2 0x4984 PUSH1 0x1D DUP4 PUSH2 0x37FC JUMP JUMPDEST SWAP2 POP PUSH2 0x498F DUP3 PUSH2 0x4950 JUMP JUMPDEST PUSH1 0x20 DUP3 ADD SWAP1 POP SWAP2 SWAP1 POP JUMP JUMPDEST PUSH0 PUSH1 0x20 DUP3 ADD SWAP1 POP DUP2 DUP2 SUB PUSH0 DUP4 ADD MSTORE PUSH2 0x49B1 DUP2 PUSH2 0x4978 JUMP JUMPDEST SWAP1 POP SWAP2 SWAP1 POP JUMP JUMPDEST PUSH0 PUSH2 0x49C2 DUP3 PUSH2 0x3921 JUMP JUMPDEST SWAP2 POP PUSH2 0x49CD DUP4 PUSH2 0x3921 JUMP JUMPDEST SWAP3 POP DUP3 DUP3 SUB SWAP1 POP DUP2 DUP2 GT ISZERO PUSH2 0x49E5 JUMPI PUSH2 0x49E4 PUSH2 0x457A JUMP JUMPDEST JUMPDEST SWAP3 SWAP2 POP POP JUMP JUMPDEST PUSH0 PUSH1 0x60 DUP3 ADD SWAP1 POP PUSH2 0x49FE PUSH0 DUP4 ADD DUP7 PUSH2 0x405C JUMP JUMPDEST PUSH2 0x4A0B PUSH1 0x20 DUP4 ADD DUP6 PUSH2 0x39D0 JUMP JUMPDEST PUSH2 0x4A18 PUSH1 0x40 DUP4 ADD DUP5 PUSH2 0x39D0 JUMP JUMPDEST SWAP5 SWAP4 POP POP POP POP JUMP JUMPDEST PUSH0 DUP2 PUSH1 0x60 SHL SWAP1 POP SWAP2 SWAP1 POP JUMP JUMPDEST PUSH0 PUSH2 0x4A36 DUP3 PUSH2 0x4A20 JUMP JUMPDEST SWAP1 POP SWAP2 SWAP1 POP JUMP JUMPDEST PUSH0 PUSH2 0x4A47 DUP3 PUSH2 0x4A2C JUMP JUMPDEST SWAP1 POP SWAP2 SWAP1 POP JUMP JUMPDEST PUSH2 0x4A5F PUSH2 0x4A5A DUP3 PUSH2 0x38E6 JUMP JUMPDEST PUSH2 0x4A3D JUMP JUMPDEST DUP3 MSTORE POP POP JUMP JUMPDEST PUSH0 PUSH2 0x4A71 DUP3 DUP6 DUP8 PUSH2 0x4393 JUMP JUMPDEST SWAP2 POP PUSH2 0x4A7D DUP3 DUP5 PUSH2 0x4A4E JUMP JUMPDEST PUSH1 0x14 DUP3 ADD SWAP2 POP DUP2 SWAP1 POP SWAP5 SWAP4 POP POP POP POP JUMP JUMPDEST PUSH0 DUP2 SWAP1 POP DUP2 PUSH0 MSTORE PUSH1 0x20 PUSH0 KECCAK256 SWAP1 POP SWAP2 SWAP1 POP JUMP JUMPDEST PUSH0 PUSH1 0x20 PUSH1 0x1F DUP4 ADD DIV SWAP1 POP SWAP2 SWAP1 POP JUMP JUMPDEST PUSH0 DUP3 DUP3 SHL SWAP1 POP SWAP3 SWAP2 POP POP JUMP JUMPDEST PUSH0 PUSH1 0x8 DUP4 MUL PUSH2 0x4AEA PUSH32 0xFFFFFFFFFFFFFFFFFFFFFFFFFFFFFFFFFFFFFFFFFFFFFFFFFFFFFFFFFFFFFFFF DUP3 PUSH2 0x4AAF JUMP JUMPDEST PUSH2 0x4AF4 DUP7 DUP4 PUSH2 0x4AAF JUMP JUMPDEST SWAP6 POP DUP1 NOT DUP5 AND SWAP4 POP DUP1 DUP7 AND DUP5 OR SWAP3 POP POP POP SWAP4 SWAP3 POP POP POP JUMP JUMPDEST PUSH0 PUSH2 0x4B26 PUSH2 0x4B21 PUSH2 0x4B1C DUP5 PUSH2 0x3921 JUMP JUMPDEST PUSH2 0x4084 JUMP JUMPDEST PUSH2 0x3921 JUMP JUMPDEST SWAP1 POP SWAP2 SWAP1 POP JUMP JUMPDEST PUSH0 DUP2 SWAP1 POP SWAP2 SWAP1 POP JUMP JUMPDEST PUSH2 0x4B3F DUP4 PUSH2 0x4B0C JUMP JUMPDEST PUSH2 0x4B53 PUSH2 0x4B4B DUP3 PUSH2 0x4B2D JUMP JUMPDEST DUP5 DUP5 SLOAD PUSH2 0x4ABB JUMP JUMPDEST DUP3 SSTORE POP POP POP POP JUMP JUMPDEST PUSH0 SWAP1 JUMP JUMPDEST PUSH2 0x4B67 PUSH2 0x4B5B JUMP JUMPDEST PUSH2 0x4B72 DUP2 DUP5 DUP5 PUSH2 0x4B36 JUMP JUMPDEST POP POP POP JUMP JUMPDEST JUMPDEST DUP2 DUP2 LT ISZERO PUSH2 0x4B95 JUMPI PUSH2 0x4B8A PUSH0 DUP3 PUSH2 0x4B5F JUMP JUMPDEST PUSH1 0x1 DUP2 ADD SWAP1 POP PUSH2 0x4B78 JUMP JUMPDEST POP POP JUMP JUMPDEST PUSH1 0x1F DUP3 GT ISZERO PUSH2 0x4BDA JUMPI PUSH2 0x4BAB DUP2 PUSH2 0x4A8E JUMP JUMPDEST PUSH2 0x4BB4 DUP5 PUSH2 0x4AA0 JUMP JUMPDEST DUP2 ADD PUSH1 0x20 DUP6 LT ISZERO PUSH2 0x4BC3 JUMPI DUP2 SWAP1 POP JUMPDEST PUSH2 0x4BD7 PUSH2 0x4BCF DUP6 PUSH2 0x4AA0 JUMP JUMPDEST DUP4 ADD DUP3 PUSH2 0x4B77 JUMP JUMPDEST POP POP JUMPDEST POP POP POP JUMP JUMPDEST PUSH0 DUP3 DUP3 SHR SWAP1 POP SWAP3 SWAP2 POP POP JUMP JUMPDEST PUSH0 PUSH2 0x4BFA PUSH0 NOT DUP5 PUSH1 0x8 MUL PUSH2 0x4BDF JUMP JUMPDEST NOT DUP1 DUP4 AND SWAP2 POP POP SWAP3 SWAP2 POP POP JUMP JUMPDEST PUSH0 PUSH2 0x4C12 DUP4 DUP4 PUSH2 0x4BEB JUMP JUMPDEST SWAP2 POP DUP3 PUSH1 0x2 MUL DUP3 OR SWAP1 POP SWAP3 SWAP2 POP POP JUMP JUMPDEST PUSH2 0x4C2B DUP3 PUSH2 0x3FAC JUMP JUMPDEST PUSH8 0xFFFFFFFFFFFFFFFF DUP2 GT ISZERO PUSH2 0x4C44 JUMPI PUSH2 0x4C43 PUSH2 0x3D24 JUMP JUMPDEST JUMPDEST PUSH2 0x4C4E DUP3 SLOAD PUSH2 0x4359 JUMP JUMPDEST PUSH2 0x4C59 DUP3 DUP3 DUP6 PUSH2 0x4B99 JUMP JUMPDEST PUSH0 PUSH1 0x20 SWAP1 POP PUSH1 0x1F DUP4 GT PUSH1 0x1 DUP2 EQ PUSH2 0x4C8A JUMPI PUSH0 DUP5 ISZERO PUSH2 0x4C78 JUMPI DUP3 DUP8 ADD MLOAD SWAP1 POP JUMPDEST PUSH2 0x4C82 DUP6 DUP3 PUSH2 0x4C07 JUMP JUMPDEST DUP7 SSTORE POP PUSH2 0x4CE9 JUMP JUMPDEST PUSH1 0x1F NOT DUP5 AND PUSH2 0x4C98 DUP7 PUSH2 0x4A8E JUMP JUMPDEST PUSH0 JUMPDEST DUP3 DUP2 LT ISZERO PUSH2 0x4CBF JUMPI DUP5 DUP10 ADD MLOAD DUP3 SSTORE PUSH1 0x1 DUP3 ADD SWAP2 POP PUSH1 0x20 DUP6 ADD SWAP5 POP PUSH1 0x20 DUP2 ADD SWAP1 POP PUSH2 0x4C9A JUMP JUMPDEST DUP7 DUP4 LT ISZERO PUSH2 0x4CDC JUMPI DUP5 DUP10 ADD MLOAD PUSH2 0x4CD8 PUSH1 0x1F DUP10 AND DUP3 PUSH2 0x4BEB JUMP JUMPDEST DUP4 SSTORE POP JUMPDEST PUSH1 0x1 PUSH1 0x2 DUP9 MUL ADD DUP9 SSTORE POP POP POP JUMPDEST POP POP POP POP POP POP JUMP JUMPDEST PUSH0 PUSH1 0x80 DUP3 ADD SWAP1 POP PUSH2 0x4D04 PUSH0 DUP4 ADD DUP9 PUSH2 0x3BE1 JUMP JUMPDEST PUSH2 0x4D11 PUSH1 0x20 DUP4 ADD DUP8 PUSH2 0x3BE1 JUMP JUMPDEST PUSH2 0x4D1E PUSH1 0x40 DUP4 ADD DUP7 PUSH2 0x39D0 JUMP JUMPDEST DUP2 DUP2 SUB PUSH1 0x60 DUP4 ADD MSTORE PUSH2 0x4D31 DUP2 DUP5 DUP7 PUSH2 0x445D JUMP JUMPDEST SWAP1 POP SWAP7 SWAP6 POP POP POP POP POP POP JUMP JUMPDEST PUSH32 0x4E6F6E626C6F636B696E674C7A4170703A206E6F2073746F726564206D657373 PUSH0 DUP3 ADD MSTORE PUSH32 0x6167650000000000000000000000000000000000000000000000000000000000 PUSH1 0x20 DUP3 ADD MSTORE POP JUMP JUMPDEST PUSH0 PUSH2 0x4D97 PUSH1 0x23 DUP4 PUSH2 0x37FC JUMP JUMPDEST SWAP2 POP PUSH2 0x4DA2 DUP3 PUSH2 0x4D3D JUMP JUMPDEST PUSH1 0x40 DUP3 ADD SWAP1 POP SWAP2 SWAP1 POP JUMP JUMPDEST PUSH0 PUSH1 0x20 DUP3 ADD SWAP1 POP DUP2 DUP2 SUB PUSH0 DUP4 ADD MSTORE PUSH2 0x4DC4 DUP2 PUSH2 0x4D8B JUMP JUMPDEST SWAP1 POP SWAP2 SWAP1 POP JUMP JUMPDEST PUSH32 0x4E6F6E626C6F636B696E674C7A4170703A20696E76616C6964207061796C6F61 PUSH0 DUP3 ADD MSTORE PUSH32 0x6400000000000000000000000000000000000000000000000000000000000000 PUSH1 0x20 DUP3 ADD MSTORE POP JUMP JUMPDEST PUSH0 PUSH2 0x4E25 PUSH1 0x21 DUP4 PUSH2 0x37FC JUMP JUMPDEST SWAP2 POP PUSH2 0x4E30 DUP3 PUSH2 0x4DCB JUMP JUMPDEST PUSH1 0x40 DUP3 ADD SWAP1 POP SWAP2 SWAP1 POP JUMP JUMPDEST PUSH0 PUSH1 0x20 DUP3 ADD SWAP1 POP DUP2 DUP2 SUB PUSH0 DUP4 ADD MSTORE PUSH2 0x4E52 DUP2 PUSH2 0x4E19 JUMP JUMPDEST SWAP1 POP SWAP2 SWAP1 POP JUMP JUMPDEST PUSH2 0x4E62 DUP2 PUSH2 0x365F JUMP JUMPDEST DUP3 MSTORE POP POP JUMP JUMPDEST PUSH0 PUSH1 0x80 DUP3 ADD SWAP1 POP PUSH2 0x4E7B PUSH0 DUP4 ADD DUP9 PUSH2 0x3BE1 JUMP JUMPDEST DUP2 DUP2 SUB PUSH1 0x20 DUP4 ADD MSTORE PUSH2 0x4E8E DUP2 DUP7 DUP9 PUSH2 0x445D JUMP JUMPDEST SWAP1 POP PUSH2 0x4E9D PUSH1 0x40 DUP4 ADD DUP6 PUSH2 0x4E59 JUMP JUMPDEST PUSH2 0x4EAA PUSH1 0x60 DUP4 ADD DUP5 PUSH2 0x3EBD JUMP JUMPDEST SWAP7 SWAP6 POP POP POP POP POP POP JUMP JUMPDEST PUSH32 0x4C7A4170703A20696E76616C6964206D696E4761730000000000000000000000 PUSH0 DUP3 ADD MSTORE POP JUMP JUMPDEST PUSH0 PUSH2 0x4EE8 PUSH1 0x15 DUP4 PUSH2 0x37FC JUMP JUMPDEST SWAP2 POP PUSH2 0x4EF3 DUP3 PUSH2 0x4EB4 JUMP JUMPDEST PUSH1 0x20 DUP3 ADD SWAP1 POP SWAP2 SWAP1 POP JUMP JUMPDEST PUSH0 PUSH1 0x20 DUP3 ADD SWAP1 POP DUP2 DUP2 SUB PUSH0 DUP4 ADD MSTORE PUSH2 0x4F15 DUP2 PUSH2 0x4EDC JUMP JUMPDEST SWAP1 POP SWAP2 SWAP1 POP JUMP JUMPDEST PUSH0 PUSH1 0x60 DUP3 ADD SWAP1 POP PUSH2 0x4F2F PUSH0 DUP4 ADD DUP7 PUSH2 0x3BE1 JUMP JUMPDEST PUSH2 0x4F3C PUSH1 0x20 DUP4 ADD DUP6 PUSH2 0x3BE1 JUMP JUMPDEST PUSH2 0x4F49 PUSH1 0x40 DUP4 ADD DUP5 PUSH2 0x39D0 JUMP JUMPDEST SWAP5 SWAP4 POP POP POP POP JUMP JUMPDEST PUSH0 DUP3 SWAP1 POP SWAP3 SWAP2 POP POP JUMP JUMPDEST PUSH2 0x4F65 DUP4 DUP4 PUSH2 0x4F51 JUMP JUMPDEST PUSH8 0xFFFFFFFFFFFFFFFF DUP2 GT ISZERO PUSH2 0x4F7E JUMPI PUSH2 0x4F7D PUSH2 0x3D24 JUMP JUMPDEST JUMPDEST PUSH2 0x4F88 DUP3 SLOAD PUSH2 0x4359 JUMP JUMPDEST PUSH2 0x4F93 DUP3 DUP3 DUP6 PUSH2 0x4B99 JUMP JUMPDEST PUSH0 PUSH1 0x1F DUP4 GT PUSH1 0x1 DUP2 EQ PUSH2 0x4FC0 JUMPI PUSH0 DUP5 ISZERO PUSH2 0x4FAE JUMPI DUP3 DUP8 ADD CALLDATALOAD SWAP1 POP JUMPDEST PUSH2 0x4FB8 DUP6 DUP3 PUSH2 0x4C07 JUMP JUMPDEST DUP7 SSTORE POP PUSH2 0x501F JUMP JUMPDEST PUSH1 0x1F NOT DUP5 AND PUSH2 0x4FCE DUP7 PUSH2 0x4A8E JUMP JUMPDEST PUSH0 JUMPDEST DUP3 DUP2 LT ISZERO PUSH2 0x4FF5 JUMPI DUP5 DUP10 ADD CALLDATALOAD DUP3 SSTORE PUSH1 0x1 DUP3 ADD SWAP2 POP PUSH1 0x20 DUP6 ADD SWAP5 POP PUSH1 0x20 DUP2 ADD SWAP1 POP PUSH2 0x4FD0 JUMP JUMPDEST DUP7 DUP4 LT ISZERO PUSH2 0x5012 JUMPI DUP5 DUP10 ADD CALLDATALOAD PUSH2 0x500E PUSH1 0x1F DUP10 AND DUP3 PUSH2 0x4BEB JUMP JUMPDEST DUP4 SSTORE POP JUMPDEST PUSH1 0x1 PUSH1 0x2 DUP9 MUL ADD DUP9 SSTORE POP POP POP JUMPDEST POP POP POP POP POP POP POP JUMP JUMPDEST PUSH0 PUSH1 0x80 DUP3 ADD SWAP1 POP PUSH2 0x503B PUSH0 DUP4 ADD DUP8 PUSH2 0x3BE1 JUMP JUMPDEST PUSH2 0x5048 PUSH1 0x20 DUP4 ADD DUP7 PUSH2 0x3BE1 JUMP JUMPDEST PUSH2 0x5055 PUSH1 0x40 DUP4 ADD DUP6 PUSH2 0x405C JUMP JUMPDEST PUSH2 0x5062 PUSH1 0x60 DUP4 ADD DUP5 PUSH2 0x39D0 JUMP JUMPDEST SWAP6 SWAP5 POP POP POP POP POP JUMP JUMPDEST PUSH0 PUSH2 0x507D PUSH2 0x5078 DUP5 PUSH2 0x3D9C JUMP JUMPDEST PUSH2 0x3D82 JUMP JUMPDEST SWAP1 POP DUP3 DUP2 MSTORE PUSH1 0x20 DUP2 ADD DUP5 DUP5 DUP5 ADD GT ISZERO PUSH2 0x5099 JUMPI PUSH2 0x5098 PUSH2 0x3D20 JUMP JUMPDEST JUMPDEST PUSH2 0x50A4 DUP5 DUP3 DUP6 PUSH2 0x380C JUMP JUMPDEST POP SWAP4 SWAP3 POP POP POP JUMP JUMPDEST PUSH0 DUP3 PUSH1 0x1F DUP4 ADD SLT PUSH2 0x50C0 JUMPI PUSH2 0x50BF PUSH2 0x35FE JUMP JUMPDEST JUMPDEST DUP2 MLOAD PUSH2 0x50D0 DUP5 DUP3 PUSH1 0x20 DUP7 ADD PUSH2 0x506B JUMP JUMPDEST SWAP2 POP POP SWAP3 SWAP2 POP POP JUMP JUMPDEST PUSH0 PUSH1 0x20 DUP3 DUP5 SUB SLT ISZERO PUSH2 0x50EE JUMPI PUSH2 0x50ED PUSH2 0x35BF JUMP JUMPDEST JUMPDEST PUSH0 DUP3 ADD MLOAD PUSH8 0xFFFFFFFFFFFFFFFF DUP2 GT ISZERO PUSH2 0x510B JUMPI PUSH2 0x510A PUSH2 0x35C3 JUMP JUMPDEST JUMPDEST PUSH2 0x5117 DUP5 DUP3 DUP6 ADD PUSH2 0x50AC JUMP JUMPDEST SWAP2 POP POP SWAP3 SWAP2 POP POP JUMP JUMPDEST PUSH0 PUSH1 0x80 DUP3 ADD SWAP1 POP PUSH2 0x5133 PUSH0 DUP4 ADD DUP8 PUSH2 0x3BE1 JUMP JUMPDEST DUP2 DUP2 SUB PUSH1 0x20 DUP4 ADD MSTORE PUSH2 0x5145 DUP2 DUP7 PUSH2 0x3FC6 JUMP JUMPDEST SWAP1 POP PUSH2 0x5154 PUSH1 0x40 DUP4 ADD DUP6 PUSH2 0x4E59 JUMP JUMPDEST DUP2 DUP2 SUB PUSH1 0x60 DUP4 ADD MSTORE PUSH2 0x5166 DUP2 DUP5 PUSH2 0x3FC6 JUMP JUMPDEST SWAP1 POP SWAP6 SWAP5 POP POP POP POP POP JUMP JUMPDEST PUSH0 PUSH1 0x60 DUP3 ADD SWAP1 POP PUSH2 0x5184 PUSH0 DUP4 ADD DUP7 PUSH2 0x3BE1 JUMP JUMPDEST DUP2 DUP2 SUB PUSH1 0x20 DUP4 ADD MSTORE PUSH2 0x5196 DUP2 DUP6 PUSH2 0x3FC6 JUMP JUMPDEST SWAP1 POP PUSH2 0x51A5 PUSH1 0x40 DUP4 ADD DUP5 PUSH2 0x39D0 JUMP JUMPDEST SWAP5 SWAP4 POP POP POP POP JUMP JUMPDEST PUSH32 0x4E6F7420656E6F7567682067617320746F2073656E6400000000000000000000 PUSH0 DUP3 ADD MSTORE POP JUMP JUMPDEST PUSH0 PUSH2 0x51E1 PUSH1 0x16 DUP4 PUSH2 0x37FC JUMP JUMPDEST SWAP2 POP PUSH2 0x51EC DUP3 PUSH2 0x51AD JUMP JUMPDEST PUSH1 0x20 DUP3 ADD SWAP1 POP SWAP2 SWAP1 POP JUMP JUMPDEST PUSH0 PUSH1 0x20 DUP3 ADD SWAP1 POP DUP2 DUP2 SUB PUSH0 DUP4 ADD MSTORE PUSH2 0x520E DUP2 PUSH2 0x51D5 JUMP JUMPDEST SWAP1 POP SWAP2 SWAP1 POP JUMP JUMPDEST PUSH0 PUSH1 0x40 DUP3 ADD SWAP1 POP DUP2 DUP2 SUB PUSH0 DUP4 ADD MSTORE PUSH2 0x522D DUP2 DUP6 PUSH2 0x3FC6 JUMP JUMPDEST SWAP1 POP PUSH2 0x523C PUSH1 0x20 DUP4 ADD DUP5 PUSH2 0x39D0 JUMP JUMPDEST SWAP4 SWAP3 POP POP POP JUMP JUMPDEST PUSH32 0x4F4654436F72653A20756E6B6E6F776E207061636B6574207479706500000000 PUSH0 DUP3 ADD MSTORE POP JUMP JUMPDEST PUSH0 PUSH2 0x5277 PUSH1 0x1C DUP4 PUSH2 0x37FC JUMP JUMPDEST SWAP2 POP PUSH2 0x5282 DUP3 PUSH2 0x5243 JUMP JUMPDEST PUSH1 0x20 DUP3 ADD SWAP1 POP SWAP2 SWAP1 POP JUMP JUMPDEST PUSH0 PUSH1 0x20 DUP3 ADD SWAP1 POP DUP2 DUP2 SUB PUSH0 DUP4 ADD MSTORE PUSH2 0x52A4 DUP2 PUSH2 0x526B JUMP JUMPDEST SWAP1 POP SWAP2 SWAP1 POP JUMP JUMPDEST PUSH32 0x736C6963655F6F766572666C6F77000000000000000000000000000000000000 PUSH0 DUP3 ADD MSTORE POP JUMP JUMPDEST PUSH0 PUSH2 0x52DF PUSH1 0xE DUP4 PUSH2 0x37FC JUMP JUMPDEST SWAP2 POP PUSH2 0x52EA DUP3 PUSH2 0x52AB JUMP JUMPDEST PUSH1 0x20 DUP3 ADD SWAP1 POP SWAP2 SWAP1 POP JUMP JUMPDEST PUSH0 PUSH1 0x20 DUP3 ADD SWAP1 POP DUP2 DUP2 SUB PUSH0 DUP4 ADD MSTORE PUSH2 0x530C DUP2 PUSH2 0x52D3 JUMP JUMPDEST SWAP1 POP SWAP2 SWAP1 POP JUMP JUMPDEST PUSH32 0x736C6963655F6F75744F66426F756E6473000000000000000000000000000000 PUSH0 DUP3 ADD MSTORE POP JUMP JUMPDEST PUSH0 PUSH2 0x5347 PUSH1 0x11 DUP4 PUSH2 0x37FC JUMP JUMPDEST SWAP2 POP PUSH2 0x5352 DUP3 PUSH2 0x5313 JUMP JUMPDEST PUSH1 0x20 DUP3 ADD SWAP1 POP SWAP2 SWAP1 POP JUMP JUMPDEST PUSH0 PUSH1 0x20 DUP3 ADD SWAP1 POP DUP2 DUP2 SUB PUSH0 DUP4 ADD MSTORE PUSH2 0x5374 DUP2 PUSH2 0x533B JUMP JUMPDEST SWAP1 POP SWAP2 SWAP1 POP JUMP JUMPDEST PUSH0 PUSH2 0x5385 DUP3 PUSH2 0x3FAC JUMP JUMPDEST PUSH2 0x538F DUP2 DUP6 PUSH2 0x4389 JUMP JUMPDEST SWAP4 POP PUSH2 0x539F DUP2 DUP6 PUSH1 0x20 DUP7 ADD PUSH2 0x380C JUMP JUMPDEST DUP1 DUP5 ADD SWAP2 POP POP SWAP3 SWAP2 POP POP JUMP JUMPDEST PUSH0 PUSH2 0x53B6 DUP3 DUP5 PUSH2 0x537B JUMP JUMPDEST SWAP2 POP DUP2 SWAP1 POP SWAP3 SWAP2 POP POP JUMP JUMPDEST PUSH0 PUSH1 0xA0 DUP3 ADD SWAP1 POP PUSH2 0x53D4 PUSH0 DUP4 ADD DUP9 PUSH2 0x3BE1 JUMP JUMPDEST DUP2 DUP2 SUB PUSH1 0x20 DUP4 ADD MSTORE PUSH2 0x53E6 DUP2 DUP8 PUSH2 0x3FC6 JUMP JUMPDEST SWAP1 POP PUSH2 0x53F5 PUSH1 0x40 DUP4 ADD DUP7 PUSH2 0x4E59 JUMP JUMPDEST DUP2 DUP2 SUB PUSH1 0x60 DUP4 ADD MSTORE PUSH2 0x5407 DUP2 DUP6 PUSH2 0x3FC6 JUMP JUMPDEST SWAP1 POP DUP2 DUP2 SUB PUSH1 0x80 DUP4 ADD MSTORE PUSH2 0x541B DUP2 DUP5 PUSH2 0x3FC6 JUMP JUMPDEST SWAP1 POP SWAP7 SWAP6 POP POP POP POP POP POP JUMP JUMPDEST PUSH32 0x4F4654436F72653A205F61646170746572506172616D73206D75737420626520 PUSH0 DUP3 ADD MSTORE PUSH32 0x656D7074792E0000000000000000000000000000000000000000000000000000 PUSH1 0x20 DUP3 ADD MSTORE POP JUMP JUMPDEST PUSH0 PUSH2 0x5481 PUSH1 0x26 DUP4 PUSH2 0x37FC JUMP JUMPDEST SWAP2 POP PUSH2 0x548C DUP3 PUSH2 0x5427 JUMP JUMPDEST PUSH1 0x40 DUP3 ADD SWAP1 POP SWAP2 SWAP1 POP JUMP JUMPDEST PUSH0 PUSH1 0x20 DUP3 ADD SWAP1 POP DUP2 DUP2 SUB PUSH0 DUP4 ADD MSTORE PUSH2 0x54AE DUP2 PUSH2 0x5475 JUMP JUMPDEST SWAP1 POP SWAP2 SWAP1 POP JUMP JUMPDEST PUSH32 0x4C7A4170703A2064657374696E6174696F6E20636861696E206973206E6F7420 PUSH0 DUP3 ADD MSTORE PUSH32 0x61207472757374656420736F7572636500000000000000000000000000000000 PUSH1 0x20 DUP3 ADD MSTORE POP JUMP JUMPDEST PUSH0 PUSH2 0x550F PUSH1 0x30 DUP4 PUSH2 0x37FC JUMP JUMPDEST SWAP2 POP PUSH2 0x551A DUP3 PUSH2 0x54B5 JUMP JUMPDEST PUSH1 0x40 DUP3 ADD SWAP1 POP SWAP2 SWAP1 POP JUMP JUMPDEST PUSH0 PUSH1 0x20 DUP3 ADD SWAP1 POP DUP2 DUP2 SUB PUSH0 DUP4 ADD MSTORE PUSH2 0x553C DUP2 PUSH2 0x5503 JUMP JUMPDEST SWAP1 POP SWAP2 SWAP1 POP JUMP JUMPDEST PUSH2 0x554C DUP2 PUSH2 0x3C09 JUMP JUMPDEST DUP3 MSTORE POP POP JUMP JUMPDEST PUSH0 PUSH1 0xC0 DUP3 ADD SWAP1 POP PUSH2 0x5565 PUSH0 DUP4 ADD DUP10 PUSH2 0x3BE1 JUMP JUMPDEST DUP2 DUP2 SUB PUSH1 0x20 DUP4 ADD MSTORE PUSH2 0x5577 DUP2 DUP9 PUSH2 0x3FC6 JUMP JUMPDEST SWAP1 POP DUP2 DUP2 SUB PUSH1 0x40 DUP4 ADD MSTORE PUSH2 0x558B DUP2 DUP8 PUSH2 0x3FC6 JUMP JUMPDEST SWAP1 POP PUSH2 0x559A PUSH1 0x60 DUP4 ADD DUP7 PUSH2 0x5543 JUMP JUMPDEST PUSH2 0x55A7 PUSH1 0x80 DUP4 ADD DUP6 PUSH2 0x405C JUMP JUMPDEST DUP2 DUP2 SUB PUSH1 0xA0 DUP4 ADD MSTORE PUSH2 0x55B9 DUP2 DUP5 PUSH2 0x3FC6 JUMP JUMPDEST SWAP1 POP SWAP8 SWAP7 POP POP POP POP POP POP POP JUMP JUMPDEST PUSH0 DUP2 MLOAD SWAP1 POP PUSH2 0x55D4 DUP2 PUSH2 0x35D4 JUMP JUMPDEST SWAP3 SWAP2 POP POP JUMP JUMPDEST PUSH0 DUP1 PUSH0 PUSH1 0x60 DUP5 DUP7 SUB SLT ISZERO PUSH2 0x55F1 JUMPI PUSH2 0x55F0 PUSH2 0x35BF JUMP JUMPDEST JUMPDEST PUSH0 PUSH2 0x55FE DUP7 DUP3 DUP8 ADD PUSH2 0x55C6 JUMP JUMPDEST SWAP4 POP POP PUSH1 0x20 DUP5 ADD MLOAD PUSH8 0xFFFFFFFFFFFFFFFF DUP2 GT ISZERO PUSH2 0x561F JUMPI PUSH2 0x561E PUSH2 0x35C3 JUMP JUMPDEST JUMPDEST PUSH2 0x562B DUP7 DUP3 DUP8 ADD PUSH2 0x50AC JUMP JUMPDEST SWAP3 POP POP PUSH1 0x40 PUSH2 0x563C DUP7 DUP3 DUP8 ADD PUSH2 0x4528 JUMP JUMPDEST SWAP2 POP POP SWAP3 POP SWAP3 POP SWAP3 JUMP JUMPDEST PUSH32 0x4C7A4170703A206D696E4761734C696D6974206E6F7420736574000000000000 PUSH0 DUP3 ADD MSTORE POP JUMP JUMPDEST PUSH0 PUSH2 0x567A PUSH1 0x1A DUP4 PUSH2 0x37FC JUMP JUMPDEST SWAP2 POP PUSH2 0x5685 DUP3 PUSH2 0x5646 JUMP JUMPDEST PUSH1 0x20 DUP3 ADD SWAP1 POP SWAP2 SWAP1 POP JUMP JUMPDEST PUSH0 PUSH1 0x20 DUP3 ADD SWAP1 POP DUP2 DUP2 SUB PUSH0 DUP4 ADD MSTORE PUSH2 0x56A7 DUP2 PUSH2 0x566E JUMP JUMPDEST SWAP1 POP SWAP2 SWAP1 POP JUMP JUMPDEST PUSH32 0x4C7A4170703A20676173206C696D697420697320746F6F206C6F770000000000 PUSH0 DUP3 ADD MSTORE POP JUMP JUMPDEST PUSH0 PUSH2 0x56E2 PUSH1 0x1B DUP4 PUSH2 0x37FC JUMP JUMPDEST SWAP2 POP PUSH2 0x56ED DUP3 PUSH2 0x56AE JUMP JUMPDEST PUSH1 0x20 DUP3 ADD SWAP1 POP SWAP2 SWAP1 POP JUMP JUMPDEST PUSH0 PUSH1 0x20 DUP3 ADD SWAP1 POP DUP2 DUP2 SUB PUSH0 DUP4 ADD MSTORE PUSH2 0x570F DUP2 PUSH2 0x56D6 JUMP JUMPDEST SWAP1 POP SWAP2 SWAP1 POP JUMP JUMPDEST PUSH32 0x4C7A4170703A207061796C6F61642073697A6520697320746F6F206C61726765 PUSH0 DUP3 ADD MSTORE POP JUMP JUMPDEST PUSH0 PUSH2 0x574A PUSH1 0x20 DUP4 PUSH2 0x37FC JUMP JUMPDEST SWAP2 POP PUSH2 0x5755 DUP3 PUSH2 0x5716 JUMP JUMPDEST PUSH1 0x20 DUP3 ADD SWAP1 POP SWAP2 SWAP1 POP JUMP JUMPDEST PUSH0 PUSH1 0x20 DUP3 ADD SWAP1 POP DUP2 DUP2 SUB PUSH0 DUP4 ADD MSTORE PUSH2 0x5777 DUP2 PUSH2 0x573E JUMP JUMPDEST SWAP1 POP SWAP2 SWAP1 POP JUMP JUMPDEST PUSH32 0x746F416464726573735F6F75744F66426F756E64730000000000000000000000 PUSH0 DUP3 ADD MSTORE POP JUMP JUMPDEST PUSH0 PUSH2 0x57B2 PUSH1 0x15 DUP4 PUSH2 0x37FC JUMP JUMPDEST SWAP2 POP PUSH2 0x57BD DUP3 PUSH2 0x577E JUMP JUMPDEST PUSH1 0x20 DUP3 ADD SWAP1 POP SWAP2 SWAP1 POP JUMP JUMPDEST PUSH0 PUSH1 0x20 DUP3 ADD SWAP1 POP DUP2 DUP2 SUB PUSH0 DUP4 ADD MSTORE PUSH2 0x57DF DUP2 PUSH2 0x57A6 JUMP JUMPDEST SWAP1 POP SWAP2 SWAP1 POP JUMP JUMPDEST PUSH32 0x4C7A4170703A20696E76616C69642061646170746572506172616D7300000000 PUSH0 DUP3 ADD MSTORE POP JUMP JUMPDEST PUSH0 PUSH2 0x581A PUSH1 0x1C DUP4 PUSH2 0x37FC JUMP JUMPDEST SWAP2 POP PUSH2 0x5825 DUP3 PUSH2 0x57E6 JUMP JUMPDEST PUSH1 0x20 DUP3 ADD SWAP1 POP SWAP2 SWAP1 POP JUMP JUMPDEST PUSH0 PUSH1 0x20 DUP3 ADD SWAP1 POP DUP2 DUP2 SUB PUSH0 DUP4 ADD MSTORE PUSH2 0x5847 DUP2 PUSH2 0x580E JUMP JUMPDEST SWAP1 POP SWAP2 SWAP1 POP JUMP INVALID LOG2 PUSH5 0x6970667358 0x22 SLT KECCAK256 CALLCODE 0x2D PUSH20 0x1C84C1CBF862813405DB784A82E4C0DD18194C67 0xDC PUSH20 0x8866DD13757EBB64736F6C634300081700330000 "
		},
		"gasEstimates": {
			"creation": {
				"codeDepositCost": "4532000",
				"executionCost": "infinite",
				"totalCost": "infinite"
			},
			"external": {
				"DEFAULT_PAYLOAD_SIZE_LIMIT()": "392",
				"NO_EXTRA_GAS()": "392",
				"PT_SEND()": "420",
				"allowance(address,address)": "infinite",
				"approve(address,uint256)": "infinite",
				"balanceOf(address)": "2962",
				"circulatingSupply()": "2600",
				"decimals()": "494",
				"decreaseAllowance(address,uint256)": "infinite",
				"estimateSendFee(uint16,bytes,uint256,bool,bytes)": "infinite",
				"estimateSendFee2(uint16,bytes,bool,bytes)": "infinite",
				"failedMessages(uint16,bytes,uint64)": "infinite",
				"forceResumeReceive(uint16,bytes)": "infinite",
				"getConfig(uint16,uint16,address,uint256)": "infinite",
				"getTrustedRemoteAddress(uint16)": "infinite",
				"increaseAllowance(address,uint256)": "infinite",
				"isTrustedRemote(uint16,bytes)": "infinite",
				"lzEndpoint()": "infinite",
				"lzReceive(uint16,bytes,uint64,bytes)": "infinite",
				"minDstGasLookup(uint16,uint16)": "infinite",
				"mint(address,uint256)": "infinite",
				"mintFee()": "2493",
				"moderatorAddress()": "2598",
				"name()": "infinite",
				"nonblockingLzReceive(uint16,bytes,uint64,bytes)": "infinite",
				"owner()": "2627",
				"payloadSizeLimitLookup(uint16)": "2872",
				"precrime()": "2664",
				"renounceOwnership()": "infinite",
				"retryMessage(uint16,bytes,uint64,bytes)": "infinite",
				"sendFrom(address,uint16,bytes,uint256,address,address,bytes)": "infinite",
				"setConfig(uint16,uint16,uint256,bytes)": "infinite",
				"setMinDstGas(uint16,uint16,uint256)": "infinite",
				"setMintFee(uint256)": "infinite",
				"setPayloadSizeLimit(uint16,uint256)": "infinite",
				"setPrecrime(address)": "infinite",
				"setReceiveVersion(uint16)": "infinite",
				"setSendVersion(uint16)": "infinite",
				"setTrustedRemote(uint16,bytes)": "infinite",
				"setTrustedRemoteAddress(uint16,bytes)": "infinite",
				"setUseCustomAdapterParams(bool)": "infinite",
				"supportsInterface(bytes4)": "920",
				"symbol()": "infinite",
				"token()": "511",
				"totalSupply()": "2522",
				"transfer(address,uint256)": "infinite",
				"transferFrom(address,address,uint256)": "infinite",
				"transferOwnership(address)": "infinite",
				"trustedRemoteLookup(uint16)": "infinite",
				"useCustomAdapterParams()": "2577",
				"withdraw()": "infinite"
			}
		},
		"methodIdentifiers": {
			"DEFAULT_PAYLOAD_SIZE_LIMIT()": "c4461834",
			"NO_EXTRA_GAS()": "44770515",
			"PT_SEND()": "4c42899a",
			"allowance(address,address)": "dd62ed3e",
			"approve(address,uint256)": "095ea7b3",
			"balanceOf(address)": "70a08231",
			"circulatingSupply()": "9358928b",
			"decimals()": "313ce567",
			"decreaseAllowance(address,uint256)": "a457c2d7",
			"estimateSendFee(uint16,bytes,uint256,bool,bytes)": "2a205e3d",
			"estimateSendFee2(uint16,bytes,bool,bytes)": "6d413538",
			"failedMessages(uint16,bytes,uint64)": "5b8c41e6",
			"forceResumeReceive(uint16,bytes)": "42d65a8d",
			"getConfig(uint16,uint16,address,uint256)": "f5ecbdbc",
			"getTrustedRemoteAddress(uint16)": "9f38369a",
			"increaseAllowance(address,uint256)": "39509351",
			"isTrustedRemote(uint16,bytes)": "3d8b38f6",
			"lzEndpoint()": "b353aaa7",
			"lzReceive(uint16,bytes,uint64,bytes)": "001d3567",
			"minDstGasLookup(uint16,uint16)": "8cfd8f5c",
			"mint(address,uint256)": "40c10f19",
			"mintFee()": "13966db5",
			"moderatorAddress()": "9c3e0d6a",
			"name()": "06fdde03",
			"nonblockingLzReceive(uint16,bytes,uint64,bytes)": "66ad5c8a",
			"owner()": "8da5cb5b",
			"payloadSizeLimitLookup(uint16)": "3f1f4fa4",
			"precrime()": "950c8a74",
			"renounceOwnership()": "715018a6",
			"retryMessage(uint16,bytes,uint64,bytes)": "d1deba1f",
			"sendFrom(address,uint16,bytes,uint256,address,address,bytes)": "51905636",
			"setConfig(uint16,uint16,uint256,bytes)": "cbed8b9c",
			"setMinDstGas(uint16,uint16,uint256)": "df2a5b3b",
			"setMintFee(uint256)": "eddd0d9c",
			"setPayloadSizeLimit(uint16,uint256)": "0df37483",
			"setPrecrime(address)": "baf3292d",
			"setReceiveVersion(uint16)": "10ddb137",
			"setSendVersion(uint16)": "07e0db17",
			"setTrustedRemote(uint16,bytes)": "eb8d72b7",
			"setTrustedRemoteAddress(uint16,bytes)": "a6c3d165",
			"setUseCustomAdapterParams(bool)": "eab45d9c",
			"supportsInterface(bytes4)": "01ffc9a7",
			"symbol()": "95d89b41",
			"token()": "fc0c546a",
			"totalSupply()": "18160ddd",
			"transfer(address,uint256)": "a9059cbb",
			"transferFrom(address,address,uint256)": "23b872dd",
			"transferOwnership(address)": "f2fde38b",
			"trustedRemoteLookup(uint16)": "7533d788",
			"useCustomAdapterParams()": "ed629c5c",
			"withdraw()": "3ccfd60b"
		}
	},
	"abi": [
		{
			"inputs": [
				{
					"internalType": "address",
					"name": "_layerZeroEndpoint",
					"type": "address"
				}
			],
			"stateMutability": "nonpayable",
			"type": "constructor"
		},
		{
			"inputs": [
				{
					"internalType": "address",
					"name": "spender",
					"type": "address"
				},
				{
					"internalType": "uint256",
					"name": "currentAllowance",
					"type": "uint256"
				},
				{
					"internalType": "uint256",
					"name": "requestedDecrease",
					"type": "uint256"
				}
			],
			"name": "ERC20FailedDecreaseAllowance",
			"type": "error"
		},
		{
			"inputs": [
				{
					"internalType": "address",
					"name": "spender",
					"type": "address"
				},
				{
					"internalType": "uint256",
					"name": "allowance",
					"type": "uint256"
				},
				{
					"internalType": "uint256",
					"name": "needed",
					"type": "uint256"
				}
			],
			"name": "ERC20InsufficientAllowance",
			"type": "error"
		},
		{
			"inputs": [
				{
					"internalType": "address",
					"name": "sender",
					"type": "address"
				},
				{
					"internalType": "uint256",
					"name": "balance",
					"type": "uint256"
				},
				{
					"internalType": "uint256",
					"name": "needed",
					"type": "uint256"
				}
			],
			"name": "ERC20InsufficientBalance",
			"type": "error"
		},
		{
			"inputs": [
				{
					"internalType": "address",
					"name": "approver",
					"type": "address"
				}
			],
			"name": "ERC20InvalidApprover",
			"type": "error"
		},
		{
			"inputs": [
				{
					"internalType": "address",
					"name": "receiver",
					"type": "address"
				}
			],
			"name": "ERC20InvalidReceiver",
			"type": "error"
		},
		{
			"inputs": [
				{
					"internalType": "address",
					"name": "sender",
					"type": "address"
				}
			],
			"name": "ERC20InvalidSender",
			"type": "error"
		},
		{
			"inputs": [
				{
					"internalType": "address",
					"name": "spender",
					"type": "address"
				}
			],
			"name": "ERC20InvalidSpender",
			"type": "error"
		},
		{
			"inputs": [
				{
					"internalType": "address",
					"name": "owner",
					"type": "address"
				}
			],
			"name": "OwnableInvalidOwner",
			"type": "error"
		},
		{
			"inputs": [
				{
					"internalType": "address",
					"name": "account",
					"type": "address"
				}
			],
			"name": "OwnableUnauthorizedAccount",
			"type": "error"
		},
		{
			"anonymous": false,
			"inputs": [
				{
					"indexed": true,
					"internalType": "address",
					"name": "owner",
					"type": "address"
				},
				{
					"indexed": true,
					"internalType": "address",
					"name": "spender",
					"type": "address"
				},
				{
					"indexed": false,
					"internalType": "uint256",
					"name": "value",
					"type": "uint256"
				}
			],
			"name": "Approval",
			"type": "event"
		},
		{
			"anonymous": false,
			"inputs": [
				{
					"indexed": false,
					"internalType": "uint16",
					"name": "_srcChainId",
					"type": "uint16"
				},
				{
					"indexed": false,
					"internalType": "bytes",
					"name": "_srcAddress",
					"type": "bytes"
				},
				{
					"indexed": false,
					"internalType": "uint64",
					"name": "_nonce",
					"type": "uint64"
				},
				{
					"indexed": false,
					"internalType": "bytes",
					"name": "_payload",
					"type": "bytes"
				},
				{
					"indexed": false,
					"internalType": "bytes",
					"name": "_reason",
					"type": "bytes"
				}
			],
			"name": "MessageFailed",
			"type": "event"
		},
		{
			"anonymous": false,
			"inputs": [
				{
					"indexed": true,
					"internalType": "address",
					"name": "previousOwner",
					"type": "address"
				},
				{
					"indexed": true,
					"internalType": "address",
					"name": "newOwner",
					"type": "address"
				}
			],
			"name": "OwnershipTransferred",
			"type": "event"
		},
		{
			"anonymous": false,
			"inputs": [
				{
					"indexed": true,
					"internalType": "uint16",
					"name": "_srcChainId",
					"type": "uint16"
				},
				{
					"indexed": true,
					"internalType": "address",
					"name": "_to",
					"type": "address"
				},
				{
					"indexed": false,
					"internalType": "uint256",
					"name": "_amount",
					"type": "uint256"
				}
			],
			"name": "ReceiveFromChain",
			"type": "event"
		},
		{
			"anonymous": false,
			"inputs": [
				{
					"indexed": false,
					"internalType": "uint16",
					"name": "_srcChainId",
					"type": "uint16"
				},
				{
					"indexed": false,
					"internalType": "bytes",
					"name": "_srcAddress",
					"type": "bytes"
				},
				{
					"indexed": false,
					"internalType": "uint64",
					"name": "_nonce",
					"type": "uint64"
				},
				{
					"indexed": false,
					"internalType": "bytes32",
					"name": "_payloadHash",
					"type": "bytes32"
				}
			],
			"name": "RetryMessageSuccess",
			"type": "event"
		},
		{
			"anonymous": false,
			"inputs": [
				{
					"indexed": true,
					"internalType": "uint16",
					"name": "_dstChainId",
					"type": "uint16"
				},
				{
					"indexed": true,
					"internalType": "address",
					"name": "_from",
					"type": "address"
				},
				{
					"indexed": false,
					"internalType": "bytes",
					"name": "_toAddress",
					"type": "bytes"
				},
				{
					"indexed": false,
					"internalType": "uint256",
					"name": "_amount",
					"type": "uint256"
				}
			],
			"name": "SendToChain",
			"type": "event"
		},
		{
			"anonymous": false,
			"inputs": [
				{
					"indexed": false,
					"internalType": "uint16",
					"name": "_dstChainId",
					"type": "uint16"
				},
				{
					"indexed": false,
					"internalType": "uint16",
					"name": "_type",
					"type": "uint16"
				},
				{
					"indexed": false,
					"internalType": "uint256",
					"name": "_minDstGas",
					"type": "uint256"
				}
			],
			"name": "SetMinDstGas",
			"type": "event"
		},
		{
			"anonymous": false,
			"inputs": [
				{
					"indexed": false,
					"internalType": "address",
					"name": "precrime",
					"type": "address"
				}
			],
			"name": "SetPrecrime",
			"type": "event"
		},
		{
			"anonymous": false,
			"inputs": [
				{
					"indexed": false,
					"internalType": "uint16",
					"name": "_remoteChainId",
					"type": "uint16"
				},
				{
					"indexed": false,
					"internalType": "bytes",
					"name": "_path",
					"type": "bytes"
				}
			],
			"name": "SetTrustedRemote",
			"type": "event"
		},
		{
			"anonymous": false,
			"inputs": [
				{
					"indexed": false,
					"internalType": "uint16",
					"name": "_remoteChainId",
					"type": "uint16"
				},
				{
					"indexed": false,
					"internalType": "bytes",
					"name": "_remoteAddress",
					"type": "bytes"
				}
			],
			"name": "SetTrustedRemoteAddress",
			"type": "event"
		},
		{
			"anonymous": false,
			"inputs": [
				{
					"indexed": false,
					"internalType": "bool",
					"name": "_useCustomAdapterParams",
					"type": "bool"
				}
			],
			"name": "SetUseCustomAdapterParams",
			"type": "event"
		},
		{
			"anonymous": false,
			"inputs": [
				{
					"indexed": true,
					"internalType": "address",
					"name": "from",
					"type": "address"
				},
				{
					"indexed": true,
					"internalType": "address",
					"name": "to",
					"type": "address"
				},
				{
					"indexed": false,
					"internalType": "uint256",
					"name": "value",
					"type": "uint256"
				}
			],
			"name": "Transfer",
			"type": "event"
		},
		{
			"inputs": [],
			"name": "DEFAULT_PAYLOAD_SIZE_LIMIT",
			"outputs": [
				{
					"internalType": "uint256",
					"name": "",
					"type": "uint256"
				}
			],
			"stateMutability": "view",
			"type": "function"
		},
		{
			"inputs": [],
			"name": "NO_EXTRA_GAS",
			"outputs": [
				{
					"internalType": "uint256",
					"name": "",
					"type": "uint256"
				}
			],
			"stateMutability": "view",
			"type": "function"
		},
		{
			"inputs": [],
			"name": "PT_SEND",
			"outputs": [
				{
					"internalType": "uint16",
					"name": "",
					"type": "uint16"
				}
			],
			"stateMutability": "view",
			"type": "function"
		},
		{
			"inputs": [
				{
					"internalType": "address",
					"name": "owner",
					"type": "address"
				},
				{
					"internalType": "address",
					"name": "spender",
					"type": "address"
				}
			],
			"name": "allowance",
			"outputs": [
				{
					"internalType": "uint256",
					"name": "",
					"type": "uint256"
				}
			],
			"stateMutability": "view",
			"type": "function"
		},
		{
			"inputs": [
				{
					"internalType": "address",
					"name": "spender",
					"type": "address"
				},
				{
					"internalType": "uint256",
					"name": "value",
					"type": "uint256"
				}
			],
			"name": "approve",
			"outputs": [
				{
					"internalType": "bool",
					"name": "",
					"type": "bool"
				}
			],
			"stateMutability": "nonpayable",
			"type": "function"
		},
		{
			"inputs": [
				{
					"internalType": "address",
					"name": "account",
					"type": "address"
				}
			],
			"name": "balanceOf",
			"outputs": [
				{
					"internalType": "uint256",
					"name": "",
					"type": "uint256"
				}
			],
			"stateMutability": "view",
			"type": "function"
		},
		{
			"inputs": [],
			"name": "circulatingSupply",
			"outputs": [
				{
					"internalType": "uint256",
					"name": "",
					"type": "uint256"
				}
			],
			"stateMutability": "view",
			"type": "function"
		},
		{
			"inputs": [],
			"name": "decimals",
			"outputs": [
				{
					"internalType": "uint8",
					"name": "",
					"type": "uint8"
				}
			],
			"stateMutability": "view",
			"type": "function"
		},
		{
			"inputs": [
				{
					"internalType": "address",
					"name": "spender",
					"type": "address"
				},
				{
					"internalType": "uint256",
					"name": "requestedDecrease",
					"type": "uint256"
				}
			],
			"name": "decreaseAllowance",
			"outputs": [
				{
					"internalType": "bool",
					"name": "",
					"type": "bool"
				}
			],
			"stateMutability": "nonpayable",
			"type": "function"
		},
		{
			"inputs": [
				{
					"internalType": "uint16",
					"name": "_dstChainId",
					"type": "uint16"
				},
				{
					"internalType": "bytes",
					"name": "_toAddress",
					"type": "bytes"
				},
				{
					"internalType": "uint256",
					"name": "_amount",
					"type": "uint256"
				},
				{
					"internalType": "bool",
					"name": "_useZro",
					"type": "bool"
				},
				{
					"internalType": "bytes",
					"name": "_adapterParams",
					"type": "bytes"
				}
			],
			"name": "estimateSendFee",
			"outputs": [
				{
					"internalType": "uint256",
					"name": "nativeFee",
					"type": "uint256"
				},
				{
					"internalType": "uint256",
					"name": "zroFee",
					"type": "uint256"
				}
			],
			"stateMutability": "view",
			"type": "function"
		},
		{
			"inputs": [
				{
					"internalType": "uint16",
					"name": "_dstChainId",
					"type": "uint16"
				},
				{
					"internalType": "bytes",
					"name": "payload",
					"type": "bytes"
				},
				{
					"internalType": "bool",
					"name": "_useZro",
					"type": "bool"
				},
				{
					"internalType": "bytes",
					"name": "_adapterParams",
					"type": "bytes"
				}
			],
			"name": "estimateSendFee2",
			"outputs": [
				{
					"internalType": "uint256",
					"name": "nativeFee",
					"type": "uint256"
				},
				{
					"internalType": "uint256",
					"name": "zroFee",
					"type": "uint256"
				}
			],
			"stateMutability": "view",
			"type": "function"
		},
		{
			"inputs": [
				{
					"internalType": "uint16",
					"name": "",
					"type": "uint16"
				},
				{
					"internalType": "bytes",
					"name": "",
					"type": "bytes"
				},
				{
					"internalType": "uint64",
					"name": "",
					"type": "uint64"
				}
			],
			"name": "failedMessages",
			"outputs": [
				{
					"internalType": "bytes32",
					"name": "",
					"type": "bytes32"
				}
			],
			"stateMutability": "view",
			"type": "function"
		},
		{
			"inputs": [
				{
					"internalType": "uint16",
					"name": "_srcChainId",
					"type": "uint16"
				},
				{
					"internalType": "bytes",
					"name": "_srcAddress",
					"type": "bytes"
				}
			],
			"name": "forceResumeReceive",
			"outputs": [],
			"stateMutability": "nonpayable",
			"type": "function"
		},
		{
			"inputs": [
				{
					"internalType": "uint16",
					"name": "_version",
					"type": "uint16"
				},
				{
					"internalType": "uint16",
					"name": "_chainId",
					"type": "uint16"
				},
				{
					"internalType": "address",
					"name": "",
					"type": "address"
				},
				{
					"internalType": "uint256",
					"name": "_configType",
					"type": "uint256"
				}
			],
			"name": "getConfig",
			"outputs": [
				{
					"internalType": "bytes",
					"name": "",
					"type": "bytes"
				}
			],
			"stateMutability": "view",
			"type": "function"
		},
		{
			"inputs": [
				{
					"internalType": "uint16",
					"name": "_remoteChainId",
					"type": "uint16"
				}
			],
			"name": "getTrustedRemoteAddress",
			"outputs": [
				{
					"internalType": "bytes",
					"name": "",
					"type": "bytes"
				}
			],
			"stateMutability": "view",
			"type": "function"
		},
		{
			"inputs": [
				{
					"internalType": "address",
					"name": "spender",
					"type": "address"
				},
				{
					"internalType": "uint256",
					"name": "addedValue",
					"type": "uint256"
				}
			],
			"name": "increaseAllowance",
			"outputs": [
				{
					"internalType": "bool",
					"name": "",
					"type": "bool"
				}
			],
			"stateMutability": "nonpayable",
			"type": "function"
		},
		{
			"inputs": [
				{
					"internalType": "uint16",
					"name": "_srcChainId",
					"type": "uint16"
				},
				{
					"internalType": "bytes",
					"name": "_srcAddress",
					"type": "bytes"
				}
			],
			"name": "isTrustedRemote",
			"outputs": [
				{
					"internalType": "bool",
					"name": "",
					"type": "bool"
				}
			],
			"stateMutability": "view",
			"type": "function"
		},
		{
			"inputs": [],
			"name": "lzEndpoint",
			"outputs": [
				{
					"internalType": "contract ILayerZeroEndpoint",
					"name": "",
					"type": "address"
				}
			],
			"stateMutability": "view",
			"type": "function"
		},
		{
			"inputs": [
				{
					"internalType": "uint16",
					"name": "_srcChainId",
					"type": "uint16"
				},
				{
					"internalType": "bytes",
					"name": "_srcAddress",
					"type": "bytes"
				},
				{
					"internalType": "uint64",
					"name": "_nonce",
					"type": "uint64"
				},
				{
					"internalType": "bytes",
					"name": "_payload",
					"type": "bytes"
				}
			],
			"name": "lzReceive",
			"outputs": [],
			"stateMutability": "nonpayable",
			"type": "function"
		},
		{
			"inputs": [
				{
					"internalType": "uint16",
					"name": "",
					"type": "uint16"
				},
				{
					"internalType": "uint16",
					"name": "",
					"type": "uint16"
				}
			],
			"name": "minDstGasLookup",
			"outputs": [
				{
					"internalType": "uint256",
					"name": "",
					"type": "uint256"
				}
			],
			"stateMutability": "view",
			"type": "function"
		},
		{
			"inputs": [
				{
					"internalType": "address",
					"name": "_to",
					"type": "address"
				},
				{
					"internalType": "uint256",
					"name": "_amount",
					"type": "uint256"
				}
			],
			"name": "mint",
			"outputs": [],
			"stateMutability": "payable",
			"type": "function"
		},
		{
			"inputs": [],
			"name": "mintFee",
			"outputs": [
				{
					"internalType": "uint256",
					"name": "",
					"type": "uint256"
				}
			],
			"stateMutability": "view",
			"type": "function"
		},
		{
			"inputs": [],
			"name": "moderatorAddress",
			"outputs": [
				{
					"internalType": "address",
					"name": "",
					"type": "address"
				}
			],
			"stateMutability": "view",
			"type": "function"
		},
		{
			"inputs": [],
			"name": "name",
			"outputs": [
				{
					"internalType": "string",
					"name": "",
					"type": "string"
				}
			],
			"stateMutability": "view",
			"type": "function"
		},
		{
			"inputs": [
				{
					"internalType": "uint16",
					"name": "_srcChainId",
					"type": "uint16"
				},
				{
					"internalType": "bytes",
					"name": "_srcAddress",
					"type": "bytes"
				},
				{
					"internalType": "uint64",
					"name": "_nonce",
					"type": "uint64"
				},
				{
					"internalType": "bytes",
					"name": "_payload",
					"type": "bytes"
				}
			],
			"name": "nonblockingLzReceive",
			"outputs": [],
			"stateMutability": "nonpayable",
			"type": "function"
		},
		{
			"inputs": [],
			"name": "owner",
			"outputs": [
				{
					"internalType": "address",
					"name": "",
					"type": "address"
				}
			],
			"stateMutability": "view",
			"type": "function"
		},
		{
			"inputs": [
				{
					"internalType": "uint16",
					"name": "",
					"type": "uint16"
				}
			],
			"name": "payloadSizeLimitLookup",
			"outputs": [
				{
					"internalType": "uint256",
					"name": "",
					"type": "uint256"
				}
			],
			"stateMutability": "view",
			"type": "function"
		},
		{
			"inputs": [],
			"name": "precrime",
			"outputs": [
				{
					"internalType": "address",
					"name": "",
					"type": "address"
				}
			],
			"stateMutability": "view",
			"type": "function"
		},
		{
			"inputs": [],
			"name": "renounceOwnership",
			"outputs": [],
			"stateMutability": "nonpayable",
			"type": "function"
		},
		{
			"inputs": [
				{
					"internalType": "uint16",
					"name": "_srcChainId",
					"type": "uint16"
				},
				{
					"internalType": "bytes",
					"name": "_srcAddress",
					"type": "bytes"
				},
				{
					"internalType": "uint64",
					"name": "_nonce",
					"type": "uint64"
				},
				{
					"internalType": "bytes",
					"name": "_payload",
					"type": "bytes"
				}
			],
			"name": "retryMessage",
			"outputs": [],
			"stateMutability": "payable",
			"type": "function"
		},
		{
			"inputs": [
				{
					"internalType": "address",
					"name": "_from",
					"type": "address"
				},
				{
					"internalType": "uint16",
					"name": "_dstChainId",
					"type": "uint16"
				},
				{
					"internalType": "bytes",
					"name": "_toAddress",
					"type": "bytes"
				},
				{
					"internalType": "uint256",
					"name": "_amount",
					"type": "uint256"
				},
				{
					"internalType": "address payable",
					"name": "_refundAddress",
					"type": "address"
				},
				{
					"internalType": "address",
					"name": "_zroPaymentAddress",
					"type": "address"
				},
				{
					"internalType": "bytes",
					"name": "_adapterParams",
					"type": "bytes"
				}
			],
			"name": "sendFrom",
			"outputs": [],
			"stateMutability": "payable",
			"type": "function"
		},
		{
			"inputs": [
				{
					"internalType": "uint16",
					"name": "_version",
					"type": "uint16"
				},
				{
					"internalType": "uint16",
					"name": "_chainId",
					"type": "uint16"
				},
				{
					"internalType": "uint256",
					"name": "_configType",
					"type": "uint256"
				},
				{
					"internalType": "bytes",
					"name": "_config",
					"type": "bytes"
				}
			],
			"name": "setConfig",
			"outputs": [],
			"stateMutability": "nonpayable",
			"type": "function"
		},
		{
			"inputs": [
				{
					"internalType": "uint16",
					"name": "_dstChainId",
					"type": "uint16"
				},
				{
					"internalType": "uint16",
					"name": "_packetType",
					"type": "uint16"
				},
				{
					"internalType": "uint256",
					"name": "_minGas",
					"type": "uint256"
				}
			],
			"name": "setMinDstGas",
			"outputs": [],
			"stateMutability": "nonpayable",
			"type": "function"
		},
		{
			"inputs": [
				{
					"internalType": "uint256",
					"name": "_fee",
					"type": "uint256"
				}
			],
			"name": "setMintFee",
			"outputs": [],
			"stateMutability": "nonpayable",
			"type": "function"
		},
		{
			"inputs": [
				{
					"internalType": "uint16",
					"name": "_dstChainId",
					"type": "uint16"
				},
				{
					"internalType": "uint256",
					"name": "_size",
					"type": "uint256"
				}
			],
			"name": "setPayloadSizeLimit",
			"outputs": [],
			"stateMutability": "nonpayable",
			"type": "function"
		},
		{
			"inputs": [
				{
					"internalType": "address",
					"name": "_precrime",
					"type": "address"
				}
			],
			"name": "setPrecrime",
			"outputs": [],
			"stateMutability": "nonpayable",
			"type": "function"
		},
		{
			"inputs": [
				{
					"internalType": "uint16",
					"name": "_version",
					"type": "uint16"
				}
			],
			"name": "setReceiveVersion",
			"outputs": [],
			"stateMutability": "nonpayable",
			"type": "function"
		},
		{
			"inputs": [
				{
					"internalType": "uint16",
					"name": "_version",
					"type": "uint16"
				}
			],
			"name": "setSendVersion",
			"outputs": [],
			"stateMutability": "nonpayable",
			"type": "function"
		},
		{
			"inputs": [
				{
					"internalType": "uint16",
					"name": "_remoteChainId",
					"type": "uint16"
				},
				{
					"internalType": "bytes",
					"name": "_path",
					"type": "bytes"
				}
			],
			"name": "setTrustedRemote",
			"outputs": [],
			"stateMutability": "nonpayable",
			"type": "function"
		},
		{
			"inputs": [
				{
					"internalType": "uint16",
					"name": "_remoteChainId",
					"type": "uint16"
				},
				{
					"internalType": "bytes",
					"name": "_remoteAddress",
					"type": "bytes"
				}
			],
			"name": "setTrustedRemoteAddress",
			"outputs": [],
			"stateMutability": "nonpayable",
			"type": "function"
		},
		{
			"inputs": [
				{
					"internalType": "bool",
					"name": "_useCustomAdapterParams",
					"type": "bool"
				}
			],
			"name": "setUseCustomAdapterParams",
			"outputs": [],
			"stateMutability": "nonpayable",
			"type": "function"
		},
		{
			"inputs": [
				{
					"internalType": "bytes4",
					"name": "interfaceId",
					"type": "bytes4"
				}
			],
			"name": "supportsInterface",
			"outputs": [
				{
					"internalType": "bool",
					"name": "",
					"type": "bool"
				}
			],
			"stateMutability": "view",
			"type": "function"
		},
		{
			"inputs": [],
			"name": "symbol",
			"outputs": [
				{
					"internalType": "string",
					"name": "",
					"type": "string"
				}
			],
			"stateMutability": "view",
			"type": "function"
		},
		{
			"inputs": [],
			"name": "token",
			"outputs": [
				{
					"internalType": "address",
					"name": "",
					"type": "address"
				}
			],
			"stateMutability": "view",
			"type": "function"
		},
		{
			"inputs": [],
			"name": "totalSupply",
			"outputs": [
				{
					"internalType": "uint256",
					"name": "",
					"type": "uint256"
				}
			],
			"stateMutability": "view",
			"type": "function"
		},
		{
			"inputs": [
				{
					"internalType": "address",
					"name": "to",
					"type": "address"
				},
				{
					"internalType": "uint256",
					"name": "value",
					"type": "uint256"
				}
			],
			"name": "transfer",
			"outputs": [
				{
					"internalType": "bool",
					"name": "",
					"type": "bool"
				}
			],
			"stateMutability": "nonpayable",
			"type": "function"
		},
		{
			"inputs": [
				{
					"internalType": "address",
					"name": "from",
					"type": "address"
				},
				{
					"internalType": "address",
					"name": "to",
					"type": "address"
				},
				{
					"internalType": "uint256",
					"name": "value",
					"type": "uint256"
				}
			],
			"name": "transferFrom",
			"outputs": [
				{
					"internalType": "bool",
					"name": "",
					"type": "bool"
				}
			],
			"stateMutability": "nonpayable",
			"type": "function"
		},
		{
			"inputs": [
				{
					"internalType": "address",
					"name": "newOwner",
					"type": "address"
				}
			],
			"name": "transferOwnership",
			"outputs": [],
			"stateMutability": "nonpayable",
			"type": "function"
		},
		{
			"inputs": [
				{
					"internalType": "uint16",
					"name": "",
					"type": "uint16"
				}
			],
			"name": "trustedRemoteLookup",
			"outputs": [
				{
					"internalType": "bytes",
					"name": "",
					"type": "bytes"
				}
			],
			"stateMutability": "view",
			"type": "function"
		},
		{
			"inputs": [],
			"name": "useCustomAdapterParams",
			"outputs": [
				{
					"internalType": "bool",
					"name": "",
					"type": "bool"
				}
			],
			"stateMutability": "view",
			"type": "function"
		},
		{
			"inputs": [],
			"name": "withdraw",
			"outputs": [],
			"stateMutability": "payable",
			"type": "function"
		}
	]
}